{
    "agg_pk": {
        "xi": "0x10cef644bdf0b65e683c4cd349653ab5b2439ada5a3d7320ed5973ed170da544",
        "xr": "0x2f70349206e936eec27721f599c150ae9c992587c6cfc84750c41aa0dc6437e7",
        "yi": "0x05afd51423de6356f61bf0ba92e68822a26119dc85f3e58e7a13949cda87a511",
        "yr": "0x2faec0b79051cdb0e8dcce30b0200fc83c17137f45cac354530f68932e485742"
    },
    "header": {
        "parentHash": "0x2c1aef929d54a052e2c4e6e316ee90b9e8084163c2d102f5c06290d25324dba0",
        "coinbase": "0xec3e016916ba9f10762e33e03e8556409d096fb4",
        "root": "0x251df252dc379ab4ad2cd558eeaa07dc96f832631dd6c9240fb0ca4f8c54b5ee",
        "txHash": "0x2537a59a48ef58f489f752b4b1ddeef41c6b666a2458c2976417ff015ba67f06",
        "receiptHash": "0xd838764ee576464316f532784322439bf4bb4180377ef956e283d1e1bc8ea301",
        "bloom": "0x20000000000000000000000040000000000000000000000000000000000000000000000000000000000000000000000000000000000000000000000000020000000000000000000000000000000000000000000000000000000000000000000000000000000000000000000000000000000000000000000000000000000000000000000000000000000000000000080000000000000000000000000000000000000000000000000000000000000000000000000000000000000000000000000000000000000000000200000000000000000000000000000000000000000000000000800000000000000000000000000000000000000000000000000000000000",
        "number": "0x4be24",
        "gasLimit": "0x7a1200",
        "gasUsed": "0x8a7b",
        "time": "0x62f0d369",
        "extra": "0xd7820503846765746888676f312e31352e36856c696e75780000000000000000f8d3c0c0c080b841478959de384801282d21e45a2098afa175a3cafb5265319166ed0e82399921cd727b2c684ee4bd06ae3bc25ac8cfce31b4dc2adeeb09107042086e8047dd7dc601f8440db8400d40a9e9ec69b110a522e2ae90eae9ec2115e32016f7de8064a8e89678d989861be1bcd04cdd6ccfecd65de7d01c1ee8968aef0bc2882664ce38932dad6ea78580f8440fb840069668c75cc65ba06ca79578ced4461e89e69b0a056021edc53d9383fb106d1011812f051302ddfeced0c4b14ab04423d6894970b5e7e83113e7a8831b5eb10380",
        "mixDigest": "0x0000000000000000000000000000000000000000000000000000000000000000",
        "nonce": "0x0000000000000000",
        "baseFee": "0x174876e800",
        "hash": "0x7dc5820b5fd22f0594840da8610d61654e060552ac24ab82a15ab066ff1f48a6"
    },
    "key_index": "0x80",
    "proof": [
        "0xf90351822080b9034b02f9034701828a7bb9010020000000000000000000000040000000000000000000000000000000000000000000000000000000000000000000000000000000000000000000000000020000000000000000000000000000000000000000000000000000000000000000000000000000000000000000000000000000000000000000000000000000000000000000000000000000000000000000080000000000000000000000000000000000000000000000000000000000000000000000000000000000000000000000000000000000000000000200000000000000000000000000000000000000000000000000800000000000000000000000000000000000000000000000000000000000f9023df9023a94765a5a86411ab8627516cbb77d5db00b74fe610de1a0aca0a1067548270e80c1209ec69b5381d80bdaf345ad70cf7f00af9c6ed3f9b4b9020000000000000000000000000000000000000000000000000000000000000001000000000000000000000000000000000000000000000000000000000000000140d1edb03b4a0fe5d7b378a7beddd84a81ff8d6f2cf15607be44ba3518b541818f00000000000000000000000000000000000000000000000000000000000000d4000000000000000000000000000000000000000000000000000000004e4541530000000000000000000000000000000000000000000000000000000000000180000000000000000000000000000000000000000000000000000000000000006400000000000000000000000000000000000000000000000000000000000001c00000000000000000000000000000000000000000000000000000000000000014ec3e016916ba9f10762e33e03e8556409d096fb40000000000000000000000000000000000000000000000000000000000000000000000000000000000000014ec3e016916ba9f10762e33e03e8556409d096fb4000000000000000000000000000000000000000000000000000000000000000000000000000000000000000f70616e646172722e746573746e65740000000000000000000000000000000000000000000000000000000000000000000000000000000000000000000000000b6d63735f746f6b656e5f30000000000000000000000000000000000000000000"
    ],
    "receipt": {
        "receipt_type": "2",
        "post_state_or_status": "0x01",
        "cumulative_gas_used": "35451",
        "bloom": "0x20000000000000000000000040000000000000000000000000000000000000000000000000000000000000000000000000000000000000000000000000020000000000000000000000000000000000000000000000000000000000000000000000000000000000000000000000000000000000000000000000000000000000000000000000000000000000000000080000000000000000000000000000000000000000000000000000000000000000000000000000000000000000000000000000000000000000000200000000000000000000000000000000000000000000000000800000000000000000000000000000000000000000000000000000000000",
        "logs": [
            {
                "address": "0x765a5a86411ab8627516cbb77d5db00b74fe610d",
                "topics": [
                    "0x44ff77018688dad4b245e8ab97358ed57ed92269952ece7ffd321366ce078622",
                    "0x00000000000000000000000000000000000000000000000000000000000000d4",
                    "0x000000000000000000000000000000000000000000000000000000004e454153"
                ],
                "data": "0x64e604787cbf194841e7b68d7cd28786f6c9a0a3ab9f8b0a0e87cb4387ab010700000000000000000000000000000000000000000000000000000000000000c000000000000000000000000000000000000000000000000000000000000001000000000000000000000000000000000000000000000000000000000000000140000000000000000000000000000000000000000000000000000000000000006400000000000000000000000000000000000000000000000000000000000001800000000000000000000000000000000000000000000000000000000000000014ec3e016916ba9f10762e33e03e8556409d096fb40000000000000000000000000000000000000000000000000000000000000000000000000000000000000014223e016916ba9f10762e33e03e8556409d096f22000000000000000000000000000000000000000000000000000000000000000000000000000000000000001170616e646172722e746573742e6e65617200000000000000000000000000000000000000000000000000000000000000000000000000000000000000000000156d63735f746f6b656e5f302e746573742e6e6561720000000000000000000000"
            }
        ]
    }
}