{
    "agg_pk": {
        "xi": "0x061889591a3de36d5880e2a59d52a619c7e77b69337ff7e7c8303fb60df4d9c3",
        "xr": "0x25fb3b1d6f045ed6bf02c89501cda0a3e1ba4fdd0c3ac62666190c27adab49e1",
        "yi": "0x237093dfbc3391fb44592c154ac894118aef6619407c2eb1146c4584b2a4dd",
        "yr": "0x2651dec7274460f81c4f15883eee2e5ac2a323fecf8c2073840a42fd00b2e382"
    },
    "header": {
        "parentHash": "0xa86652ef41d1678664611c9b59bf9928d8653dc728389e61a81fdcae582de8c9",
        "coinbase": "0x6f08db5ba52d896f2472eb49580ac6d8d0351a66",
        "root": "0x4d2ef7301c0441e80bd599a8889eb194d6b59f37e99731a3528d64ca29826c73",
        "txHash": "0x48dcc4501685a5a46f7cf23eb320417cd0823df952c24cbd9a6f2dc66a021a77",
        "receiptHash": "0xd16d4396f43bbc9ca8aef9fd112aa7252f452908af5fdef8a4d5c464820c49d4",
        "bloom": "0x00000000000000000000000000000000000000000000000000000000000040000000000000000000000000000000000000000040000000000000000000000000000000000000000000080000000000000000000000000000000000000008000000000000000000000000000000000000000000000000000000000000000000000000000000000000000000000000000000000000000000000000000000000000000000000000000000000000000000000000000000000000000000010000000000000000004000000000000000000200000400000000000000000000000000000000000002000000000100000000000000000000000000000000002000000000",
        "number": "0x3e3be",
        "gasLimit": "0x7a1200",
        "gasUsed": "0x7dcd",
        "time": "0x62ec8f6b",
        "extra": "0xd7820503846765746888676f312e31352e36856c696e75780000000000000000f8d3c0c0c080b841a6de9c1ddef1a20061e729a5a06794720967d604ab37fd1af3de4c1b015be3ea111b2ee152e3b408b9a1809d15cef9f3c373e1aa3808130253d9fe8b3675726b00f8440eb8400c997f7914d722378cfd257221d2ff3ca952b168c11d9ecea4dee645922b50522b59fa7e0dd9aa40996e725fa8ec297c11aa87fcee17dc0032707e18d7cc13ad80f8440fb840182388eca34c4b49375275bcee37e4ddbaa89b42ea3b93f3cfdc27298c4944b61e5335f8289a4810a69ebbf0b3353c2ddd65f76c074a1972ce9bc6b75fbe2e5a80",
        "minDigest": "0x0000000000000000000000000000000000000000000000000000000000000000",
        "nonce": "0x0000000000000000",
        "baseFee": "0x174876e800",
        "hash": "0xd6d1687577c781c961ef1abb20c512f5b952b33191e906775dad78e2a785a9cc"
    },
    "key_index": "0x80",
    "proof": [
        "0xf902d5822080b902cf02f902cb01827dcdb9010000000000000000000000000000000000000000000000000000000000000040000000000000000000000000000000000000000040000000000000000000000000000000000000000000080000000000000000000000000000000000000008000000000000000000000000000000000000000000000000000000000000000000000000000000000000000000000000000000000000000000000000000000000000000000000000000000000000000000000000000000000000000000010000000000000000004000000000000000000200000400000000000000000000000000000000000002000000000100000000000000000000000000000000002000000000f901c1f901be941e2b8b93443cc0a3ac97b7844092fa6950f47435f884a01d7c4ab437b83807c25950ac63192692227b29e3205a809db6a4c3841836eb02a0000000000000000000000000ec3e016916ba9f10762e33e03e8556409d096fb4a0000000000000000000000000ec3e016916ba9f10762e33e03e8556409d096fb4a07240c481582afe87a6cb9f590fa966ad7ded67e66365a9b98bde1d198a99bec1b9012000000000000000000000000000000000000000000000000000000000000000d4000000000000000000000000000000000000000000000000000000004e45415300000000000000000000000000000000000000000000000000000000000000a0000000000000000000000000000000000000000000000000000000000000006400000000000000000000000000000000000000000000000000000000000000e0000000000000000000000000000000000000000000000000000000000000000f70616e646172722e746573746e65740000000000000000000000000000000000000000000000000000000000000000000000000000000000000000000000000b6d63735f746f6b656e5f30000000000000000000000000000000000000000000"
    ],
    "receipt": {
        "receipt_type": 2,
        "post_state_or_status": "0x01",
        "cumulative_gas_used": 32205,
        "bloom": "0x00000000000000000000000000000000000000000000000000000000000040000000000000000000000000000000000000000040000000000000000000000000000000000000000000080000000000000000000000000000000000000008000000000000000000000000000000000000000000000000000000000000000000000000000000000000000000000000000000000000000000000000000000000000000000000000000000000000000000000000000000000000000000010000000000000000004000000000000000000200000400000000000000000000000000000000000002000000000100000000000000000000000000000000002000000000",
        "logs": [
            {
                "address": "0x1e2b8b93443cc0a3ac97b7844092fa6950f47435",
                "topics": [
                    "0x1d7c4ab437b83807c25950ac63192692227b29e3205a809db6a4c3841836eb02",
                    "0x000000000000000000000000ec3e016916ba9f10762e33e03e8556409d096fb4",
                    "0x000000000000000000000000ec3e016916ba9f10762e33e03e8556409d096fb4",
                    "0x7240c481582afe87a6cb9f590fa966ad7ded67e66365a9b98bde1d198a99bec1"
                ],
                "data": "0x00000000000000000000000000000000000000000000000000000000000000d4000000000000000000000000000000000000000000000000000000004e45415300000000000000000000000000000000000000000000000000000000000000a0000000000000000000000000000000000000000000000000000000000000006400000000000000000000000000000000000000000000000000000000000000e0000000000000000000000000000000000000000000000000000000000000000f70616e646172722e746573746e65740000000000000000000000000000000000000000000000000000000000000000000000000000000000000000000000000b6d63735f746f6b656e5f30000000000000000000000000000000000000000000"
            }
        ]
    }
}