let {BigNumber} = require("ethers");

let headers = [{
    "parentHash": "0x6daf8504d13564cc28bd8764226b7c8ed2ef4be236f495247c2b590fbbe72cfc",
    "sha3Uncles": "0x1dcc4de8dec75d7aab85b567b6ccd41ad312451b948a7413f0a142fd40d49347",
    "miner": "0x690b9a9e9aa1c9db991c7721a92d351db4fac990",
    "stateRoot": "0xbc54aeb9ef37a6dd8cf188b443300d1ba7bef310cfe2c453544e47b6fc6c406c",
    "transactionsRoot": "0x27dcb03eb407e284fdb86beab30b709ab7033823288814111e469a6b81feae7c",
    "receiptsRoot": "0x7194fd498a45380f8f5816f0d982a983379b2b507b4421144e356df7ce5f0547",
    "logsBloom": "0x8ca02c97c700192d31897882a2511622b9450c101c102600a6892c019c521457142d134ad470081a030818024abe770c820980246a06e9601e008648b43428228ac4c0500003c42f6ace6009417f8b2c01d12432454c82746c2fbd90839589c003a1d80002c20503457894810cec8949000640302810865c261180d0001cd86121040300baca301908c8184035e0402814ee9495091020585460ac648912c400ca8949003404e821f30241941180460023d05009b9f68ce29cf71f420b681231c91f3227c590b0940a08095300d1111f06f4a65517c80296e325e94240047211f032f09a70508a08c18313258121de8203182d2c461814ea40984f9010a1382e",
    "difficulty": BigNumber.from(0x0),
    "number": BigNumber.from(0xf2d39f),
    "gasLimit": BigNumber.from(0x1c9c380),
    "gasUsed": BigNumber.from(0x9cd344),
    "timestamp": BigNumber.from(0x63683153),
    "extraData": "0x6279206275696c64657230783639",
    "mixHash": "0xefde2f5a408e2ea0fe2f2981482597154cbc134d69bdd29aa04f45eb6ec125df",
    "nonce": "0x0000000000000000",
    "baseFeePerGas": BigNumber.from(0x27d777dfd),
    "hash": "0x9224fff26cbf115f558f0d5157091d9a40690fba912da6672b24b933b03a39cd"
}, {
    "parentHash": "0x9224fff26cbf115f558f0d5157091d9a40690fba912da6672b24b933b03a39cd",
    "sha3Uncles": "0x1dcc4de8dec75d7aab85b567b6ccd41ad312451b948a7413f0a142fd40d49347",
    "miner": "0xdafea492d9c6733ae3d56b7ed1adb60692c98bc5",
    "stateRoot": "0x189185f2c18ee24238de52a8a4373a57805f9e4a71691759fdd089bed6a4660d",
    "transactionsRoot": "0x01c8c64ec7d3ff9e38876bc51b276de7b58b45d9a43a5c8601a9a9974008be05",
    "receiptsRoot": "0x89be3144ced11450aadef63faf58559e91190b535739113e5ffa21e5401a6cdc",
    "logsBloom": "0xf478552301023a8cb8584e6aaabd7b3b84c66da45491d200345b704e8c7e2956001723ca5242a0041a5c3b2ac23ddb94a36382688934aa6a1ad9106c706627708d67495040064c1c7a42730954203ae81d12940797d42e439641f685ba2a2820527d01c08a168a274f7ebaf8243daca7c2b2eb70ca1c47a0527840dac8784669953183e4029a10113d4d8bd245937fead023a58bf9ef06b877204945209420e0efa9f76cd1fdfb624a730d84db562cc663d808582827e14349690fea43b810d0ff8f30fa5fca685e0750d88428ced1046ff46a5886eb0b9d63442dc6289c60b271bea0fc239840b22085338d20638b8224786c8933cf465441b88b94228f54b0",
    "difficulty": BigNumber.from(0x0),
    "number": BigNumber.from(0xf2d3a0),
    "gasLimit": BigNumber.from(0x1c9c380),
    "gasUsed": BigNumber.from(0xd78a69),
    "timestamp": BigNumber.from(0x6368315f),
    "extraData": "0x496c6c756d696e61746520446d6f63726174697a6520447374726962757465",
    "mixHash": "0xb51c85e991fdc8127ccfefbdd2e0309339ef14e43b193ae0e0a208fbfa5fb030",
    "nonce": "0x0000000000000000",
    "baseFeePerGas": BigNumber.from(0x264617fbc),
    "hash": "0xf0b5e80af883f6aad7701d27347d8bbe725fc917a9481f1d11d4308c24a56e0c"
}, {
    "parentHash": "0xf0b5e80af883f6aad7701d27347d8bbe725fc917a9481f1d11d4308c24a56e0c",
    "sha3Uncles": "0x1dcc4de8dec75d7aab85b567b6ccd41ad312451b948a7413f0a142fd40d49347",
    "miner": "0xdafea492d9c6733ae3d56b7ed1adb60692c98bc5",
    "stateRoot": "0xe6fbb039c5b5d0b74051a19f35f3fcfaf553c75a3a58154e871b8c831d5d6d32",
    "transactionsRoot": "0x9bb4555c5ad74cefaefae993ecda6c686d2cf4fb986d4968ed368ba13c545177",
    "receiptsRoot": "0x0bd62b7b2c5a8b7bcf50ecfc31e25900cb80e23337cd21b1354a37e5eddda1f4",
    "logsBloom": "0x5ca6d9a16110190e51e80098a2d153f512c187170f702812a0a301431e4a45a110fe434cd620881581901a5843308105c24aa2a228417e42939489edf03eb622117731142b80047d79ba4a0f461510e80488598e4e50da44ac313c99c325d140f288020ec32ac62241f6d8810138695922028930531c24f01a4008d84e1a4a42b4a01504c253ba1a88ce10502d056126b4888221c320029dc431a041491000cdcf02439a70b764824acd4bc48d9e54c122dc2931025f1272e87a2ca433881000510c218258803222158a8100c84f5215d6c4aac8568f881e820009ea5a00602746bfa00c11008a90048590a5010d0e8c4471205c481800c608f959920447352f",
    "difficulty": BigNumber.from(0x0),
    "number": BigNumber.from(0xf2d3a1),
    "gasLimit": BigNumber.from(0x1c9c380),
    "gasUsed": BigNumber.from(0xc3d012),
    "timestamp": BigNumber.from(0x6368316b),
    "extraData": "0x496c6c756d696e61746520446d6f63726174697a6520447374726962757465",
    "mixHash": "0xb5ccd9bf85cdb437c7c149f173a544f17cd97a3fd2a4a6b0e9a79ce9c57f79be",
    "nonce": "0x0000000000000000",
    "baseFeePerGas": BigNumber.from(0x25feb446b),
    "hash": "0xf2a00bee7df93b68b41986d44c8026f5754775349dfc600939e321a6d66ea670"
}, {
    "parentHash": "0xf2a00bee7df93b68b41986d44c8026f5754775349dfc600939e321a6d66ea670",
    "sha3Uncles": "0x1dcc4de8dec75d7aab85b567b6ccd41ad312451b948a7413f0a142fd40d49347",
    "miner": "0x690b9a9e9aa1c9db991c7721a92d351db4fac990",
    "stateRoot": "0x0a70acd32905600bac89735c9ad3ba2ab1d89106ce21519e4fbd02dc65d364ec",
    "transactionsRoot": "0x57743c0860fa1a39f14d4468b8748a24a01780c9fdbf4c97990970817efb875c",
    "receiptsRoot": "0xd64399349eeee12b9f018fd5c35f81b69ec04b8028165bbac785c835a4db08fc",
    "logsBloom": "0x18ac3fcb9b9f1bbf59bc7731a7184f790ec8ff8f80493bf061fb475ffdd64737d3670140f44e7b19b353dba8423957a52aa9f8af1b26fdbd8eb3f30b247f21c5cb5f49137b33c5ecff97fe4cf76a62eb55d32c243f657bc000e0fc0fc63fe1ad5f7c9b4c878b5b5bffa4798522a428ddea16d2f5a39cfee1df349fdea159c853072b47278e2257729def5f420fe3b726fea9bc0329cc708c7c3201e2d19e036fcbeaf793e3c36f69eff775c4ed476a8052bf7f1938eeadab10eb2f7f018e517cdf3e148a4452df53ef58f0ab6a6a5f46967666ef9fea0dd1cf1fbb2758fee8cf55b6e90d085f2c8b50f7b5ee3b0dabee36233960dbdfc36389fccdb04997bcab",
    "difficulty": BigNumber.from(0x0),
    "number": BigNumber.from(0xf2d3a2),
    "gasLimit": BigNumber.from(0x1c9c380),
    "gasUsed": BigNumber.from(0x15ed7d3),
    "timestamp": BigNumber.from(0x63683177),
    "extraData": "0x406275696c64657230783639",
    "mixHash": "0x146c147841c4a311f04f01f48a1672d916a38007e2f5f68255e21fa6be2bea3a",
    "nonce": "0x0000000000000000",
    "baseFeePerGas": BigNumber.from(0x254f09ee4),
    "hash": "0xa831c56ed0b877d54e769c3ce9d6c7357a9f5a53d21db73ed47d0a835e8efaef"
}, {
    "parentHash": "0xa831c56ed0b877d54e769c3ce9d6c7357a9f5a53d21db73ed47d0a835e8efaef",
    "sha3Uncles": "0x1dcc4de8dec75d7aab85b567b6ccd41ad312451b948a7413f0a142fd40d49347",
    "miner": "0x95222290dd7278aa3ddd389cc1e1d165cc4bafe5",
    "stateRoot": "0xbcbd9c453b9058d24167019f0b22cf1613f1438a92f430d0bb1d17ec4369ec55",
    "transactionsRoot": "0x3a0b67513fbbfa86126b2242f8f3b6659fd1df4edc9ae8e6d5bc6b42b099470d",
    "receiptsRoot": "0x4f428499f1a735535e35f93a726d7582c755b2606b7125c80b0d313b496f2ac5",
    "logsBloom": "0xb469506160011ac974162ad2f2d9d4ed1c500c8b09105344d5d76581dc4cc819d4bd0960d80301200134d258812d25856329a0189aa5ff7092f882d318ecad12f0019d124a20c3adbbc22839da10d1e024b2023d0d4f2e1064f4bc278787794192dd223ba20a08856126908aba88794844b68812c9185d69b427c0780e1a8000a6058129628a1349455f32c1270340a452219403612650fa50600174ca10d8e89a4f81eb36b365a60217c290f925cc046240471930a84be281320e9803c021847d2604561c9b5850166a63800a5d1c518736a440a3ba13b40439593f4e6e601a203fe17a2d09880cf886520811732d0364256248777cbe4668a8f94243caf630",
    "difficulty": BigNumber.from(0x0),
    "number": BigNumber.from(0xf2d3a3),
    "gasLimit": BigNumber.from(0x1c9c380),
    "gasUsed": BigNumber.from(0xe5a9b3),
    "timestamp": BigNumber.from(0x63683183),
    "extraData": "0x6265617665726275696c642e6f7267",
    "mixHash": "0xcdfbf432fdf2def0e739d7975416f3e848c107d25b706ca78021d26b7c3acaf4",
    "nonce": "0x0000000000000000",
    "baseFeePerGas": BigNumber.from(0x27cb34a94),
    "hash": "0x82ef6db3969c7943048018b9c8a612d9cddab7615b323bce22f831df19510040"
}, {
    "parentHash": "0x82ef6db3969c7943048018b9c8a612d9cddab7615b323bce22f831df19510040",
    "sha3Uncles": "0x1dcc4de8dec75d7aab85b567b6ccd41ad312451b948a7413f0a142fd40d49347",
    "miner": "0x95222290dd7278aa3ddd389cc1e1d165cc4bafe5",
    "stateRoot": "0x545708ad2a1c401d4a695a784ada088794f80eccb0a0cb03a4e4bc7bd05ee395",
    "transactionsRoot": "0xf9401f3e1040822ce57f1616fbeec24744f363ac835441d4d1a1dcee7d65f1ff",
    "receiptsRoot": "0x15560df72667d123a6b5ed6569b617abf121bada099d55c5747f290f990db99c",
    "logsBloom": "0x5f20812707ed92039600b812e2580ea948068d00012108511585f490dcf83c6140e8c15000850b4d0108594e42bd0331c224a0410a023f8826f2c0815466e536a652c410ca7250fa2a731a2cc090593c34d01800464c86e4262bf40fd0108932db0c40080a1320860166308428f56ce9c01b515680144640028a259b09e8b478b45311123a1210f460484d80470075303322844365d6e0ba4f3829c60892a6828aab850324086aa5e35eccd48a06c1620408a6d1a1abbc5285687e22878800310dce05820c489b900658060038649222570e83641788075811a10fc66d207f003038ac89298988012184308a2c15cad22401a00f8f3b2f57207829f950e21e30",
    "difficulty": BigNumber.from(0x0),
    "number": BigNumber.from(0xf2d3a4),
    "gasLimit": BigNumber.from(0x1c9c380),
    "gasUsed": BigNumber.from(0xab6eab),
    "timestamp": BigNumber.from(0x6368318f),
    "extraData": "0x6265617665726275696c642e6f7267",
    "mixHash": "0x2912dc36449bffe308f1bd47e6b2cf14deba5b02aa8591a2dc68277dc48d6640",
    "nonce": "0x0000000000000000",
    "baseFeePerGas": BigNumber.from(0x27cf8d17d),
    "hash": "0x71eb594cb38ebd8d4c1bbde27ddf27418f57e30346a668559553e5342f069fb0"
}, {
    "parentHash": "0x71eb594cb38ebd8d4c1bbde27ddf27418f57e30346a668559553e5342f069fb0",
    "sha3Uncles": "0x1dcc4de8dec75d7aab85b567b6ccd41ad312451b948a7413f0a142fd40d49347",
    "miner": "0xdafea492d9c6733ae3d56b7ed1adb60692c98bc5",
    "stateRoot": "0xaf00e17a2cd1b23673aa53db6cbe34510456da81f18823d992771f456e002eaa",
    "transactionsRoot": "0x7328ed78ccf347b819af433ccba044bb213ce9170591b561810a87b1dafa77a8",
    "receiptsRoot": "0x42ac255a9d4c3b52b8435af434c5058bc550edaa64c9d42bd4006e994e5a7f21",
    "logsBloom": "0x9a6a4811c70633845a6671248f41e62b082961a0d1887871848d75558c614c210284b7ea2b8ac8a821335bca432c61867a2a89832e526f8603a41ad416f2326087252135cc0741b8a8b2cde8515064e16af96e8646f06294bf2c7c54b3c331981b71e280b72300414331512528039be182102a7085b02c1d520194db2ddcc82b12134f21e242da0a874dc3491912722308d41c5d9144d11c7760695e1df06a21ee67fb51e89378c73193c0d422c101484a35162d2a23dcb74f294eb787aec07f59fa841b2141e69305540288655c1ac22f271662b3b9313428210d17a4352ada5539a57eacec498918c172f8893f48612653a02d9a4a70d64c6caa9200e21c34",
    "difficulty": BigNumber.from(0x0),
    "number": BigNumber.from(0xf2d3a5),
    "gasLimit": BigNumber.from(0x1c9c380),
    "gasUsed": BigNumber.from(0xb7b55a),
    "timestamp": BigNumber.from(0x6368319b),
    "extraData": "0x496c6c756d696e61746520446d6f63726174697a6520447374726962757465",
    "mixHash": "0x10168b858cb16c34e8f50f79ad2192ae1224ad9d033c38c4b6b44d465fe42015",
    "nonce": "0x0000000000000000",
    "baseFeePerGas": BigNumber.from(0x268fca459),
    "hash": "0xc41a63403d700b073d2285fbea16a93e39f1ad4e8ac5d69ded06c283ed0decfb"
}, {
    "parentHash": "0xc41a63403d700b073d2285fbea16a93e39f1ad4e8ac5d69ded06c283ed0decfb",
    "sha3Uncles": "0x1dcc4de8dec75d7aab85b567b6ccd41ad312451b948a7413f0a142fd40d49347",
    "miner": "0x3f698d796f806988dc5901b30c2869fdb027ef41",
    "stateRoot": "0x2a0f55a7236ee2d8d31efad72b951faa6c37fe18b1d7fc432e3530d70a16feeb",
    "transactionsRoot": "0x3668d2e44302afb2cba2409ccb980a234e12dc6f704ac173e40f81efb37039ee",
    "receiptsRoot": "0x8c62b2a57db66411c47c48ecfd1df5435e6f0565800b0e3fe56fae91d6f672c1",
    "logsBloom": "0x002020021000100024080000c0500000000000000280000018108000088201000004404010081004002004204020010123020000086022000088201a0120400000020030404200080990000840000021000a80040000420600000005820000000000c84082040080010081400000090200000000000000000000041800080500100c900000150040080da002014004800000000101108018680000602010001002002000010030000480208000040040000000c800000840090000400300000040080002000308000400800801640000820820008a03201000000108000026200050200005000000010000000401080000000580000200440044010000000428",
    "difficulty": BigNumber.from(0x0),
    "number": BigNumber.from(0xf2d3a6),
    "gasLimit": BigNumber.from(0x1c9c380),
    "gasUsed": BigNumber.from(0x1d7640),
    "timestamp": BigNumber.from(0x636831a7),
    "extraData": "0x",
    "mixHash": "0xbdd216cf57e49822bda23093c3679cde58ab1bceb7cbea5000303fb97d5f29ac",
    "nonce": "0x0000000000000000",
    "baseFeePerGas": BigNumber.from(0x259c3ef90),
    "hash": "0x433c7e3a23266a00de141465efe1a62be84eadb7455e0ddc7b0fdec928efff28"
}, {
    "parentHash": "0x433c7e3a23266a00de141465efe1a62be84eadb7455e0ddc7b0fdec928efff28",
    "sha3Uncles": "0x1dcc4de8dec75d7aab85b567b6ccd41ad312451b948a7413f0a142fd40d49347",
    "miner": "0x690b9a9e9aa1c9db991c7721a92d351db4fac990",
    "stateRoot": "0xe9ae44ec4292ce6adde21d0de07bd82874e9556698cb6dbf02f876418eed1db0",
    "transactionsRoot": "0x8530a1ac98c0b11ebe0871a16be474700cab7da808361e21be600826e34cae55",
    "receiptsRoot": "0x26e47c6e22f40808617556457b46f827eb14fa1d98b236327de43915d5a336f0",
    "logsBloom": "0x3fbc4727d9da7680ef8b15e2f61f5aa75bdf4967548f227226d53dd57dcda4bede16ce719fa3c3bdd7fc0f5a0a2cfda572ad33d82f7efb71cbc4e4ec937bef53c9ed4b3d79e3b5eef9f7673c5b36c3758f7f9cc956556efc9d777a5fcbcfe8981f7d384c7e7f0f7f5590580d12a65d995e1ebbe1f1dd45a3c64bcffebb7a3ae4fe35b7321b2ef39ea4fb4c58a5ea5e67a46ae597bffea61ce6386d7f86323eeaff13ebd573c5f57b8ac7d9f29a6b45c4f1dffbfe7c6f2b5a46ffbd7f6fad76314f5816b38568b8c715d0a357e84c7e54f6fca7debfaea3555fdc7b033bfd72bb167fbbac070f6dedf98d5dedabb7def6b273275cc3bde1de5d6aa9f605b7e627",
    "difficulty": BigNumber.from(0x0),
    "number": BigNumber.from(0xf2d3a7),
    "gasLimit": BigNumber.from(0x1c9c380),
    "gasUsed": BigNumber.from(0x1c96d52),
    "timestamp": BigNumber.from(0x636831b3),
    "extraData": "0x406275696c64657230783639",
    "mixHash": "0xe2dd32dc4057813fae35d81c770ddb01c5548ab368af78d63e2021b6494c5fec",
    "nonce": "0x0000000000000000",
    "baseFeePerGas": BigNumber.from(0x2183a28f7),
    "hash": "0x778417262a8554ae16418370904e83536cfd97f2433b1022ac900879ea9235c3"
}, {
    "parentHash": "0x778417262a8554ae16418370904e83536cfd97f2433b1022ac900879ea9235c3",
    "sha3Uncles": "0x1dcc4de8dec75d7aab85b567b6ccd41ad312451b948a7413f0a142fd40d49347",
    "miner": "0x95222290dd7278aa3ddd389cc1e1d165cc4bafe5",
    "stateRoot": "0xce1187957461001384ebcc54efe9abcf7012ea1d714eb4648416da2a6fdf9a48",
    "transactionsRoot": "0xe6e93892da4916ec2a00a6433099a67f0388c56f29a35af4c3e5495b06d1664d",
    "receiptsRoot": "0xc2c78cdf5040ce60d410db1de7a8d6c4b7bf8ce555630231c26eaea8abaad42e",
    "logsBloom": "0x7073df9779a4dfaffe9318b7be9fd3fb5be925c9ddd6bace6419dad3ff5559eee59f8b7e9f0b67dd469b3a8276bde5855e8fa4a1bebfff479bddd606ddbe756aad7ddbfa5fedb5fdfbffe73a6675f6e966ffdabfff5e7ac5fcf3fd4fabebbd76ff2abb6c5f2fc69f47fd987c19f8bca943f9bae8b75c74bf7657de9a3d4b367542f7cfedeae29938abdfaf6e49dfdf67fcccbf3ff3cc965eefe953dce8b31be5bfc2cbfb79df6ef3fffffaff9f9cffa9eaffecb3fc8eddf2bf6f1fbd33ade951ef5dbfdbfdbf3e7f9ddf97acc7ff5f3e9ff8a767bdbf2cb8c9ee79fbfabfb06d38bfa9cf39ba7ce8a5ee9be6c137ce6f6f3ff37cebfc3bfda1defb5f5bbbfcef",
    "difficulty": BigNumber.from(0x0),
    "number": BigNumber.from(0xf2d3a8),
    "gasLimit": BigNumber.from(0x1c9c380),
    "gasUsed": BigNumber.from(0x1c86b70),
    "timestamp": BigNumber.from(0x636831cb),
    "extraData": "0x6265617665726275696c642e6f7267",
    "mixHash": "0x67ccdaf97f38b61e914ab02a996c9340c64ac2db23eb24445d67e87dbc7b5b90",
    "nonce": "0x0000000000000000",
    "baseFeePerGas": BigNumber.from(0x25b283131),
    "hash": "0xc3a1df4db9777e14f5bf8f7d8e58e3443c0e9a7b9883f463ad956e25617dce27"
}]


let receiptProof_15913887 = {
    header: {
        "parentHash": "0x6daf8504d13564cc28bd8764226b7c8ed2ef4be236f495247c2b590fbbe72cfc",
        "sha3Uncles": "0x1dcc4de8dec75d7aab85b567b6ccd41ad312451b948a7413f0a142fd40d49347",
        "miner": "0x690b9a9e9aa1c9db991c7721a92d351db4fac990",
        "stateRoot": "0xbc54aeb9ef37a6dd8cf188b443300d1ba7bef310cfe2c453544e47b6fc6c406c",
        "transactionsRoot": "0x27dcb03eb407e284fdb86beab30b709ab7033823288814111e469a6b81feae7c",
        "receiptsRoot": "0x7194fd498a45380f8f5816f0d982a983379b2b507b4421144e356df7ce5f0547",
        "logsBloom": "0x8ca02c97c700192d31897882a2511622b9450c101c102600a6892c019c521457142d134ad470081a030818024abe770c820980246a06e9601e008648b43428228ac4c0500003c42f6ace6009417f8b2c01d12432454c82746c2fbd90839589c003a1d80002c20503457894810cec8949000640302810865c261180d0001cd86121040300baca301908c8184035e0402814ee9495091020585460ac648912c400ca8949003404e821f30241941180460023d05009b9f68ce29cf71f420b681231c91f3227c590b0940a08095300d1111f06f4a65517c80296e325e94240047211f032f09a70508a08c18313258121de8203182d2c461814ea40984f9010a1382e",
        "difficulty": BigNumber.from(0x0),
        "number": BigNumber.from(0xf2d39f),
        "gasLimit": BigNumber.from(0x1c9c380),
        "gasUsed": BigNumber.from(0x9cd344),
        "timestamp": BigNumber.from(0x63683153),
        "extraData": "0x6279206275696c64657230783639",
        "mixHash": "0xefde2f5a408e2ea0fe2f2981482597154cbc134d69bdd29aa04f45eb6ec125df",
        "nonce": "0x0000000000000000",
        "baseFeePerGas": BigNumber.from(0x27d777dfd),
        "hash": "0x9224fff26cbf115f558f0d5157091d9a40690fba912da6672b24b933b03a39cd"
    },
    txReceipt: {
        receiptType: BigNumber.from(2),
        postStateOrStatus: "0x01",
        cumulativeGasUsed: BigNumber.from(508954),
        bloom: "0x00200004000000000000000080000000000000000000000000010000000000000000000000000000000000000000040002000000080000000000000000000000020400000000000000000008000000200000000000400000000000000000004000001000000000000000000000000000000000000000040002010010000000000000000000000010004000000000000000000004000000080000004000000000000000000000000000000000000000000000000000000800000000000000000000000002000000000000000000000100000000001040001000000002000020000000200000100000000000000000000000000000000000000000000000000000",
        logs: [
            {
                "addr": "0x720207f72c487cf50f33a8d170e4d31f70998f97",
                "topics": ["0xddf252ad1be2c89b69c2b068fc378daa952ba7f163c4a11628f55a4df523b3ef", "0x000000000000000000000000f79610da2dbb16d091b66670892126a8dffbbbbd", "0x000000000000000000000000720207f72c487cf50f33a8d170e4d31f70998f97"],
                "data": "0x000000000000000000000000000000000000000000000108f5ca65cfe09bb168"
            }, {
                "addr": "0x720207f72c487cf50f33a8d170e4d31f70998f97",
                "topics": ["0xddf252ad1be2c89b69c2b068fc378daa952ba7f163c4a11628f55a4df523b3ef", "0x000000000000000000000000f79610da2dbb16d091b66670892126a8dffbbbbd", "0x0000000000000000000000008198f65f8c75beaa7030f194bdf7850f72082afa"],
                "data": "0x0000000000000000000000000000000000000000000018d70af98b7d0e98a1c9"
            }, {
                "addr": "0xc02aaa39b223fe8d0a0e5c4f27ead9083c756cc2",
                "topics": ["0xddf252ad1be2c89b69c2b068fc378daa952ba7f163c4a11628f55a4df523b3ef", "0x0000000000000000000000008198f65f8c75beaa7030f194bdf7850f72082afa", "0x0000000000000000000000007a250d5630b4cf539739df2c5dacb4c659f2488d"],
                "data": "0x0000000000000000000000000000000000000000000000000350f34572c7c21a"
            }, {
                "addr": "0x8198f65f8c75beaa7030f194bdf7850f72082afa",
                "topics": ["0x1c411e9a96e071241c2f21f7726b17ae89e3cab4c78be50e062b03a9fffbbad1"],
                "data": "0x0000000000000000000000000000000000000000000a13b3b2c7666743748f05000000000000000000000000000000000000000000000001561b8ea56f5a9385"
            }, {
                "addr": "0x8198f65f8c75beaa7030f194bdf7850f72082afa",
                "topics": ["0xd78ad95fa46c994b6551d0da85fc275fe613ce37657fb8d5e3d130840159d822", "0x0000000000000000000000007a250d5630b4cf539739df2c5dacb4c659f2488d", "0x0000000000000000000000007a250d5630b4cf539739df2c5dacb4c659f2488d"],
                "data": "0x0000000000000000000000000000000000000000000018d70af98b7d0e98a1c9000000000000000000000000000000000000000000000000000000000000000000000000000000000000000000000000000000000000000000000000000000000000000000000000000000000000000000000000000000000350f34572c7c21a"
            }, {
                "addr": "0xc02aaa39b223fe8d0a0e5c4f27ead9083c756cc2",
                "topics": ["0x7fcf532c15f0a6db0bd6d0e038bea71d30d808c7d98cb3bf7268a95bf5081b65", "0x0000000000000000000000007a250d5630b4cf539739df2c5dacb4c659f2488d"],
                "data": "0x0000000000000000000000000000000000000000000000000350f34572c7c21a"
            }
        ]
    },
    keyIndex: "0x0800",
    proof: [
        '0xf90111a03f04c4a2cf19517207927a1c87e2ae4615d600fa9ff73e12f78bbf5984c3dde4a014eb023d68da90766fca0b8e0d5fdddc9daeeede8fe59a9a7f4696fc86b4df10a00ef1e6e7257b5e46f59a76b5aee505c738206303be4fc7ee164bef3d967d7723a01f6fbce875e9440f801c7c087204c9bc6dd09147fc1fc3d9ce7e23b8e0f4c8a7a037a0eb854ec83f3c17c07537183cf7c33b15576d403edd70429ca8196bff07cda0f68eec3eeec7fdecf852f3fc4b86671cdc146c9516bb63a4083ff4ddb1bca0d2a032430249265df5814c1c9448b5a2a6703a35e9fbc4aaf498298b4d1c3b6f191080a07ff8f67dccc7ca56bbfcf25325142b9093bfaaecaa296449fbe84f3aac2855a08080808080808080',
        '0xf904df30b904db02f904d7018307c41ab9010000200004000000000000000080000000000000000000000000010000000000000000000000000000000000000000040002000000080000000000000000000000020400000000000000000008000000200000000000400000000000000000004000001000000000000000000000000000000000000000040002010010000000000000000000000010004000000000000000000004000000080000004000000000000000000000000000000000000000000000000000000800000000000000000000000002000000000000000000000100000000001040001000000002000020000000200000100000000000000000000000000000000000000000000000000000f903ccf89b94720207f72c487cf50f33a8d170e4d31f70998f97f863a0ddf252ad1be2c89b69c2b068fc378daa952ba7f163c4a11628f55a4df523b3efa0000000000000000000000000f79610da2dbb16d091b66670892126a8dffbbbbda0000000000000000000000000720207f72c487cf50f33a8d170e4d31f70998f97a0000000000000000000000000000000000000000000000108f5ca65cfe09bb168f89b94720207f72c487cf50f33a8d170e4d31f70998f97f863a0ddf252ad1be2c89b69c2b068fc378daa952ba7f163c4a11628f55a4df523b3efa0000000000000000000000000f79610da2dbb16d091b66670892126a8dffbbbbda00000000000000000000000008198f65f8c75beaa7030f194bdf7850f72082afaa00000000000000000000000000000000000000000000018d70af98b7d0e98a1c9f89b94c02aaa39b223fe8d0a0e5c4f27ead9083c756cc2f863a0ddf252ad1be2c89b69c2b068fc378daa952ba7f163c4a11628f55a4df523b3efa00000000000000000000000008198f65f8c75beaa7030f194bdf7850f72082afaa00000000000000000000000007a250d5630b4cf539739df2c5dacb4c659f2488da00000000000000000000000000000000000000000000000000350f34572c7c21af879948198f65f8c75beaa7030f194bdf7850f72082afae1a01c411e9a96e071241c2f21f7726b17ae89e3cab4c78be50e062b03a9fffbbad1b8400000000000000000000000000000000000000000000a13b3b2c7666743748f05000000000000000000000000000000000000000000000001561b8ea56f5a9385f8fc948198f65f8c75beaa7030f194bdf7850f72082afaf863a0d78ad95fa46c994b6551d0da85fc275fe613ce37657fb8d5e3d130840159d822a00000000000000000000000007a250d5630b4cf539739df2c5dacb4c659f2488da00000000000000000000000007a250d5630b4cf539739df2c5dacb4c659f2488db8800000000000000000000000000000000000000000000018d70af98b7d0e98a1c9000000000000000000000000000000000000000000000000000000000000000000000000000000000000000000000000000000000000000000000000000000000000000000000000000000000000000000000000000000000350f34572c7c21af87a94c02aaa39b223fe8d0a0e5c4f27ead9083c756cc2f842a07fcf532c15f0a6db0bd6d0e038bea71d30d808c7d98cb3bf7268a95bf5081b65a00000000000000000000000007a250d5630b4cf539739df2c5dacb4c659f2488da00000000000000000000000000000000000000000000000000350f34572c7c21a'
    ]
}


module.exports = {
    headers,
    receiptProof_15913887,
};