let { BigNumber } = require("ethers");


let initBlock = {
  parentHash: '0x92555ebd0f392e43d9831b4671485a1c03ce9d8780e67edd87574106e541cb3b',
  sha3Uncles: '0x1dcc4de8dec75d7aab85b567b6ccd41ad312451b948a7413f0a142fd40d49347',
  miner: '0x0000000000000000000000000000000000000000',
  stateRoot: '0x3cf95178f2c890aceadd98f8ecd2df9b39d2c8af3bfb2d177df79e7c8c787669',
  transactionsRoot: '0x56e81f171bcc55a6ff8345e692c0f86e5b48e01b996cadc001622fb5e363b421',
  receiptsRoot: '0x56e81f171bcc55a6ff8345e692c0f86e5b48e01b996cadc001622fb5e363b421',
  logsBloom: '0x00000000000000000000000000000000000000000000000000000000000000000000000000000000000000000000000000000000000000000000000000000000000000000000000000000000000000000000000000000000000000000000000000000000000000000000000000000000000000000000000000000000000000000000000000000000000000000000000000000000000000000000000000000000000000000000000000000000000000000000000000000000000000000000000000000000000000000000000000000000000000000000000000000000000000000000000000000000000000000000000000000000000000000000000000000000',
  difficulty: "12",
  number: "26326527",
  gasLimit: "20000000",
  gasUsed: "0",
  timestamp: "1693470020",
  extraData: '0xd883010008846274746388676f312e31392e34856c696e7578000000000000001ac4b7579898c12c53034c9b1caa6c7a06b7bc2e0000000000000000000000000000000000000001201eb831f3ac536a0b4dd7e14c61b14c314bc537000000000000000000000000000000000000000130322fe9bf13cb108a699422c7e60b4ea584ed4d0000000000000000000000000000000000000001492a0b508baa44e0243849cf7f04ab7307cafdcb00000000000000000000000000000000000000014c95a52686a9b3ff9cf787b94b8549a988334c5700000000000000000000000000000000000000016e275592bd4af7192e9016b7c80d0db0a3ba190a00000000000000000000000000000000000000017d3b5add0251e21ee5c83bb0929ca507041cc53f0000000000000000000000000000000000000001a05d9c6defb99612dee27057df065312a988b8b90000000000000000000000000000000000000001d782c11d7f8be621bd726f9241acc0278ae2a4a20000000000000000000000000000000000000001dcc05b56f58af80dba0f6751c223f231dcab3e1a0000000000000000000000000000000000000001f5094a6c2f33d9b218d3dc386323695c51f0df790000000000000000000000000000000000000001fd0a288bad34306fd0295ca48d5f9ccb21da530400000000000000000000000000000000000000013b8c0ba6dd48e4437000cd7a526873dba280126cd8f449ba3e43c88b74d175b35b1b7eb34c3cde17204495ee57a34ef26aae1f311863763dc03b91c71612cc3300',
  mixHash: '0x0000000000000000000000000000000000000000000000000000000000000000',
  nonce: '0x0000000000000000'
}



let addBlock_1_1 = {
  parentHash: '0xa0fdb79c15664df93a63d94f8e39d222d4cb54a22d4b9d335d03396efb6ab64b',
  sha3Uncles: '0x1dcc4de8dec75d7aab85b567b6ccd41ad312451b948a7413f0a142fd40d49347',
  miner: '0x0000000000000000000000000000000000000000',
  stateRoot: '0x357f67e57a88b2f30935ff04e2e5c833b296081fcbcfe858f9aa26f1f0b242ea',
  transactionsRoot: '0x56e81f171bcc55a6ff8345e692c0f86e5b48e01b996cadc001622fb5e363b421',
  receiptsRoot: '0x56e81f171bcc55a6ff8345e692c0f86e5b48e01b996cadc001622fb5e363b421',
  logsBloom: '0x00000000000000000000000000000000000000000000000000000000000000000000000000000000000000000000000000000000000000000000000000000000000000000000000000000000000000000000000000000000000000000000000000000000000000000000000000000000000000000000000000000000000000000000000000000000000000000000000000000000000000000000000000000000000000000000000000000000000000000000000000000000000000000000000000000000000000000000000000000000000000000000000000000000000000000000000000000000000000000000000000000000000000000000000000000000',
  difficulty:"12",
  number: "26326591",
  gasLimit: "20000000",
  gasUsed: "0",
  timestamp: "1693470152",
  extraData: '0xd883010008846274746388676f312e31392e34856c696e7578000000000000001ac4b7579898c12c53034c9b1caa6c7a06b7bc2e0000000000000000000000000000000000000001201eb831f3ac536a0b4dd7e14c61b14c314bc537000000000000000000000000000000000000000130322fe9bf13cb108a699422c7e60b4ea584ed4d0000000000000000000000000000000000000001492a0b508baa44e0243849cf7f04ab7307cafdcb00000000000000000000000000000000000000014c95a52686a9b3ff9cf787b94b8549a988334c5700000000000000000000000000000000000000016e275592bd4af7192e9016b7c80d0db0a3ba190a00000000000000000000000000000000000000017d3b5add0251e21ee5c83bb0929ca507041cc53f0000000000000000000000000000000000000001a05d9c6defb99612dee27057df065312a988b8b90000000000000000000000000000000000000001d782c11d7f8be621bd726f9241acc0278ae2a4a20000000000000000000000000000000000000001dcc05b56f58af80dba0f6751c223f231dcab3e1a0000000000000000000000000000000000000001f5094a6c2f33d9b218d3dc386323695c51f0df790000000000000000000000000000000000000001fd0a288bad34306fd0295ca48d5f9ccb21da53040000000000000000000000000000000000000001bd8a416aed7a5bcf20d332aaa506e88b160124bbd1c59c4b22d2d38026a57a3971c2f49403e59b8dcccfb7df6e8e40cb0a471fe76e1c48f17013f7ef35820def00',
  mixHash: '0x0000000000000000000000000000000000000000000000000000000000000000',
  nonce: '0x0000000000000000'
}
let addBlock_1_2 = {
  parentHash: '0x8920ce98ade70d210637c5546aa0466734441a56663bfba3f602700ee7e78eb3',
  sha3Uncles: '0x1dcc4de8dec75d7aab85b567b6ccd41ad312451b948a7413f0a142fd40d49347',
  miner: '0x0000000000000000000000000000000000000000',
  stateRoot: '0x357f67e57a88b2f30935ff04e2e5c833b296081fcbcfe858f9aa26f1f0b242ea',
  transactionsRoot: '0x56e81f171bcc55a6ff8345e692c0f86e5b48e01b996cadc001622fb5e363b421',
  receiptsRoot: '0x56e81f171bcc55a6ff8345e692c0f86e5b48e01b996cadc001622fb5e363b421',
  logsBloom: '0x00000000000000000000000000000000000000000000000000000000000000000000000000000000000000000000000000000000000000000000000000000000000000000000000000000000000000000000000000000000000000000000000000000000000000000000000000000000000000000000000000000000000000000000000000000000000000000000000000000000000000000000000000000000000000000000000000000000000000000000000000000000000000000000000000000000000000000000000000000000000000000000000000000000000000000000000000000000000000000000000000000000000000000000000000000000',
  difficulty: "12",
  number: "26326592",
  gasLimit: "20000000",
  gasUsed: "0" ,
  timestamp: "1693470158" ,
  extraData: '0xd883010008846274746388676f312e31392e34856c696e7578000000000000008570eb5d14ef56cef26b36a5b01129b357300fd786bcfd6b64db9bc3543cfb3167623d579441fa08e4b88b6db4fcd0110e06d0eafacfcd6b4c6702f457f8616801',
  mixHash: '0x0000000000000000000000000000000000000000000000000000000000000000',
  nonce: '0x0000000000000000'
}
let addBlock_1_3 = {
  parentHash: '0x6ee4c2fd10230448f1dc153525b8474c9feb4ae0ad601aac58f2ade014bc9f46',
  sha3Uncles: '0x1dcc4de8dec75d7aab85b567b6ccd41ad312451b948a7413f0a142fd40d49347',
  miner: '0x0000000000000000000000000000000000000000',
  stateRoot: '0x357f67e57a88b2f30935ff04e2e5c833b296081fcbcfe858f9aa26f1f0b242ea',
  transactionsRoot: '0x56e81f171bcc55a6ff8345e692c0f86e5b48e01b996cadc001622fb5e363b421',
  receiptsRoot: '0x56e81f171bcc55a6ff8345e692c0f86e5b48e01b996cadc001622fb5e363b421',
  logsBloom: '0x00000000000000000000000000000000000000000000000000000000000000000000000000000000000000000000000000000000000000000000000000000000000000000000000000000000000000000000000000000000000000000000000000000000000000000000000000000000000000000000000000000000000000000000000000000000000000000000000000000000000000000000000000000000000000000000000000000000000000000000000000000000000000000000000000000000000000000000000000000000000000000000000000000000000000000000000000000000000000000000000000000000000000000000000000000000',
  difficulty: "12",
  number: "26326593",
  gasLimit: "20000000",
  gasUsed: "0",
  timestamp: "1693470160" ,
  extraData: '0xd883010008846274746388676f312e31392e34856c696e757800000000000000343a728cdb0620d7b20aed2c4b335ea5d678095703de7975e98cf23f5cd3f28f56545319a07e6d1e3d7eaf6eb085ef59ac230ee732c3892cb3d77194da272e7701',
  mixHash: '0x0000000000000000000000000000000000000000000000000000000000000000',
  nonce: '0x0000000000000000'
}
let addBlock_1_4 = {
  parentHash: '0xc7c5c8cb41dcfaa565208b89053060737091b11381e4788bf512c05fbc57095f',
  sha3Uncles: '0x1dcc4de8dec75d7aab85b567b6ccd41ad312451b948a7413f0a142fd40d49347',
  miner: '0x0000000000000000000000000000000000000000',
  stateRoot: '0xadf07f80d20fa94fe19dfee07f55d5361406dbbe5dc4bbe73c3aa03828621028',
  transactionsRoot: '0x6f19bc1c2eaf88c5c3fb79a7d152503cacdc5456754cdef44c52da9314b9d4bb',
  receiptsRoot: '0x84819f3b9dcd3e3c472d8ac5d19bb78e2090461cab526633c944b69cb9248244',
  logsBloom: '0x00000000000000000000000000000010000002000000000000000010000000000000000100000008000000000000000000008000000000000000000000000000000000000000000000000008020002800000001000000000000100000000000000000000000000000000100000000000000000000000000480000010000000000000000000000000000000000000000000000000000000000000000000000000200000000000000000000000000000004000000000000000000000010000004000000002000000000001000000000000000000000000000000100000000000000000000000000000000000000000000000000000000000000000000000100000',
  difficulty: "12",
  number: "26326594",
  gasLimit: "20000000",
  gasUsed: "34642",
  timestamp: "1693470162",
  extraData: '0xd883010008846274746388676f312e31392e34856c696e7578000000000000002f952df797612aca9d98cccea7fe7322872ec43d1590f0b8aaa7c37aa55e02e877bbf7e01d761a5c48066828cc1866ffda07cc3c50eb689196d7951bb31d5c5100',
  mixHash: '0x0000000000000000000000000000000000000000000000000000000000000000',
  nonce: '0x0000000000000000'
}
let addBlock_1_5 =  {
  parentHash: '0xd25285e3ac5302e5fd587c54697c313cb41bcfd7565a779b62fa74b9c95eba38',
  sha3Uncles: '0x1dcc4de8dec75d7aab85b567b6ccd41ad312451b948a7413f0a142fd40d49347',
  miner: '0x0000000000000000000000000000000000000000',
  stateRoot: '0xadf07f80d20fa94fe19dfee07f55d5361406dbbe5dc4bbe73c3aa03828621028',
  transactionsRoot: '0x56e81f171bcc55a6ff8345e692c0f86e5b48e01b996cadc001622fb5e363b421',
  receiptsRoot: '0x56e81f171bcc55a6ff8345e692c0f86e5b48e01b996cadc001622fb5e363b421',
  logsBloom: '0x00000000000000000000000000000000000000000000000000000000000000000000000000000000000000000000000000000000000000000000000000000000000000000000000000000000000000000000000000000000000000000000000000000000000000000000000000000000000000000000000000000000000000000000000000000000000000000000000000000000000000000000000000000000000000000000000000000000000000000000000000000000000000000000000000000000000000000000000000000000000000000000000000000000000000000000000000000000000000000000000000000000000000000000000000000000',
  difficulty: "12",
  number: "26326595",
  gasLimit: "20000000",
  gasUsed: "0",
  timestamp: "1693470164",
  extraData: '0xd883010008846274746388676f312e31392e34856c696e757800000000000000760c5e666246056f698452bc9ab38dfa3a363198d2876adf89ae0a570e160b5168e144f739402a546012823a682147fdabf7ec8651ec21ae1bd1bb8751543abc00',
  mixHash: '0x0000000000000000000000000000000000000000000000000000000000000000',
  nonce: '0x0000000000000000'
}

let addBlock_1s = [
  addBlock_1_1,
  addBlock_1_2,
  addBlock_1_3,
  addBlock_1_4,
  addBlock_1_5
]


let addBlock_2_1 ={
  parentHash: '0x542d1444fb5995c9e73df7a63c987379a098578425166d6d5179394663289175',
  sha3Uncles: '0x1dcc4de8dec75d7aab85b567b6ccd41ad312451b948a7413f0a142fd40d49347',
  miner: '0x0000000000000000000000000000000000000000',
  stateRoot: '0x9a974a838257f446f238fb91a29e12fdb62c371c48c7d8e642a021760ec46a78',
  transactionsRoot: '0x56e81f171bcc55a6ff8345e692c0f86e5b48e01b996cadc001622fb5e363b421',
  receiptsRoot: '0x56e81f171bcc55a6ff8345e692c0f86e5b48e01b996cadc001622fb5e363b421',
  logsBloom: '0x00000000000000000000000000000000000000000000000000000000000000000000000000000000000000000000000000000000000000000000000000000000000000000000000000000000000000000000000000000000000000000000000000000000000000000000000000000000000000000000000000000000000000000000000000000000000000000000000000000000000000000000000000000000000000000000000000000000000000000000000000000000000000000000000000000000000000000000000000000000000000000000000000000000000000000000000000000000000000000000000000000000000000000000000000000000',
  difficulty:"12",
  number: "26326655",
  gasLimit: "20000000",
  gasUsed: "0",
  timestamp: "1693470284",
  extraData: '0xd883010008846274746388676f312e31392e34856c696e7578000000000000001ac4b7579898c12c53034c9b1caa6c7a06b7bc2e0000000000000000000000000000000000000001201eb831f3ac536a0b4dd7e14c61b14c314bc537000000000000000000000000000000000000000130322fe9bf13cb108a699422c7e60b4ea584ed4d0000000000000000000000000000000000000001492a0b508baa44e0243849cf7f04ab7307cafdcb00000000000000000000000000000000000000014c95a52686a9b3ff9cf787b94b8549a988334c5700000000000000000000000000000000000000016e275592bd4af7192e9016b7c80d0db0a3ba190a00000000000000000000000000000000000000017d3b5add0251e21ee5c83bb0929ca507041cc53f0000000000000000000000000000000000000001a05d9c6defb99612dee27057df065312a988b8b90000000000000000000000000000000000000001d782c11d7f8be621bd726f9241acc0278ae2a4a20000000000000000000000000000000000000001dcc05b56f58af80dba0f6751c223f231dcab3e1a0000000000000000000000000000000000000001f5094a6c2f33d9b218d3dc386323695c51f0df790000000000000000000000000000000000000001fd0a288bad34306fd0295ca48d5f9ccb21da53040000000000000000000000000000000000000001edab463f18b60d55bd19cb358ce31211af7dfceee501fbeb6342e621336f05f55bbdcc0199222bffb0a436cbf92e6091f79f547ccc522bafb9c5d53142b337ea00',
  mixHash: '0x0000000000000000000000000000000000000000000000000000000000000000',
  nonce: '0x0000000000000000'
}


let addBlock_2_2 = {
  parentHash: '0xe8980eef0f4c2c361ed709ab0e5747aa2871a9c4d39ae828135673f20526a482',
  sha3Uncles: '0x1dcc4de8dec75d7aab85b567b6ccd41ad312451b948a7413f0a142fd40d49347',
  miner: '0x0000000000000000000000000000000000000000',
  stateRoot: '0x9a974a838257f446f238fb91a29e12fdb62c371c48c7d8e642a021760ec46a78',
  transactionsRoot: '0x56e81f171bcc55a6ff8345e692c0f86e5b48e01b996cadc001622fb5e363b421',
  receiptsRoot: '0x56e81f171bcc55a6ff8345e692c0f86e5b48e01b996cadc001622fb5e363b421',
  logsBloom: '0x00000000000000000000000000000000000000000000000000000000000000000000000000000000000000000000000000000000000000000000000000000000000000000000000000000000000000000000000000000000000000000000000000000000000000000000000000000000000000000000000000000000000000000000000000000000000000000000000000000000000000000000000000000000000000000000000000000000000000000000000000000000000000000000000000000000000000000000000000000000000000000000000000000000000000000000000000000000000000000000000000000000000000000000000000000000',
  difficulty: "12",
  number: "26326656",
  gasLimit: "20000000",
  gasUsed: "0",
  timestamp: "1693470290",
  extraData: '0xd883010008846274746388676f312e31392e34856c696e7578000000000000002ca635706b2034b34ab83b2cdf60a802a3f9ee4c0366598ebb2f53a804bdf1df18160f12ae0efbe85d7de2ea4e253b1acc55fa1e92dde1adc74090e8eb81cf9600',
  mixHash: '0x0000000000000000000000000000000000000000000000000000000000000000',
  nonce: '0x0000000000000000'
}

let addBlock_2_3 = {
  parentHash: '0x6f32225df8d89864ba7b7a437814616fe86eca37ce03b4594eb3670c70929526',
  sha3Uncles: '0x1dcc4de8dec75d7aab85b567b6ccd41ad312451b948a7413f0a142fd40d49347',
  miner: '0x0000000000000000000000000000000000000000',
  stateRoot: '0x9a974a838257f446f238fb91a29e12fdb62c371c48c7d8e642a021760ec46a78',
  transactionsRoot: '0x56e81f171bcc55a6ff8345e692c0f86e5b48e01b996cadc001622fb5e363b421',
  receiptsRoot: '0x56e81f171bcc55a6ff8345e692c0f86e5b48e01b996cadc001622fb5e363b421',
  logsBloom: '0x00000000000000000000000000000000000000000000000000000000000000000000000000000000000000000000000000000000000000000000000000000000000000000000000000000000000000000000000000000000000000000000000000000000000000000000000000000000000000000000000000000000000000000000000000000000000000000000000000000000000000000000000000000000000000000000000000000000000000000000000000000000000000000000000000000000000000000000000000000000000000000000000000000000000000000000000000000000000000000000000000000000000000000000000000000000',
  difficulty: "12",
  number: "26326657",
  gasLimit: "20000000",
  gasUsed: "0",
  timestamp: "1693470292",
  extraData: '0xd883010008846274746388676f312e31392e34856c696e757800000000000000679bf84b8a9ccae7cd4d99ddf6e760f2565c96cc6fb7e93d556bd7cf6b3b47d1630b3327b06ac39dd71cd5548f1a0923f1cb708a42707225b4fe308151e95fc300',
  mixHash: '0x0000000000000000000000000000000000000000000000000000000000000000',
  nonce: '0x0000000000000000'
}

let addBlock_2_4 ={
  parentHash: '0x63fc18e3dded501ab6f7f56124c471bf1e4b9f6a90fe0e76175803c5a8042f6a',
  sha3Uncles: '0x1dcc4de8dec75d7aab85b567b6ccd41ad312451b948a7413f0a142fd40d49347',
  miner: '0x0000000000000000000000000000000000000000',
  stateRoot: '0x9a974a838257f446f238fb91a29e12fdb62c371c48c7d8e642a021760ec46a78',
  transactionsRoot: '0x56e81f171bcc55a6ff8345e692c0f86e5b48e01b996cadc001622fb5e363b421',
  receiptsRoot: '0x56e81f171bcc55a6ff8345e692c0f86e5b48e01b996cadc001622fb5e363b421',
  logsBloom: '0x00000000000000000000000000000000000000000000000000000000000000000000000000000000000000000000000000000000000000000000000000000000000000000000000000000000000000000000000000000000000000000000000000000000000000000000000000000000000000000000000000000000000000000000000000000000000000000000000000000000000000000000000000000000000000000000000000000000000000000000000000000000000000000000000000000000000000000000000000000000000000000000000000000000000000000000000000000000000000000000000000000000000000000000000000000000',
  difficulty: "12",
  number: "26326658",
  gasLimit: "20000000",
  gasUsed: "0",
  timestamp: "1693470294",
  extraData: '0xd883010008846274746388676f312e31392e34856c696e7578000000000000000bdbacd7e1c2436a0ba78f5451ec8dc7875f8a1119162281170b9fc9aa33539d1ab70bf0edd83cedc1496aee888ee250703f3c1c125f3b3b824955c1917353d201',
  mixHash: '0x0000000000000000000000000000000000000000000000000000000000000000',
  nonce: '0x0000000000000000'
}

let addBlock_2_5 = {
  parentHash: '0x20577ab02c7dbf403a18ffd2918f855463ece58b5da8bfff00d4274665345f53',
  sha3Uncles: '0x1dcc4de8dec75d7aab85b567b6ccd41ad312451b948a7413f0a142fd40d49347',
  miner: '0x0000000000000000000000000000000000000000',
  stateRoot: '0x9a974a838257f446f238fb91a29e12fdb62c371c48c7d8e642a021760ec46a78',
  transactionsRoot: '0x56e81f171bcc55a6ff8345e692c0f86e5b48e01b996cadc001622fb5e363b421',
  receiptsRoot: '0x56e81f171bcc55a6ff8345e692c0f86e5b48e01b996cadc001622fb5e363b421',
  logsBloom: '0x00000000000000000000000000000000000000000000000000000000000000000000000000000000000000000000000000000000000000000000000000000000000000000000000000000000000000000000000000000000000000000000000000000000000000000000000000000000000000000000000000000000000000000000000000000000000000000000000000000000000000000000000000000000000000000000000000000000000000000000000000000000000000000000000000000000000000000000000000000000000000000000000000000000000000000000000000000000000000000000000000000000000000000000000000000000',
  difficulty: "12",
  number: "26326659",
  gasLimit: "20000000",
  gasUsed: "0",
  timestamp: "1693470296",
  extraData: '0xd883010008846274746388676f312e31392e34856c696e757800000000000000458613475c2627bfb13050310e152b8453162c0d42e9be62fa7143a47b72f4037f8910936314646255fb63428105e5ff90ebec413223ce7f25407753cdc3deb701',
  mixHash: '0x0000000000000000000000000000000000000000000000000000000000000000',
  nonce: '0x0000000000000000'
}

let addBlock_2s = [
  addBlock_2_1,
  addBlock_2_2,
  addBlock_2_3,
  addBlock_2_4,
  addBlock_2_5,
]




let proofHeader_1 = {
  parentHash: '0xc7c5c8cb41dcfaa565208b89053060737091b11381e4788bf512c05fbc57095f',
  sha3Uncles: '0x1dcc4de8dec75d7aab85b567b6ccd41ad312451b948a7413f0a142fd40d49347',
  miner: '0x0000000000000000000000000000000000000000',
  stateRoot: '0xadf07f80d20fa94fe19dfee07f55d5361406dbbe5dc4bbe73c3aa03828621028',
  transactionsRoot: '0x6f19bc1c2eaf88c5c3fb79a7d152503cacdc5456754cdef44c52da9314b9d4bb',
  receiptsRoot: '0x84819f3b9dcd3e3c472d8ac5d19bb78e2090461cab526633c944b69cb9248244',
  logsBloom: '0x00000000000000000000000000000010000002000000000000000010000000000000000100000008000000000000000000008000000000000000000000000000000000000000000000000008020002800000001000000000000100000000000000000000000000000000100000000000000000000000000480000010000000000000000000000000000000000000000000000000000000000000000000000000200000000000000000000000000000004000000000000000000000010000004000000002000000000001000000000000000000000000000000100000000000000000000000000000000000000000000000000000000000000000000000100000',
  difficulty: "12",
  number: "26326594",
  gasLimit: "20000000",
  gasUsed: "34642",
  timestamp: "1693470162",
  extraData: '0xd883010008846274746388676f312e31392e34856c696e7578000000000000002f952df797612aca9d98cccea7fe7322872ec43d1590f0b8aaa7c37aa55e02e877bbf7e01d761a5c48066828cc1866ffda07cc3c50eb689196d7951bb31d5c5100', 
  mixHash: '0x0000000000000000000000000000000000000000000000000000000000000000',
  nonce: '0x0000000000000000'
}

let proofHeader_2 = {
  parentHash: '0xd25285e3ac5302e5fd587c54697c313cb41bcfd7565a779b62fa74b9c95eba38',
  sha3Uncles: '0x1dcc4de8dec75d7aab85b567b6ccd41ad312451b948a7413f0a142fd40d49347',
  miner: '0x0000000000000000000000000000000000000000',
  stateRoot: '0xadf07f80d20fa94fe19dfee07f55d5361406dbbe5dc4bbe73c3aa03828621028',
  transactionsRoot: '0x56e81f171bcc55a6ff8345e692c0f86e5b48e01b996cadc001622fb5e363b421',
  receiptsRoot: '0x56e81f171bcc55a6ff8345e692c0f86e5b48e01b996cadc001622fb5e363b421',
  logsBloom: '0x00000000000000000000000000000000000000000000000000000000000000000000000000000000000000000000000000000000000000000000000000000000000000000000000000000000000000000000000000000000000000000000000000000000000000000000000000000000000000000000000000000000000000000000000000000000000000000000000000000000000000000000000000000000000000000000000000000000000000000000000000000000000000000000000000000000000000000000000000000000000000000000000000000000000000000000000000000000000000000000000000000000000000000000000000000000',
  difficulty: "12",
  number: "26326595",
  gasLimit: "20000000",
  gasUsed: "0",
  timestamp: "1693470164",
  extraData: '0xd883010008846274746388676f312e31392e34856c696e757800000000000000760c5e666246056f698452bc9ab38dfa3a363198d2876adf89ae0a570e160b5168e144f739402a546012823a682147fdabf7ec8651ec21ae1bd1bb8751543abc00', 
  mixHash: '0x0000000000000000000000000000000000000000000000000000000000000000',
  nonce: '0x0000000000000000'
}
let proofHeader_3 = {
  parentHash: '0xc88a32044ad2f23d5e3157c30988666f0d79dbacabb156761c51aa9054a6edbc',
  sha3Uncles: '0x1dcc4de8dec75d7aab85b567b6ccd41ad312451b948a7413f0a142fd40d49347',
  miner: '0x0000000000000000000000000000000000000000',
  stateRoot: '0xadf07f80d20fa94fe19dfee07f55d5361406dbbe5dc4bbe73c3aa03828621028',
  transactionsRoot: '0x56e81f171bcc55a6ff8345e692c0f86e5b48e01b996cadc001622fb5e363b421',
  receiptsRoot: '0x56e81f171bcc55a6ff8345e692c0f86e5b48e01b996cadc001622fb5e363b421',
  logsBloom: '0x00000000000000000000000000000000000000000000000000000000000000000000000000000000000000000000000000000000000000000000000000000000000000000000000000000000000000000000000000000000000000000000000000000000000000000000000000000000000000000000000000000000000000000000000000000000000000000000000000000000000000000000000000000000000000000000000000000000000000000000000000000000000000000000000000000000000000000000000000000000000000000000000000000000000000000000000000000000000000000000000000000000000000000000000000000000',
  difficulty: "12",
  number: "26326596",
  gasLimit: "20000000",
  gasUsed: "0",
  timestamp: "1693470166",
  extraData: '0xd883010008846274746388676f312e31392e34856c696e757800000000000000b8f354c2e8ad21b147dd38dd1f479df7ce671721212293f6a29dec7e5d0dbdb73dcd1f33246cde36667857c4b2bf94a83209db1e7e108ad01ffa8c707ce42ca800', 
  mixHash: '0x0000000000000000000000000000000000000000000000000000000000000000',
  nonce: '0x0000000000000000'
}
let proofHeader_4 = {
  parentHash: '0xcb426907eaf2f94803dfd7c6641c896f4ecda997211690c3dfdad39e7cfc757a',
  sha3Uncles: '0x1dcc4de8dec75d7aab85b567b6ccd41ad312451b948a7413f0a142fd40d49347',
  miner: '0x0000000000000000000000000000000000000000',
  stateRoot: '0xadf07f80d20fa94fe19dfee07f55d5361406dbbe5dc4bbe73c3aa03828621028',
  transactionsRoot: '0x56e81f171bcc55a6ff8345e692c0f86e5b48e01b996cadc001622fb5e363b421',
  receiptsRoot: '0x56e81f171bcc55a6ff8345e692c0f86e5b48e01b996cadc001622fb5e363b421',
  logsBloom: '0x00000000000000000000000000000000000000000000000000000000000000000000000000000000000000000000000000000000000000000000000000000000000000000000000000000000000000000000000000000000000000000000000000000000000000000000000000000000000000000000000000000000000000000000000000000000000000000000000000000000000000000000000000000000000000000000000000000000000000000000000000000000000000000000000000000000000000000000000000000000000000000000000000000000000000000000000000000000000000000000000000000000000000000000000000000000',
  difficulty: "12",
  number: "26326597",
  gasLimit: "20000000",
  gasUsed: "0",
  timestamp: "1693470168",
  extraData: '0xd883010008846274746388676f312e31392e34856c696e757800000000000000e0ce80524e87426dc828cf017007819938a6af39da06f8b39a8d24e29179282b77a9ddd48a45cb808b6790227a3131af6ead6e07b08d0c51bc56faff57873d4201', 
  mixHash: '0x0000000000000000000000000000000000000000000000000000000000000000',
  nonce: '0x0000000000000000'
}
let proofHeader_5 = {
  parentHash: '0x194db45f07824aa2292b8f87583b318d59e335cebee62cb1d78f1a0f4d021634',
  sha3Uncles: '0x1dcc4de8dec75d7aab85b567b6ccd41ad312451b948a7413f0a142fd40d49347',
  miner: '0x0000000000000000000000000000000000000000',
  stateRoot: '0xadf07f80d20fa94fe19dfee07f55d5361406dbbe5dc4bbe73c3aa03828621028',
  transactionsRoot: '0x56e81f171bcc55a6ff8345e692c0f86e5b48e01b996cadc001622fb5e363b421',
  receiptsRoot: '0x56e81f171bcc55a6ff8345e692c0f86e5b48e01b996cadc001622fb5e363b421',
  logsBloom: '0x00000000000000000000000000000000000000000000000000000000000000000000000000000000000000000000000000000000000000000000000000000000000000000000000000000000000000000000000000000000000000000000000000000000000000000000000000000000000000000000000000000000000000000000000000000000000000000000000000000000000000000000000000000000000000000000000000000000000000000000000000000000000000000000000000000000000000000000000000000000000000000000000000000000000000000000000000000000000000000000000000000000000000000000000000000000',
  difficulty: "12",
  number: "26326598",
  gasLimit: "20000000",
  gasUsed: "0",
  timestamp: "1693470170",
  extraData: '0xd883010008846274746388676f312e31392e34856c696e757800000000000000066d2a7585eaf4d3e8d9cc181c231fec32f2814e5fc87bb958e9f78b8f6dbea4313a3cb334cf9003bad4b2673fe09a7f38eb4ca21019ef55878e72dd13d0784d00', 
  mixHash: '0x0000000000000000000000000000000000000000000000000000000000000000',
  nonce: '0x0000000000000000'
}

let proofHeaders = [
  proofHeader_1,
  proofHeader_2,
  proofHeader_3,
  proofHeader_4,
  proofHeader_5,
]

//txHash 0xbf684bda3767bd3b756e03f441c1b36b68c09ef5795702af642eddf884053e29
let txReceipt = {
  receiptType: '0',
  postStateOrStatus: '0x01',
  cumulativeGasUsed: BigNumber.from(34642),
  bloom: '0x00000000000000000000000000000010000002000000000000000010000000000000000100000008000000000000000000008000000000000000000000000000000000000000000000000008020002800000001000000000000100000000000000000000000000000000100000000000000000000000000480000010000000000000000000000000000000000000000000000000000000000000000000000000200000000000000000000000000000004000000000000000000000010000004000000002000000000001000000000000000000000000000000100000000000000000000000000000000000000000000000000000000000000000000000100000',
  logs: [
    {
      addr: '0xdB28719F7f938507dBfe4f0eAe55668903D34a15',
      topics: [
        '0xddf252ad1be2c89b69c2b068fc378daa952ba7f163c4a11628f55a4df523b3ef',
        '0x000000000000000000000000b3b3cfc0facf9321532efcbb0e82afcce8bd43a4',
        '0x00000000000000000000000031e302277a7552b9b0c4199bf9e08466ebd877f3'
      ],
      data: '0x00000000000000000000000000000000000000000000000000000000009e8cfc'
    },
    {
      addr: '0x0000000000000000000000000000000000001010',
      topics: [
        '0x4dfe1bbbcf077ddc3e01291eea2d5c70c2b422b415d95645b9adcfd678cb1d63',
        '0x0000000000000000000000000000000000000000000000000000000000001010',
        '0x000000000000000000000000b3b3cfc0facf9321532efcbb0e82afcce8bd43a4',
        '0x000000000000000000000000f5094a6c2f33d9b218d3dc386323695c51f0df79'
      ],
      data: '0x000000000000000000000000000000000000000000000000bb7e8307688ac000000000000000000000000000000000000000000a8c1aa8dcc6f78a741632f8fb00000000000000000000000000000000000000000342596fddc4d63f64d54479000000000000000000000000000000000000000a8c1aa8dc0b79076cada838fb00000000000000000000000000000000000000000342597099435946cd600479'
    }
  ]
}

let proof = {
  proof: [
    '0xf902f0822080b902eaf902e701828752b9010000000000000000000000000000000010000002000000000000000010000000000000000100000008000000000000000000008000000000000000000000000000000000000000000000000008020002800000001000000000000100000000000000000000000000000000100000000000000000000000000480000010000000000000000000000000000000000000000000000000000000000000000000000000200000000000000000000000000000004000000000000000000000010000004000000002000000000001000000000000000000000000000000100000000000000000000000000000000000000000000000000000000000000000000000100000f901ddf89b94db28719f7f938507dbfe4f0eae55668903d34a15f863a0ddf252ad1be2c89b69c2b068fc378daa952ba7f163c4a11628f55a4df523b3efa0000000000000000000000000b3b3cfc0facf9321532efcbb0e82afcce8bd43a4a000000000000000000000000031e302277a7552b9b0c4199bf9e08466ebd877f3a000000000000000000000000000000000000000000000000000000000009e8cfcf9013d940000000000000000000000000000000000001010f884a04dfe1bbbcf077ddc3e01291eea2d5c70c2b422b415d95645b9adcfd678cb1d63a00000000000000000000000000000000000000000000000000000000000001010a0000000000000000000000000b3b3cfc0facf9321532efcbb0e82afcce8bd43a4a0000000000000000000000000f5094a6c2f33d9b218d3dc386323695c51f0df79b8a0000000000000000000000000000000000000000000000000bb7e8307688ac000000000000000000000000000000000000000000a8c1aa8dcc6f78a741632f8fb00000000000000000000000000000000000000000342596fddc4d63f64d54479000000000000000000000000000000000000000a8c1aa8dc0b79076cada838fb00000000000000000000000000000000000000000342597099435946cd600479'
  ],
  key: '0x0800'
}





module.exports = {
  initBlock,
  txReceipt,
  proof,
  proofHeaders,
  addBlock_1s,
  addBlock_2s
};


