{
  "agg_pk": {
    "xi": "0x23e5220425e9a16bbe0dfb9f64807643d31661d851bd627b36f8ff96943656a6",
    "xr": "0x2fadaddfbe2f3b04d0c9512838a03b56c7e6a1a04df03ae2d4b180ad7c64850d",
    "yi": "0x0f2d4a02cecacea3e9c3b47c8e9a97c3bacfe92b2ea538f55381c81677d5b4db",
    "yr": "0x037941b6d0f006b045d3f0fd60f18cab1050fe3e16002a890df2be1cd3decc1d"
  },
  "header": {
    "parentHash": "0xca54aba0e5dc64edf8729e380a7c0e290193887b316f9006ccb3b9d6cf891bff",
    "coinbase": "0xa9c044c42591c57362315130a0e9a80f7c3a0c2c",
    "root": "0xc4b5e6e301fd01eb06f91da8faf22709017743db7973e183a4092e87e0a716bc",
    "txHash": "0xc781460934c53d9c944f5dcabd80f04c4dbf887e2415a26a8ac0f542d5879e77",
    "receiptHash": "0xa55ea855ac42558b8778f2cdc213ac247bb54d306ec792818b2c495019823706",
    "bloom": "0x00000000000024000000000000000000000000000000000000000002001000000000000000000000000020000000000000000004000040000000000000000000000000000200000000000008000000200000000000000000000000000000000000000000020000000000000008000800000000002000000000000010000000000000002000000000000000200000002000000000000100000000000000000000000000000100000000000000000004000000000000000000000000000001040000000012000000000000000000000000800000000800000000000000000020800000400000000000000000000000000000000000000000100200000000000000",
    "number": "0x44e7b7",
    "gasLimit": "0xc65d40",
    "gasUsed": "0x3e4ad0",
    "time": "0x6417d616",
    "extra": "0xd883010100846765746888676f312e31382e33856c696e757800000000000000f8ddc0c0c080b8419748bc8c237aaabd07a096523be455de14c8fcc1a11832c5325ffe191a32fc57557961aea478f497499c009f101f7c542dd4c03f2cb9560f9645a6ff38cde93501f849850253d9feefb84005f2290956cded8ac43151354b207a7b68ce6ee890b7d5fe5bbd878d07d6a3d00be3a6cbc1c43812576dba2629f49985d9d9a3a63f6e0f32a5a8ea73d218870880f84985031fe1ebffb84016bfb2cef71b3dcbe5b90adecda75c957da5800c3c9a4d775430777baa23bead2cdbe7a7fc1ab38efb0465a94251852f833a24b3b3ad893cd5cc43f38241f08301",
    "mixDigest": "0x0000000000000000000000000000000000000000000000000000000000000000",
    "nonce": "0x0000000000000000",
    "baseFee": "0x174876e800",
    "hash": "0x1e48d9cd8bfe13575c1644e4cd07c065bea2e6eab164b1c5356f8140487363e4"
  },
  "key_index": "0x80",
  "proof": [
    "0xf851a0739459223f3b630869b81889a1000c809ad3cb1f51a408a7e8e26aea01a8f0da80808080808080a06b59419a2bcdb8dd05688685637e2391b05a1ca1dda1fd682a70ec392bfeb4598080808080808080",
    "0xf9072b30b9072702f9072301833df8c8b9010000000000000024000000000000000000000000000000000000000002001000000000000000000000000020000000000000000004000040000000000000000000000000000200000000000008000000200000000000000000000000000000000000000000020000000000000008000800000000002000000000000010000000000000002000000000000000200000002000000000000100000000000000000000000000000100000000000000000004000000000000000000000000000001040000000012000000000000000000000000800000000800000000000000000020800000400000000000000000000000000000000000000000100200000000000000f90618f89b949f722b2cb30093f766221fd0d37964949ed66918f863a0ddf252ad1be2c89b69c2b068fc378daa952ba7f163c4a11628f55a4df523b3efa00000000000000000000000000000000000000000000000000000000000000000a0000000000000000000000000630105189c7114667a7179aa57f07647a5f42b7fa00000000000000000000000000000000000000000000000001bb9f5d53ca63267f89b949f722b2cb30093f766221fd0d37964949ed66918f863a0ddf252ad1be2c89b69c2b068fc378daa952ba7f163c4a11628f55a4df523b3efa0000000000000000000000000630105189c7114667a7179aa57f07647a5f42b7fa00000000000000000000000000000000000000000000000000000000000000000a00000000000000000000000000000000000000000000000001bb9f5d53ca63267f9043d94630105189c7114667a7179aa57f07647a5f42b7ff863a0ca1cf8cebf88499429cca8f87cbca15ab8dafd06702259a5344ddce89ef3f3a5a00000000000000000000000000000000000000000000000000000000000000038a00000000000000000000000000000000000000000000000000004d50100000001b903c0bc581aaf2c593da0548b997bec3c60907f9803060194cafa622b4c8e7da0053800000000000000000000000000000000000000000000000000000000000000c00000000000000000000000000000000000000000000000000000000000000120000000000000000000000000000000000000000000000000000000000000016000000000000000000000000000000000000000000000000000000000001e7c4a00000000000000000000000000000000000000000000000000000000000001c0000000000000000000000000000000000000000000000000000000000000003c613062383639393163363231386233366331643139643461326539656230636533363036656234382e666163746f72792e6272696467652e6e6561720000000000000000000000000000000000000000000000000000000000000000000000149ba7b42139dddb676e936632f1dfe8de8f9c0a5b00000000000000000000000000000000000000000000000000000000000000000000000000000000000000403938336332393762653636373839373933343865663334343862666339613865316536613239393638623336626461633637363663663039636435393134376400000000000000000000000000000000000000000000000000000000000001e0000000000000000000000000000000000000000000000000000000000000006000000000000000000000000000000000000000000000000000000000000001a00000000000000000000000009f722b2cb30093f766221fd0d37964949ed6691800000000000000000000000000000000000000000000000000000000000000010000000000000000000000000000000000000000000000000000000000000020000000000000000000000000000000000000000000000000000000000000000000000000000000000000000000000000000000000000c332be4218b290ea9280000000000000000000000000000000000000000000000000000000000000008000000000000000000000000000000000000000000000000000000000000000030000000000000000000000000000000000000000000000000000000000000046613062383639393163363231386233366331643139643461326539656230636533363036656234382e666163746f72792e6272696467652e6e65617258777261702e6e65617200000000000000000000000000000000000000000000000000000000000000000000000000000000000000000000000000000000000000000009777261702e6e6561720000000000000000000000000000000000000000000000f89c94630105189c7114667a7179aa57f07647a5f42b7ff884a08131e5b107f7021b0773c1108755872d7b94bb31532fdf2256e0a3ef2c890a3da00000000000000000000000000000000000000000000000000000000000000038a000000000000000000000000000000000000000000000000000000000000058f8a0000000000000000000000000db61db256a30f3ef46110b8e2520aaec0db0815380"
  ],
  "receipt": {
    "receipt_type": "2",
    "post_state_or_status": "0x01",
    "cumulative_gas_used": "4061384",
    "bloom": "0x00000000000024000000000000000000000000000000000000000002001000000000000000000000000020000000000000000004000040000000000000000000000000000200000000000008000000200000000000000000000000000000000000000000020000000000000008000800000000002000000000000010000000000000002000000000000000200000002000000000000100000000000000000000000000000100000000000000000004000000000000000000000000000001040000000012000000000000000000000000800000000800000000000000000020800000400000000000000000000000000000000000000000100200000000000000",
    "logs": [
      {
        "address": "0x9f722b2cb30093f766221fd0d37964949ed66918",
        "topics": [
          "0xddf252ad1be2c89b69c2b068fc378daa952ba7f163c4a11628f55a4df523b3ef",
          "0x0000000000000000000000000000000000000000000000000000000000000000",
          "0x000000000000000000000000630105189c7114667a7179aa57f07647a5f42b7f"
        ],
        "data": "0x0000000000000000000000000000000000000000000000001bb9f5d53ca63267"
      },
      {
        "address": "0x9f722b2cb30093f766221fd0d37964949ed66918",
        "topics": [
          "0xddf252ad1be2c89b69c2b068fc378daa952ba7f163c4a11628f55a4df523b3ef",
          "0x000000000000000000000000630105189c7114667a7179aa57f07647a5f42b7f",
          "0x0000000000000000000000000000000000000000000000000000000000000000"
        ],
        "data": "0x0000000000000000000000000000000000000000000000001bb9f5d53ca63267"
      },
      {
        "address": "0x630105189c7114667a7179aa57f07647a5f42b7f",
        "topics": [
          "0xca1cf8cebf88499429cca8f87cbca15ab8dafd06702259a5344ddce89ef3f3a5",
          "0x00000000000000000000000000000000000000000000000000000000000000d4",
          "0x0000000000000000000000000000000000000000000000000004d50100000002"
        ],
        "data": "0x050505050505050505050505050505050505050505050505050505050505050500000000000000000000000000000000000000000000000000000000000000c000000000000000000000000000000000000000000000000000000000000001000000000000000000000000000000000000000000000000000000000000000140000000000000000000000000000000000000000000000000000000000098968000000000000000000000000000000000000000000000000000000000000001800000000000000000000000000000000000000000000000000000000000000014010101010101010101010101010101010101010100000000000000000000000000000000000000000000000000000000000000000000000000000000000000140202020202020202020202020202020202020202000000000000000000000000000000000000000000000000000000000000000000000000000000000000000f70616e646172722e746573746e6574000000000000000000000000000000000000000000000000000000000000000000000000000000000000000000000000c000000000000000000000000000000000000000000000000000000000000000600000000000000000000000000000000000000000000000000000000000000080000000000000000000000000040404040404040404040404040404040404040400000000000000000000000000000000000000000000000000000000000000000000000000000000000000000000000000000000000000000000000000000013757364632e6d61703030372e746573746e657400000000000000000000000000"
      },
      {
        "address": "0x630105189c7114667a7179aa57f07647a5f42b7f",
        "topics": [
          "0x8131e5b107f7021b0773c1108755872d7b94bb31532fdf2256e0a3ef2c890a3d",
          "0x0000000000000000000000000000000000000000000000000000000000000038",
          "0x00000000000000000000000000000000000000000000000000000000000058f8",
          "0x000000000000000000000000db61db256a30f3ef46110b8e2520aaec0db08153"
        ],
        "data": "0x"
      }
    ]
  }
}
