let {BigNumber} = require("ethers");

let headers =
    [{
        "parentHash": "0x8fa1ef9759a24292504d36d26091ca9c82bc88e5750895b89377e51331527c8e",
        "sha3Uncles": "0x1dcc4de8dec75d7aab85b567b6ccd41ad312451b948a7413f0a142fd40d49347",
        "miner": "0xaa067d4b2f3de3503a5edab36a9bb0895356de94",
        "stateRoot": "0x231459ad8d67a3b7908cdf142d8e3611dbb6254a2f0cbf0fe9843be1068c9314",
        "transactionsRoot": "0xb0c683a4f0239e18c9647e68f65b44b74922089dd117c1835c05b0244451abab",
        "receiptsRoot": "0x76ea65cbe8790a2dc12434fc6c8d21f98a8d77db5bfd94f86e088014374cf44f",
        "logsBloom": "0x000008c2008000280000000004a00d91000001042000480000001032080001000020000000000004000000000100000400020000000028d000004c040120000000004000807000084b0040084000120c0000000080022000804080824000040000000100021000014000112404010900000008000200000080230010000800020108202004000008000008010200002000000800000001000800010010020104060401000000000800001102800000000000021220040000810001080020200001310032010000000002000125014004404800000002000000032000080221000010182121000004c00000020000000084510010118020400000000000000000",
        "difficulty": BigNumber.from(0x0),
        "number": BigNumber.from(0x842a1e),
        "gasLimit": BigNumber.from(0x1c9c380),
        "gasUsed": BigNumber.from(0x28abf9),
        "timestamp": BigNumber.from(0x641247b4),
        "extraData": "0x",
        "mixHash": "0xfe1c3ebf3cc5d8af009a5767befb71ed5340bb7bfa3dee0f48b6ec6d9bf2c7e3",
        "nonce": "0x0000000000000000",
        "baseFeePerGas": BigNumber.from(0x2434e7ce),
        "hash": "0xc0322dd90538f01aacb8aebb84637fa4fcb8bfbba6ff6a8d0fac3193cfe408a8",
        "withdrawalsRoot": "0xd602c18ccb61d70a11a287d4ded700b8a27af305e7371bd4d34324f82a5e056f"
    }, {
        "parentHash": "0xc0322dd90538f01aacb8aebb84637fa4fcb8bfbba6ff6a8d0fac3193cfe408a8",
        "sha3Uncles": "0x1dcc4de8dec75d7aab85b567b6ccd41ad312451b948a7413f0a142fd40d49347",
        "miner": "0x000095e79eac4d76aab57cb2c1f091d553b36ca0",
        "stateRoot": "0x5820dbd8238667e212e9b8fb5f084274aae58c259bbb5fc00c7a7163d135fc5f",
        "transactionsRoot": "0xb069d4b6868ef74a31708bd278b6905530014e1ef6b2756c8aee5eaa5cbe4549",
        "receiptsRoot": "0x6576a234e082bdf4d0f11533e325f5a8e12b00b3ea53408d6e7b8b24523fb5ab",
        "logsBloom": "0x1434004801081a9c145024908460400004884800ad08c05a018d09108803403818a656028385131a05300541004c828482831100840723e21a105e8e902421400140c2288c3084884a080a0d022884eb600d94c511cbb0000b525595c0c02000020c1224029012812460c3c0b1900a0d8c900010a1e25691211b1a10840c0150100218b41560401a4048101901100022c0010e812c30220a800104d050f305541a00382150844318aa00b110203280200800401121042281815080642028299a80a0d8268008ac0c140048280c1ae61e04401a12000a0110009181a11c60b5279854bf0c00208203002001488032084c0060183020918954b84a0a58032c4841",
        "difficulty": BigNumber.from(0x0),
        "number": BigNumber.from(0x842a1f),
        "gasLimit": BigNumber.from(0x1c9c380),
        "gasUsed": BigNumber.from(0x1333edc),
        "timestamp": BigNumber.from(0x641247c0),
        "extraData": "0xd883010b03846765746888676f312e32302e32856c696e7578",
        "mixHash": "0xde078311130a0581f7aa5eb737685c3037d76f6ff103cccb0ac9e7ae1cf89dbe",
        "nonce": "0x0000000000000000",
        "baseFeePerGas": BigNumber.from(0x207c2cd8),
        "hash": "0xb84ea4c8c10347d9bce9c953af0e5267ca78c6c7a53fdf5f621a197fb099693c",
        "withdrawalsRoot": "0x31b00092758ab7476bee3fe0a8284c8c84ed5f48ad5dd7a92fdf6dd3e0c50f8e"
    }, {
        "parentHash": "0xb84ea4c8c10347d9bce9c953af0e5267ca78c6c7a53fdf5f621a197fb099693c",
        "sha3Uncles": "0x1dcc4de8dec75d7aab85b567b6ccd41ad312451b948a7413f0a142fd40d49347",
        "miner": "0x4d496ccc28058b1d74b7a19541663e21154f9c84",
        "stateRoot": "0x7da7fd7e8534c0c80e3c4d92aa9bbb2781a9f1f42e3bd382c16754dc2a84f9b4",
        "transactionsRoot": "0xaab84955e709c996c83f69fd64988dccf4c2a213d27323154db64bd60062a2cb",
        "receiptsRoot": "0xadac26193f94ab5388ed75fba9df09be7090e85c555d52aa01a46a8d2a03e581",
        "logsBloom": "0x00400052000022080000001100804002000010400004000011082000002001000480024022000104000090000040008801000000120461e01840400c01246022060840818c800089480808084800800a200400001004901080960882000000000000102042000001006119008620080008040080a2000010800110180008000c5002008410000000400800000208002008640200041002000000001910008484020200200000009802406400a024000000102001008402848090420c20205000e033087200002084004000090009401440401801210000040081010000046600007500000020a004010300086000080084400412001100001040200000020000",
        "difficulty": BigNumber.from(0x0),
        "number": BigNumber.from(0x842a20),
        "gasLimit": BigNumber.from(0x1c9c380),
        "gasUsed": BigNumber.from(0x5ca8c5),
        "timestamp": BigNumber.from(0x641247cc),
        "extraData": "0x4e65746865726d696e64",
        "mixHash": "0xc1ba9458c76accfa2eecaed97dda81775cd05bec327e92017f65182aee2a4142",
        "nonce": "0x0000000000000000",
        "baseFeePerGas": BigNumber.from(0x21e01532),
        "hash": "0x02cd6e64280e990a45965e7c2e453319f97b74d0990d9a446bf5303452f00bf9",
        "withdrawalsRoot": "0x28d1f8723327a95fd9db95c19d54dd6ec34c9cc8cefafbc9896b6ed0b4ac426a"
    }, {
        "parentHash": "0x02cd6e64280e990a45965e7c2e453319f97b74d0990d9a446bf5303452f00bf9",
        "sha3Uncles": "0x1dcc4de8dec75d7aab85b567b6ccd41ad312451b948a7413f0a142fd40d49347",
        "miner": "0x000095e79eac4d76aab57cb2c1f091d553b36ca0",
        "stateRoot": "0xbd23c5a5f6785fcb271387bc7b821c863482425b729e3cb10f6db02d79bf7ad7",
        "transactionsRoot": "0x4fd5c814fa50b06eb05bba0270d2cf44b2f047882a195d62d1fa7102a612e022",
        "receiptsRoot": "0xeb9fe31eda19cacb3ae78e193c77e3b0b0c5f425f5e505d7676b8e3ea3e84076",
        "logsBloom": "0x04200c001109513e10c004c1e0004c8200283870981e18d2010a29506812d0000406406a220249120050144111000280060240060600288122e0c22490a46020100040008ef8008949600208004002e02000800181463210815da58cc38006294200901612108900044860249d4308140882000022808400a031121801281045011034a108c9200c810940210a81020200a003012a03430c2000015a5480a0c0368008230022484808406132210a424000102291088420808130c110a02048422022c002080830c030400281050960101628880124802090118925a22466710208552c2892204005803049084093180484800a3918d19944a044004023000000",
        "difficulty": BigNumber.from(0x0),
        "number": BigNumber.from(0x842a21),
        "gasLimit": BigNumber.from(0x1c9c380),
        "gasUsed": BigNumber.from(0xc079ed),
        "timestamp": BigNumber.from(0x641247e4),
        "extraData": "0x",
        "mixHash": "0xa007e854afb5fb43382fd7e35e8894115f18d0f7a032d1e70e9da008332e3cf2",
        "nonce": "0x0000000000000000",
        "baseFeePerGas": BigNumber.from(0x1f5aeace),
        "hash": "0x060ccd049ae455ba19389f7a25f9f3ea5c4c2766d058a493635c23022ce33093",
        "withdrawalsRoot": "0x5e56fb1df19accf76966dbbb75b8bb49c2036b6f4dd3a0629905213ab143f43f"
    }, {
        "parentHash": "0x060ccd049ae455ba19389f7a25f9f3ea5c4c2766d058a493635c23022ce33093",
        "sha3Uncles": "0x1dcc4de8dec75d7aab85b567b6ccd41ad312451b948a7413f0a142fd40d49347",
        "miner": "0x4e0100d71ad71940c95710888e1d2501f72c823e",
        "stateRoot": "0x700568c16342b2f6b9e545606b0884704f17aceba9fef0587f1d97128c21ab94",
        "transactionsRoot": "0xd15958f84b7b7fa4b689e76d6203850b5d0b701fca4ff647c21e567c593b580a",
        "receiptsRoot": "0x73f574e1bf16260ec9551807110523cffa1e860e73ec5968fd52ada33dd5ebb3",
        "logsBloom": "0x006001c20100080a000400a5809065424400510008044852010860005000011604a01000224002241812100a804200aa40804000c21630e200e0ce0401326021924040008c8000094a08480d412800e430060080054058108012428220400000000423000280429008401280c40008008c8008882240840080781018080c2000100a0184900420000000482002000020442287802812021814040048502210c402040024500206180880d480b520000000540013280402808014400c202000028033586201080884044000090409401040401201200000100095800210022428505780052420202404220008c114008884451030021420001042200000006102",
        "difficulty": BigNumber.from(0x0),
        "number": BigNumber.from(0x842a22),
        "gasLimit": BigNumber.from(0x1c9c380),
        "gasUsed": BigNumber.from(0x61b2ec),
        "timestamp": BigNumber.from(0x641247f0),
        "extraData": "0x636170656c6c612d6275696c646f72",
        "mixHash": "0x9b7bce40464b81096d8f5cf31474fc379af3609973d83226456127c8727ae4c5",
        "nonce": "0x0000000000000000",
        "baseFeePerGas": BigNumber.from(0x1ebb52de),
        "hash": "0xa55c5c7f50ae1f5fda3f59bf528dcc203791479e1c3b267b89883527bc3bd2b6",
        "withdrawalsRoot": "0x351c5f9b61119a890566e94a0015695dd173affae30b80df809c53be27c9d18a"
    }, {
        "parentHash": "0xa55c5c7f50ae1f5fda3f59bf528dcc203791479e1c3b267b89883527bc3bd2b6",
        "sha3Uncles": "0x1dcc4de8dec75d7aab85b567b6ccd41ad312451b948a7413f0a142fd40d49347",
        "miner": "0xf36f155486299ecaff2d4f5160ed5114c1f66000",
        "stateRoot": "0xd93d1acdf896ae989a63ec176bfe80e2112bc17430fa280d2bed3274302a40b7",
        "transactionsRoot": "0xc8ef4cb773b38aab0c3fb969898581a9bd1b2796c9cc0bdb73ae1ebf9fe3edd1",
        "receiptsRoot": "0x859156484ade4580c0f1bdb9ed76aff3c986aa6c55b6576d1236c54309553774",
        "logsBloom": "0x003000080009b4080c70800100c0608303683ae4a004280aa18108d04902e2404401506ca302074a9011114051826de41300210b6c676baa09c0420014246820a4124002e6e0300c5861320b04b04ec0006d121b41062494a3d481a5c20210010a001441da008d01404005f497c1e880088440530a285204a3219e5800090044018025a12b80285b204928008e88052810208683029622840890095a541203d8120908211000819830026826b50823046050220100840088833dc100200450080522c0a2c016a098804a04011d816832064c0901a08024040181352102026162021541680c005130a11000b828168850840b0a500d408662b95050d9420a0442",
        "difficulty": BigNumber.from(0x0),
        "number": BigNumber.from(0x842a23),
        "gasLimit": BigNumber.from(0x1c9c380),
        "gasUsed": BigNumber.from(0x1c8f3d0),
        "timestamp": BigNumber.from(0x641247fc),
        "extraData": "0xd883010b04846765746888676f312e32302e32856c696e7578",
        "mixHash": "0x2f240ba9dca440b4969801341fbb1c63748ccc0432aacf2b175aa373385b51b8",
        "nonce": "0x0000000000000000",
        "baseFeePerGas": BigNumber.from(0x1c87aea1),
        "hash": "0x5d857e203e0cb52fca6c6c9dd97650291a620273e5f72b42767a213d35efe4fa",
        "withdrawalsRoot": "0xa2b65b58fb474bf5449ee1925fbd97ff6580b751ffc1e422b9afa63911682ab9"
    }, {
        "parentHash": "0x5d857e203e0cb52fca6c6c9dd97650291a620273e5f72b42767a213d35efe4fa",
        "sha3Uncles": "0x1dcc4de8dec75d7aab85b567b6ccd41ad312451b948a7413f0a142fd40d49347",
        "miner": "0x184ba627db853244c9f17f3cb4378cb8b39bf147",
        "stateRoot": "0xf859a1dce806c85219a6a00ad34f8ead4b99e9ade59644f8e36f16a414a76a78",
        "transactionsRoot": "0x018b189ce11f7a83587061b55bc8e8ae1af98127d13652c1c7b9f33d548fbcd6",
        "receiptsRoot": "0x81d8b7bce3fb6aa1d9fdfe4476f4ec65a848ef420755b435542fdb2f810a56d4",
        "logsBloom": "0x0014004610001048004084000081108c040018040808000001484810102301000280c08002014024100200850140004006004090040020c052004200a12420010002d0000c40880850000008401102846000000060c63020a118888280402220080210e202002010804011a485100a00000000002002c490002010128c582000010620a41040000a00888424028000300002090001048280000001481100010c1a2120a00900005a00080902a026040004000311014c23108110018c24000800a83144220068000c10022001050d461060580200008800210081210230026500c8540821802080458014082800100844080000a002111200b042088002000000",
        "difficulty": BigNumber.from(0x0),
        "number": BigNumber.from(0x842a24),
        "gasLimit": BigNumber.from(0x1c9c380),
        "gasUsed": BigNumber.from(0x643d05),
        "timestamp": BigNumber.from(0x64124808),
        "extraData": "0x4275696c644149202868747470733a2f2f6275696c6461692e6e657429",
        "mixHash": "0x8905f1413e4357d5f8f118397f777f15428e568ea042fa278bd90c6aebe774bf",
        "nonce": "0x0000000000000000",
        "baseFeePerGas": BigNumber.from(0x20156809),
        "hash": "0xc6ab2f03f38c23983be5078dcbb5ba36bcc4957da55d5bf44f92b5e78e4aa1f6",
        "withdrawalsRoot": "0xec94a2952cb6d39a09b60eb8b39a2d98983e2d5428d1403f14fa3ad9554c8fe7"
    }, {
        "parentHash": "0xc6ab2f03f38c23983be5078dcbb5ba36bcc4957da55d5bf44f92b5e78e4aa1f6",
        "sha3Uncles": "0x1dcc4de8dec75d7aab85b567b6ccd41ad312451b948a7413f0a142fd40d49347",
        "miner": "0xb636a68f834b4d75af9edc5fb0138bb4758ed293",
        "stateRoot": "0x467bacf3893b42b9ba414a119775d0dadccecf9d7625dfb06ee5ae78d2690074",
        "transactionsRoot": "0x90842c2079afae4f62d2a5357e51afe49a4308dbef74cb6cf0b460f9922137e3",
        "receiptsRoot": "0xad0d6d0cdcf4f073866711aa1996c0f872f211d2c120854c5ad8490de96b435a",
        "logsBloom": "0x000000010301400802000001010044820028300000040043000808100802000404004024220203000014180011020082041000000000288000c04004002862200210000084f000800800020800400220280280810002301082508184428010000600101012120304006244258400180008008088020002002021181804000004218024a80000040c4101040000204102800202000040000001000118100000c0021008000000061a0810c4022002020000100201000500808110410020284008022208420000608400c0000115086010000820c12080000000852428000a21024c1500200200b00080020008c010900004000a40000008409040208000000000",
        "difficulty": BigNumber.from(0x0),
        "number": BigNumber.from(0x842a25),
        "gasLimit": BigNumber.from(0x1c9c380),
        "gasUsed": BigNumber.from(0x7a0c2a),
        "timestamp": BigNumber.from(0x64124814),
        "extraData": "0x496c6c756d696e61746520446d6f63726174697a6520447374726962757465",
        "mixHash": "0xb2f2ea17e45bb8689a207bd115878eac472195d2f161a74cb7f3cf443226867a",
        "nonce": "0x0000000000000000",
        "baseFeePerGas": BigNumber.from(0x1dd45c7d),
        "hash": "0x891c108b39c216d8df79390484e374d7733439dec140ebae34cc81c32ad6b6c5",
        "withdrawalsRoot": "0x21f68998a1725e9178bbd931da696fe9536051f206f2123d8c1af0e81716d7ed"
    }, {
        "parentHash": "0x891c108b39c216d8df79390484e374d7733439dec140ebae34cc81c32ad6b6c5",
        "sha3Uncles": "0x1dcc4de8dec75d7aab85b567b6ccd41ad312451b948a7413f0a142fd40d49347",
        "miner": "0xe0a2bd4258d2768837baa26a28fe71dc079f84c7",
        "stateRoot": "0x2aaf99161467d87a70f19f603e29f23ebc79d0d7e997c61080fa0a88bfcde8b4",
        "transactionsRoot": "0xa8eaa78590a755e8d4ad2bbe53525fa10e65d71f530ee117a1a0e7dfc4464048",
        "receiptsRoot": "0x287088f27379657dd8b2e8d5c8dc4c5e066386c2ee2dba1b6e3be03acb17b387",
        "logsBloom": "0x0413a6460604488e0b0a000048e003a00220362029000458200108100002f11400025060a4b4000dc433d1101180c2052000061865062ac0008242925320148a20045070056e00285a46021b482322d0e90082180343a50091708a86c1c00181c2003c00524007a2c08895a4c68008868a880150108018420e213c15a0082404294630a2888cc00804401010028019b140080cd102402010240001009613201402000001102040d950222032a0c24514210526804404811083828d4d30424000423192a2c0b82710094300098501488146c800843280e12448082c22004221440858ad39f02010859913091e48981040c4c828f217202052c88a004d05000844",
        "difficulty": BigNumber.from(0x0),
        "number": BigNumber.from(0x842a26),
        "gasLimit": BigNumber.from(0x1c9c380),
        "gasUsed": BigNumber.from(0x1c7b8c1),
        "timestamp": BigNumber.from(0x64124820),
        "extraData": "0xd883010b04846765746888676f312e32302e31856c696e7578",
        "mixHash": "0xe1c1bb8500f2734ec5d9882d8294c6cfd642b56a65b72a36bb10d007d2e420ec",
        "nonce": "0x0000000000000000",
        "baseFeePerGas": BigNumber.from(0x1c16cfd3),
        "hash": "0x133f639849263e1b42e0f900b5f8cbf0037d43fdb450234b3c4d9a4949e8ed05",
        "withdrawalsRoot": "0x902111a6a520e8071aadeb4ec2e4143b4d9a1e98b0064b636a1ec25d4ccce80b"
    }, {
        "parentHash": "0x133f639849263e1b42e0f900b5f8cbf0037d43fdb450234b3c4d9a4949e8ed05",
        "sha3Uncles": "0x1dcc4de8dec75d7aab85b567b6ccd41ad312451b948a7413f0a142fd40d49347",
        "miner": "0xc6e2459991bfe27cca6d86722f35da23a1e4cb97",
        "stateRoot": "0xbe91a4a072727122722e66e5f5d33341b65d029e2f0d236ce2b40a321c1220c3",
        "transactionsRoot": "0xe40e0e1f07c37971fc1bb155948158855e5590143e142aa3fe92ed8c775588e2",
        "receiptsRoot": "0x128961e38d81e1f9bb89291cf09693a84b41517bdc79158b44fbc72a51141950",
        "logsBloom": "0x000400080113505c02d0040094221185060829244c00c04201494910981300181aa64420021e0300011000018544808442a300108601308202305e04b032a2000c0050008c70ac886a014148829083842058806504c23812851ccb854b820001c202330492840180484c00a585112a001842083000204441203012102c0940441b0a25f40c40448a805b080000080813050108080000a2290223215850c205c4130d18204902005a0a0116122c06020001040203301c6000859001e420a04a0301a04006810840081100040105bef65c2408828010080198001b27260842a10299548a29200004078a2001888110088408091a600119b044a1ca89800a004040",
        "difficulty": BigNumber.from(0x0),
        "number": BigNumber.from(0x842a27),
        "gasLimit": BigNumber.from(0x1c9c380),
        "gasUsed": BigNumber.from(0xf2dfe9),
        "timestamp": BigNumber.from(0x6412482c),
        "extraData": "0xd883010b04846765746888676f312e32302e32856c696e7578",
        "mixHash": "0x73fb24198576754298f546ff338f32a9d7d0a17a1c148f1f1b1f0b6afda73693",
        "nonce": "0x0000000000000000",
        "baseFeePerGas": BigNumber.from(0x1f91a4e7),
        "hash": "0xa86e334b3e78da5799a323890d826a9553120f993ebaafaf83122b18389dac4f",
        "withdrawalsRoot": "0x9fe2f5624e2856406163e01e5938bd148dddf64b100301fa3c2e76001057f84f"
    }, {
        "parentHash": "0xa86e334b3e78da5799a323890d826a9553120f993ebaafaf83122b18389dac4f",
        "sha3Uncles": "0x1dcc4de8dec75d7aab85b567b6ccd41ad312451b948a7413f0a142fd40d49347",
        "miner": "0xf36f155486299ecaff2d4f5160ed5114c1f66000",
        "stateRoot": "0x4ca9f1243f04da9a9a9df328059b9240faa1c8b45db36718f49bb33f7414ca0c",
        "transactionsRoot": "0x2136df1add7e9909e86999b503b73c448a740196b447d847fb9fd0723f8eea39",
        "receiptsRoot": "0xbba9a2d572ba009aa8cc12a23a15e6d831d98e149a68f96ea9055d912814028e",
        "logsBloom": "0x002404420300600e6010000084900000560002601c000072014908308cb1510500aa020012400024041001280044048448030000001022680080520413a422a0420040008c3880c97c08182a40408320280480050044100088560182864510010e0510a6ca00014080403580c41208000200248a200864012022181c04481208120200e094004202004280058a0018300060040100150a4c810505725943884c66420903208442d888002410a920152404002601208443020331102c20202fc28031da620008048c02040040040b641046401a0480022110200300a21802e40018542b08a5602035001663b862821080804c00320c1900c2144261c21a000644",
        "difficulty": BigNumber.from(0x0),
        "number": BigNumber.from(0x842a28),
        "gasLimit": BigNumber.from(0x1c9c380),
        "gasUsed": BigNumber.from(0x77f153),
        "timestamp": BigNumber.from(0x64124838),
        "extraData": "0xd883010b04846765746888676f312e32302e32856c696e7578",
        "mixHash": "0x3329ace34a6b0d2c19525f8287fcad1f827b7143b37ea3d63826e98f2fcb1a49",
        "nonce": "0x0000000000000000",
        "baseFeePerGas": BigNumber.from(0x1fcf6752),
        "hash": "0x3be451c8a4cc34a89daf5e56a1724d119c9c6a388f135dc116c75eafff4aef4e",
        "withdrawalsRoot": "0xbefcf005463051922054c79ad19e23205ce2344b12019ebd22abd58da1ebbb00"
    }, {
        "parentHash": "0x3be451c8a4cc34a89daf5e56a1724d119c9c6a388f135dc116c75eafff4aef4e",
        "sha3Uncles": "0x1dcc4de8dec75d7aab85b567b6ccd41ad312451b948a7413f0a142fd40d49347",
        "miner": "0xc6e2459991bfe27cca6d86722f35da23a1e4cb97",
        "stateRoot": "0x7d3373ab2d9490ca1c9320c5416a6bfbc44375dfc19d4e04dd42ff01df74a7e3",
        "transactionsRoot": "0xa0a62fb74d2c3af2fc846b6c3e64fc7142c05e2df2b7b1d555c3141e2f68047d",
        "receiptsRoot": "0x56490c7cc49bbb5f4b0471f279d8dbdbf45705d0c76d8279846002a3a71e63e5",
        "logsBloom": "0xa6154044c080592d20d0300080d8319104381e14aa014a1283d001185e22104064d6446482204a02101c104c93cd46840ea31490a84ef8a20008169c203ee0280c8170078ef6a0b9e8080a4802808390924584100c46b05a8959c08542a030800a2318e69280e0011070c1a485416f28200000f90588440380672014b84a085a93c6f1f414cca5a8a40240150291509204090a0442326a204801d36850ea440412011074550256d8cca4d136248024616635c2058025130481b1d90fa2a0a200812a40220288608b246013830503d018c588b203888a20000e91a52a9d426320415d2a2a056200288435010883101150cce5803000980a4021420a10104464c2",
        "difficulty": BigNumber.from(0x0),
        "number": BigNumber.from(0x842a29),
        "gasLimit": BigNumber.from(0x1c9c380),
        "gasUsed": BigNumber.from(0x7df173),
        "timestamp": BigNumber.from(0x64124844),
        "extraData": "0xd883010b04846765746888676f312e32302e32856c696e7578",
        "mixHash": "0x1981f7ff1cbe70fefd47d7c220da6355bc20f0ed52fc767d9ce82e7337167630",
        "nonce": "0x0000000000000000",
        "baseFeePerGas": BigNumber.from(0x1deae8c8),
        "hash": "0xd3f631b02c07f49f434f1d6a534b9f144b2382ba5a42cad2a0edb0d5185d6f66",
        "withdrawalsRoot": "0x9339436afff6617aed777089bfc9435d76f1f845fecb4349422980fdb3c737b1"
    }, {
        "parentHash": "0xd3f631b02c07f49f434f1d6a534b9f144b2382ba5a42cad2a0edb0d5185d6f66",
        "sha3Uncles": "0x1dcc4de8dec75d7aab85b567b6ccd41ad312451b948a7413f0a142fd40d49347",
        "miner": "0x2a726c1d5dc4637d321a03fb06f2e0eff9ceb4aa",
        "stateRoot": "0x3d259cba5d8e3a850315ce5d9e31332a4be824ce2db1d94b25ffdefa3c1f90e4",
        "transactionsRoot": "0x5c4eb3d6910de574ddaa9c80c02a8ca42c964307c5858b541450d26fa02f85c0",
        "receiptsRoot": "0xa5dfa282c9f9cb43faa9d448ddef13c7bfdf9fe6d028059838bb1e6b239eec90",
        "logsBloom": "0x04000142140050000000040090820400080000200804008880290000041a8100000c4000108244070440000001004802006410000604a0460200420081242000440270000c008208c300000950000040690200000004300000320082800042000c00300282044500000070000582280400121000000808000000001484280060008230a4454c60000440040402a0083800001c010c000008080000204280800402020840000000000000010080000020200400900484200080200448800048a0453144020a08028010000000040b010040400e0180886110000001080000610108500c0130005004200000004213800480002034048300500000080012a00040",
        "difficulty": BigNumber.from(0x0),
        "number": BigNumber.from(0x842a2a),
        "gasLimit": BigNumber.from(0x1c9c380),
        "gasUsed": BigNumber.from(0x479190),
        "timestamp": BigNumber.from(0x64124850),
        "extraData": "0x",
        "mixHash": "0x96d0971acc5bc248412b58624038c0e946fe51d0fed79afaa99f5e6058bab43d",
        "nonce": "0x0000000000000000",
        "baseFeePerGas": BigNumber.from(0x1c3c56c2),
        "hash": "0xdc6f0870f6d02bf18d175a8c2f10a6c0bac8b3c45f6165bad643767cbb3fa14f",
        "withdrawalsRoot": "0x8d6ca17421f31571b642809f2c5839fba07ec7c7f658bd4e0369e21758c84abc"
    }, {
        "parentHash": "0xdc6f0870f6d02bf18d175a8c2f10a6c0bac8b3c45f6165bad643767cbb3fa14f",
        "sha3Uncles": "0x1dcc4de8dec75d7aab85b567b6ccd41ad312451b948a7413f0a142fd40d49347",
        "miner": "0x184ba627db853244c9f17f3cb4378cb8b39bf147",
        "stateRoot": "0x59ecd4f876e2675d5e2144f7e74d18de0619ada7d219030c9aa8c0896d4d6756",
        "transactionsRoot": "0xdb5d8e2a02c07370edf552c1137d9f8f6b9e865024bb0d324ce8ce30bd45517b",
        "receiptsRoot": "0x28f0623677388a0665a38258a3a1b0d90e01467831b1ede89cc564b9c93d2516",
        "logsBloom": "0x416430402042268e00c0008081e10886002258700806e833419a08170206421430d4546002a0824220908029bdc8100c1ed31100661e2ac31823d642543420080640601f1443204949213249006822e022d1a083114636009976c1b7c004a000c20406a112828391606852a4c141da304f80028355c42418a0fb1850000a00c00300a3ac38822408003c080003292101402784816a2202ea012d017452a000441a011a615202065a84d037b7230814a3020a62410404200081558104a0288d19c4aad8e608602b150400901315496210145d03c200b4e43383912da78082e10c301e21ac8220a152a6620008c098584887c0145056ac6244b442a05803a24050",
        "difficulty": BigNumber.from(0x0),
        "number": BigNumber.from(0x842a2b),
        "gasLimit": BigNumber.from(0x1c9c380),
        "gasUsed": BigNumber.from(0x1c67635),
        "timestamp": BigNumber.from(0x6412485c),
        "extraData": "0x4275696c644149202868747470733a2f2f6275696c6461692e6e657429",
        "mixHash": "0xed817b0481e507e6985e6c73d0d625028edd1ea8b2d9a3974e5f9e064d2773f8",
        "nonce": "0x0000000000000000",
        "baseFeePerGas": BigNumber.from(0x19cf52ca),
        "hash": "0x5ea685bd0fa4ade6d2c3e45ad58c3f32968fa363f3fca8f0be8a144c3d4e9f39",
        "withdrawalsRoot": "0x47ac7706957930cfd7a0ac0bf87640ec98d8437f3d5a0c5dfa6d9b3be6b4efd6"
    }, {
        "parentHash": "0x5ea685bd0fa4ade6d2c3e45ad58c3f32968fa363f3fca8f0be8a144c3d4e9f39",
        "sha3Uncles": "0x1dcc4de8dec75d7aab85b567b6ccd41ad312451b948a7413f0a142fd40d49347",
        "miner": "0x000095e79eac4d76aab57cb2c1f091d553b36ca0",
        "stateRoot": "0x25dda753fe3a516162ad21a9fa8d0cb54702c6845f150ab01bc46dcceb77b7e9",
        "transactionsRoot": "0xdbf704409d52b4140c11264ffd969a5440e55c68314791c40d0416ae01f962be",
        "receiptsRoot": "0xe9f181b98aeb4fc136b36a4bdf61ce122c257ecc0a366eb8ef11be2f3a53fe6c",
        "logsBloom": "0x021408c2118a3c2a028c958480a8618340505b654c1258178559091011164d3686b041312205c20e10121802016102b491a18890262c38e372204c0491bef5a20d7050108dc1304c5aac2d8a42de02ac280a43018c8730d0939fd79340082641cc06315a0a96808040c87ba5e50d6a180cc848260148411c6038181460084c68518e39a458d866ca01000800c2a06430cb130a88280203660104076850a207d4cf05180141a66e1948087013a4024631003c272328a42148c5b3691cb0214b488537d4a2032888845d5b100365a978124648a801a0894008009120700442e10098550c2f30a09415d0f3600ce450040c844908b00d192000b352284d2a084450",
        "difficulty": BigNumber.from(0x0),
        "number": BigNumber.from(0x842a2c),
        "gasLimit": BigNumber.from(0x1c9c380),
        "gasUsed": BigNumber.from(0x1c921c7),
        "timestamp": BigNumber.from(0x64124874),
        "extraData": "0x",
        "mixHash": "0xe5305c8a57b324582b5632fda99186dfeb6ee977ad4146736acb71f09dff1edf",
        "nonce": "0x0000000000000000",
        "baseFeePerGas": BigNumber.from(0x1cfd52ea),
        "hash": "0xfb0eeb75d52e5ee08f8de4a860ceab9ce332596e38f4b260ef04071a3011e3fd",
        "withdrawalsRoot": "0x1ae4b655cceb27696a679ce2ce413c1975fc84583424906c5f87bfc8ee251d05"
    }, {
        "parentHash": "0xfb0eeb75d52e5ee08f8de4a860ceab9ce332596e38f4b260ef04071a3011e3fd",
        "sha3Uncles": "0x1dcc4de8dec75d7aab85b567b6ccd41ad312451b948a7413f0a142fd40d49347",
        "miner": "0xe0a2bd4258d2768837baa26a28fe71dc079f84c7",
        "stateRoot": "0x804948deada931ac86b2e6c1aef248155ad25a2a90ae70d90b0e5159594b9f21",
        "transactionsRoot": "0x5bfe544c292a7928eeb120d74a4c50aa648e38815113892cb786a4a2b9ee8325",
        "receiptsRoot": "0x66b736960d66ce82be3bb73adbdb11d9712efcffa2f6dbe1b5637395cdba0353",
        "logsBloom": "0x061004004120500808844288800804c34411424088414272000c09109002103c0b84d00282020200081088000140440220810000868e20e2a09082a0002428000b5140002c4080524842400b107883502807000101c4b800e2b2c580040008400007124002811080404013a6a001ac040e80889003e0010024381810c20200481313a0a5000054082c0600200010024040000490281202448100410014a00540030c89005000031808005502a0020220200e030180873300c153015400204a088030586202c808061d00400105087011014816100242010a10952060100e61a0dc5408240020200380262008e030104c042d04e2019802143242220002804450",
        "difficulty": BigNumber.from(0x0),
        "number": BigNumber.from(0x842a2d),
        "gasLimit": BigNumber.from(0x1c9c380),
        "gasUsed": BigNumber.from(0xa25806),
        "timestamp": BigNumber.from(0x6412488c),
        "extraData": "0xd883010b04846765746888676f312e32302e31856c696e7578",
        "mixHash": "0xf900f45538fa526476778cfb8b22bea617948c3fd33d6517c19885352dd2339f",
        "nonce": "0x0000000000000000",
        "baseFeePerGas": BigNumber.from(0x209a6dcf),
        "hash": "0xafbc31f3335119400a76bbb3ea7ba42372a70908e6d2a514acf4aa7d6c5de33a",
        "withdrawalsRoot": "0x5d5329baecc8fa6fc6eca2802072dd6a3fdd5a9ca722e4fd56da8565ed6502c6"
    }, {
        "parentHash": "0xafbc31f3335119400a76bbb3ea7ba42372a70908e6d2a514acf4aa7d6c5de33a",
        "sha3Uncles": "0x1dcc4de8dec75d7aab85b567b6ccd41ad312451b948a7413f0a142fd40d49347",
        "miner": "0x184ba627db853244c9f17f3cb4378cb8b39bf147",
        "stateRoot": "0xd094902e635121b1b711860b13e0b5f24ebd83068158d2559b0d6ab84d687d2e",
        "transactionsRoot": "0x8829b4fdd807f76e061e0890c2059d6ef814319fc74a443dc30047ab761337b8",
        "receiptsRoot": "0x1026f7f0ca1c5c9740019d0c25f4c92a7cfc96388a8f1c03d8e17e871274ae76",
        "logsBloom": "0x00100043008100081ac051000080008120301a248c005122818541300606414cc4c878620202120410341000114106a002a20000240228e210004340132460204c0840808cd0004c08280a0a40c102880805000121466010a110c0c6828001000402000052828102405010a58d0328880500000525000510202018940008804813a220a558804c881008120808202820000102000256220411004368500006445b00402100000098068051a2b228102000110311038402008111610c60004c20803fc8320008e084084100010500e8104448980100802100009725222102712100158220202090048024008cc093080e04400218041800243042148210186540",
        "difficulty": BigNumber.from(0x0),
        "number": BigNumber.from(0x842a2e),
        "gasLimit": BigNumber.from(0x1c9c380),
        "gasUsed": BigNumber.from(0x97b9df),
        "timestamp": BigNumber.from(0x64124898),
        "extraData": "0x4275696c644149202868747470733a2f2f6275696c6461692e6e657429",
        "mixHash": "0x454211c3b1e6e6b140a8347727c5e13f8b76130f105faa78f074a7da01e9aa16",
        "nonce": "0x0000000000000000",
        "baseFeePerGas": BigNumber.from(0x1f6b219b),
        "hash": "0x3cd0b95ae86ad2579cb4f86cf5f0426beba02333e358df546e6014bbf954c500",
        "withdrawalsRoot": "0x459ea7d890f07443d7ac642bffab37e4df75c1947bb38ac1e6a5f0c068312111"
    }, {
        "parentHash": "0x3cd0b95ae86ad2579cb4f86cf5f0426beba02333e358df546e6014bbf954c500",
        "sha3Uncles": "0x1dcc4de8dec75d7aab85b567b6ccd41ad312451b948a7413f0a142fd40d49347",
        "miner": "0xf36f155486299ecaff2d4f5160ed5114c1f66000",
        "stateRoot": "0x73ba4313748b97c2ebbf36ed00e3b1b45ce33a178432d6b1783cb5d9a370797b",
        "transactionsRoot": "0xca85de46626e9e9a327aa9adfbebb3a8f4b57ed512f58fe53bf91aca435253f0",
        "receiptsRoot": "0x0d00ced6ae4a9e9f9449e14e392651133af60de9559d6dcfbb88de079f51b7ba",
        "logsBloom": "0x800000800100001800000e0080000080002840000e004052008908100000011000a014800a010200011080200140800804820000000708c222100e2090202010004040000c4004000b0022090068820020050040011030008012c114800000200004001002808080004042a4a00008001c800800206800c08038001000100041010220b4004c000800c0080000008000400305812800c008000101001022004402000880500003180a001002200a80000000030120040100811101202001800000a050020009082404004001051e62190448000000000010009020202022210018144b24020008058220040880800408000000000001a040304a200000004000",
        "difficulty": BigNumber.from(0x0),
        "number": BigNumber.from(0x842a2f),
        "gasLimit": BigNumber.from(0x1c9c380),
        "gasUsed": BigNumber.from(0xb9c54d),
        "timestamp": BigNumber.from(0x641248a4),
        "extraData": "0xd883010b04846765746888676f312e32302e32856c696e7578",
        "mixHash": "0xd113fec8ebc8bd09fcb450619286892c9cfca167f0dc45afe255c0ce79436950",
        "nonce": "0x0000000000000000",
        "baseFeePerGas": BigNumber.from(0x1e183711),
        "hash": "0xbdc081e9c5674d0ec4145ac4ec92ffe0c30da71adb1ce68203fa4564b668c985",
        "withdrawalsRoot": "0x782f89642397297cc9dbdf07c65bb1e2f1eca699f4aca7360a5d58d175130355"
    }, {
        "parentHash": "0xbdc081e9c5674d0ec4145ac4ec92ffe0c30da71adb1ce68203fa4564b668c985",
        "sha3Uncles": "0x1dcc4de8dec75d7aab85b567b6ccd41ad312451b948a7413f0a142fd40d49347",
        "miner": "0x2a726c1d5dc4637d321a03fb06f2e0eff9ceb4aa",
        "stateRoot": "0x2c4c848603ac54fc00df035573e88282cadf4e81d2cac32f119d86fca5ddd728",
        "transactionsRoot": "0x55463d33c9c9d39ffaedf12830a275e087781c7b059a0a26c28f1f9aacce0d06",
        "receiptsRoot": "0x65ac44b3d8d6b006e0d9be2b76483f2214c3aa17ba5a25063843e30e59dd0761",
        "logsBloom": "0x0045085e1181507888c0305c01a004c144211920280258038199ad140a174508508c49a043024a0400310200154a0044079300040c0068c230004eac112c3004020850318e70040a49001a084851ca8d28010001a246b004e132e18702201700004213ba8a8501234043d8a58513a8018101409403036450a022301500180040731a30f80e00648a104980010298103380040860b040a2008081114119582544170ec839481014180c841446b006500085504213340461848150834a24a57a890035c862010aa20291000081050de4d744790280038340014015b5621aa7634158761829a208a8f4ca230088e0101804884922701518805ca862b0a082045401",
        "difficulty": BigNumber.from(0x0),
        "number": BigNumber.from(0x842a30),
        "gasLimit": BigNumber.from(0x1c9c380),
        "gasUsed": BigNumber.from(0x135ad08),
        "timestamp": BigNumber.from(0x641248bc),
        "extraData": "0x",
        "mixHash": "0xc2d73bc088590c31c0b8f77e70563e5e6dcd82bd3c992d7a9ec9d333e024280b",
        "nonce": "0x0000000000000000",
        "baseFeePerGas": BigNumber.from(0x1d62d2e4),
        "hash": "0xd8b1fb9edba844c07e7bdda1efbf7287af14908ced4499ac601f0c917c414b1a",
        "withdrawalsRoot": "0x066fe91a46fa756f6e76e34d0db236aecac40096a13d32aa210ee1d643f91fb6"
    }, {
        "parentHash": "0xd8b1fb9edba844c07e7bdda1efbf7287af14908ced4499ac601f0c917c414b1a",
        "sha3Uncles": "0x1dcc4de8dec75d7aab85b567b6ccd41ad312451b948a7413f0a142fd40d49347",
        "miner": "0x388ea662ef2c223ec0b047d41bf3c0f362142ad5",
        "stateRoot": "0x79db0f6f41d13418f851085882f6eb69d8f3eb896ff72337da0e56f3a2c951aa",
        "transactionsRoot": "0xa0b054293ed6d1b3b466417a1c8f7e3e1d3ea3d5240e99e7302641072cbec8f0",
        "receiptsRoot": "0x0b0f0c8e3cc14f050fb47ada64e68dfda8195d656052e27dd50f28027cbb58ac",
        "logsBloom": "0xb47500041101591c01b4568884940d8d0430702488104ab2009da9709013c05446b2c06aca0142a01118100411450ec74ca31082ad055fe203005384d03e62602851e4c08dc8880469006a39007883f0e927024124ceb810803ac18580812a210c0f10fa028bf5a200407fa5ae313c080cd200d000404c42a03818906c3940d813a6b1e7c948240ac0ca10341ab089206441220129128008110103685066044007610901484206980a80598225060d04841c4391241c630091b1c1062420882200a6d00720492cac14409801150f66192418ba810082435911b7246a18326100d8f50b348600184493a161288396804c8d0500f120d90471f0e222c302006402",
        "difficulty": BigNumber.from(0x0),
        "number": BigNumber.from(0x842a31),
        "gasLimit": BigNumber.from(0x1c9c380),
        "gasUsed": BigNumber.from(0xec4b7a),
        "timestamp": BigNumber.from(0x641248d4),
        "extraData": "0x506f776572656420627920626c6f58726f757465",
        "mixHash": "0x6404faad341c93b648309b463a3ac4a53b67738aaab8898c03000850dc16f227",
        "nonce": "0x0000000000000000",
        "baseFeePerGas": BigNumber.from(0x1eaec36c),
        "hash": "0x491ea3b8a94ccfa4908da83553a5c8dbb385a34147a6a44882775d9d85284614",
        "withdrawalsRoot": "0x0dd68b58975257e0752f0f8daf0e9a67fb8eb0adda951fc9a067b1a88170eb84"
    }]


let receiptProof = {
    header: {
        "parentHash": "0xafbc31f3335119400a76bbb3ea7ba42372a70908e6d2a514acf4aa7d6c5de33a",
        "sha3Uncles": "0x1dcc4de8dec75d7aab85b567b6ccd41ad312451b948a7413f0a142fd40d49347",
        "miner": "0x184ba627db853244c9f17f3cb4378cb8b39bf147",
        "stateRoot": "0xd094902e635121b1b711860b13e0b5f24ebd83068158d2559b0d6ab84d687d2e",
        "transactionsRoot": "0x8829b4fdd807f76e061e0890c2059d6ef814319fc74a443dc30047ab761337b8",
        "receiptsRoot": "0x1026f7f0ca1c5c9740019d0c25f4c92a7cfc96388a8f1c03d8e17e871274ae76",
        "logsBloom": "0x00100043008100081ac051000080008120301a248c005122818541300606414cc4c878620202120410341000114106a002a20000240228e210004340132460204c0840808cd0004c08280a0a40c102880805000121466010a110c0c6828001000402000052828102405010a58d0328880500000525000510202018940008804813a220a558804c881008120808202820000102000256220411004368500006445b00402100000098068051a2b228102000110311038402008111610c60004c20803fc8320008e084084100010500e8104448980100802100009725222102712100158220202090048024008cc093080e04400218041800243042148210186540",
        "difficulty": BigNumber.from(0x0),
        "number": BigNumber.from(0x842a2e),
        "gasLimit": BigNumber.from(0x1c9c380),
        "gasUsed": BigNumber.from(0x97b9df),
        "timestamp": BigNumber.from(0x64124898),
        "extraData": "0x4275696c644149202868747470733a2f2f6275696c6461692e6e657429",
        "mixHash": "0x454211c3b1e6e6b140a8347727c5e13f8b76130f105faa78f074a7da01e9aa16",
        "nonce": "0x0000000000000000",
        "baseFeePerGas": BigNumber.from(0x1f6b219b),
        "hash": "0x3cd0b95ae86ad2579cb4f86cf5f0426beba02333e358df546e6014bbf954c500",
        "withdrawalsRoot": "0x459ea7d890f07443d7ac642bffab37e4df75c1947bb38ac1e6a5f0c068312111"
    },
    txReceipt: {
        receiptType: BigNumber.from(0),
        postStateOrStatus: "0x01",
        cumulativeGasUsed: BigNumber.from(72490),
        bloom: "0x00000000000000000000000000000000000000000000000000010000000000000000000000000000000000000000000000200000000000000000000002000000000000000000000000000008000000000000000000000000000000000000000004000000000000000000000000000000000000000000000000000010000080000000000040000000000000000020000000000000000400000000000000000000000000000000000000000000000000000000000000000000000000000000000000000002000000000000000000000000000000000000000000000000000000000000000000001000000000000000000000000000000000000000000000000000",
        logs: [
            {
                "addr": "0x499d11E0b6eAC7c0593d8Fb292DCBbF815Fb29Ae",
                "topics": ["0xddf252ad1be2c89b69c2b068fc378daa952ba7f163c4a11628f55a4df523b3ef", "0x000000000000000000000000e84d601e5d945031129a83e5602be0cc7f182cf3", "0x000000000000000000000000e041593d11bbabfa3af4191eba6829359c77a6a4"],
                "data": "0x0000000000000000000000000000000000000000000000000de0b6b3a7640000"
            },
        ]
    },
    keyIndex: "0x0001",
    proof: [
        '0xf8d1a0e7e4e1d287e990d928e91eac9a4cedca394a8be3931f23d206c2dc42f2a83ca3a007e365c5ce452ef0feaf230fd76108fa9544a23192c8f80b4085d836a2225e41a07e1505273dab2e40538b4dc1e62bb4c948906fa5e6d9a4656670fb11514306c8a09153af6ab1ce50d33e70405ffc7383281659da0618f3cc623feef1b88b89f16ea0e89ace6a049d831c6e69ac8f845620af9c60da7ece855cfeee71a964edf1e2eb808080a0e58215be848c1293dd381210359d84485553000a82b67410406d183b42adbbdd8080808080808080',
        '0xf901f180a0b54775a99637d46fe23c7f1a069a58ce88c22bdb6d43fa50f2dde9c6eede4781a0af9409cd88788b47541a2fb62976c58d04254bb9b1fb1f2ddd2c1c74b6b66d13a03623454f6d8a2f948b0fd89d518c9cb3242db1f9c28716c8b53a5dc6f555e093a0f7ad6c28f82d86f05c5d7f19c1fbdce6378ca9101e9d4cecb77fdd96560bd51ea05cc16bffffa61a7742b925e2a27c49c2b5acc1668075484f43e69b1fa44f7689a0d34b03235432abbdd0a3c41ab34b4c73a77ff01f19156d501d55f80cb79cc9daa0cd436d44ab9039196fdb4c6a465414ab8bae246c3643eaeefa7c0db1a7148820a0520b1498c221479f544799d6b1ad9a0813af6c7e7194ae92153cfa89e62ef27ea018d9047bac24390846f38d84e09db7305c919b6b8321484b9888c6867202b806a0b0da8087898c4debfe6dc4fd857550100762f07391e738bb6f9a679c9b28a27fa054b6aa94ef9436b734117a84ac41944ff0c92ecfbfff360e18db1718530d7a42a04691700e4e915807dddec6f40e693673ffb84ee35cac8c531bbce52708cd48a1a0e8679eda80264850713f9c14f2d64cc21bf996c522c04f20f8f87972a95b5e70a0480c81a39a4e81cdd1d784b097ccdca7ec1275e5861b03f5289d44192ca21c16a03da997586f7b776321e2ace44799006dac5d91d4dbd7e42ed3315fcb046bbf9f80',
        '0xf901ae20b901aaf901a70183011b2ab9010000000000000000000000000000000000000000000000000000010000000000000000000000000000000000000000000000200000000000000000000002000000000000000000000000000008000000000000000000000000000000000000000004000000000000000000000000000000000000000000000000000010000080000000000040000000000000000020000000000000000400000000000000000000000000000000000000000000000000000000000000000000000000000000000000000002000000000000000000000000000000000000000000000000000000000000000000001000000000000000000000000000000000000000000000000000f89df89b94499d11e0b6eac7c0593d8fb292dcbbf815fb29aef863a0ddf252ad1be2c89b69c2b068fc378daa952ba7f163c4a11628f55a4df523b3efa0000000000000000000000000e84d601e5d945031129a83e5602be0cc7f182cf3a0000000000000000000000000e041593d11bbabfa3af4191eba6829359c77a6a4a00000000000000000000000000000000000000000000000000de0b6b3a7640000'
    ]
}


module.exports = {
    headers,
    receiptProof,
};