let {BigNumber} = require("ethers");

let headers = [
    {
        "parentHash": "0x3f7b04da53ab66e05210e6ea75e61c98d00c99e6143820b6b9b1cd9a1044603b",
        "sha3Uncles": "0x1dcc4de8dec75d7aab85b567b6ccd41ad312451b948a7413f0a142fd40d49347",
        "miner": "0x455e5aa18469bc6ccef49594645666c587a3a71b",
        "stateRoot": "0x536876a2e8cd27ce13cc3bcc92ef836e2b83f4e05d370785f55c1ee8c1311ee0",
        "transactionsRoot": "0x14097bff1483c2736805aba16bea2ba739bf40a856434b19d3775a927ab2362a",
        "receiptsRoot": "0x3a162b3b8e1a77d1a179f2bc38620bf40b501423c97a3066c9fbda664cc0b09a",
        "logsBloom": "0x6a00080000800c2000802000208041010010a4402001010000000101420024640100140a02008006020001004180020100470830440a006080a04002003420c0001150201800884c8005080d01202000000100000516a20000140001001800012002080002040204240122e082036a100220104844002021440000160400288004028880000004846c020009002000a050204c98000001080200400000108c0807020000300018100400285002000c00820328000000000040011102018008300248040212c00000220000005900471000c00084000000400000410002606121011f010400020040294300ac124400198000040830184000105000442004e200",
        "difficulty": BigNumber.from(0x0),
        "number": BigNumber.from(0x793c34),
        "gasLimit": BigNumber.from(0x1c9c380),
        "gasUsed": BigNumber.from(0x4b35c3),
        "timestamp": BigNumber.from(0x6370c2e4),
        "extraData": "0x",
        "mixHash": "0x1662c0d5bbab140e0cfac01de52588dac7a889eb7ddc61ed0294cc33fd5b5c1f",
        "nonce": "0x0000000000000000",
        "baseFeePerGas": BigNumber.from(0xd),
        "hash": "0xeec6595f0a7c503ec7bef730e03cefaaa97b3aeb21159a79abc3987e2c8bd1e3",
        "withdrawalsRoot": "0x0000000000000000000000000000000000000000000000000000000000000000"
    },
    {
        "parentHash": "0xeec6595f0a7c503ec7bef730e03cefaaa97b3aeb21159a79abc3987e2c8bd1e3",
        "sha3Uncles": "0x1dcc4de8dec75d7aab85b567b6ccd41ad312451b948a7413f0a142fd40d49347",
        "miner": "0xc6e2459991bfe27cca6d86722f35da23a1e4cb97",
        "stateRoot": "0xbd8bae0fe7dd61556caa50396ba680932b1f1d1c1ca2089911f3a1330d55c47f",
        "transactionsRoot": "0x7618319dd44d158977715a88013c6ee5746564c0de1d11c991969c2ce158e9a5",
        "receiptsRoot": "0xc0d73c049608c7a1aaf11f13e26217e3c0691fe6dcb5055a3b61d2d8b27703e4",
        "logsBloom": "0x00245800040001240010802c0ac002200226ad300441121881b08940100094050fa210a149801b00603c1100108428a50c408812031408410a06d2064c64a0500d3240e99420a036c900830f00042082004118410836264608160a2c008108082400022172282040c80100921202691000405b02440440241a30101100802358a800215414c0c0c804108a080220012940025490025122160603108200000404520a8482048011100001a06102040404821961204280001045501000018141208050620210802888030c1202b41694043852032c878800ad0000846102a160b04db901000242520000102034814210100050000a28006a03100820c000004567",
        "difficulty": BigNumber.from(0x0),
        "number": BigNumber.from(0x793c35),
        "gasLimit": BigNumber.from(0x1c9c380),
        "gasUsed": BigNumber.from(0xc5b694),
        "timestamp": BigNumber.from(0x6370c2f0),
        "extraData": "0x",
        "mixHash": "0xa0a92e8ae41ffb9ae936f9da8f8d649896403b1d8d73848d5b0be38f50f8a364",
        "nonce": "0x0000000000000000",
        "baseFeePerGas": BigNumber.from(0xc),
        "hash": "0xdc5ea2f0660e1ed0906f98e97e43b9247715313320e0b1dc202b6fc84335cf49",
        "withdrawalsRoot": "0x0000000000000000000000000000000000000000000000000000000000000000"
    },
    {
        "parentHash": "0xdc5ea2f0660e1ed0906f98e97e43b9247715313320e0b1dc202b6fc84335cf49",
        "sha3Uncles": "0x1dcc4de8dec75d7aab85b567b6ccd41ad312451b948a7413f0a142fd40d49347",
        "miner": "0x0000000000000000000000000000000000000000",
        "stateRoot": "0xb53684170786d467bb8d905a44e241d425392f5b70bfbbf55651d4f49bd76e2b",
        "transactionsRoot": "0x0db5bfcdd0b4b5621128e8a0c74d01d7c0b693dd5b5d27d3c9cffe24fcf06bb0",
        "receiptsRoot": "0xcbca2dfd862a532d62c7785d1bbc71dbc05bdcc37c247b0847d848d94f1d84de",
        "logsBloom": "0x200000000000000401008008004040008000404000001c1200040000102244100088800402000204300000000004000002000002000000c100045201002420100840420080080008084000080808200000000041001401000042202440080801200420c00200028400001280000008100c000442004040002000401000800280080001040000602000000800210000612008108038040004200000200020004012010090408002100000283002000800801020000000000000010800000080000801980200002800050000000800a0000028002004000088204000604210e0201812080800400000001000180000800000080002000040010040000010000000",
        "difficulty": BigNumber.from(0x0),
        "number": BigNumber.from(0x793c36),
        "gasLimit": BigNumber.from(0x1c9c380),
        "gasUsed": BigNumber.from(0x50636a),
        "timestamp": BigNumber.from(0x6370c2fc),
        "extraData": "0x",
        "mixHash": "0x75d0797913f7b34112ca5b89d1bd55ed0dfee671a1e5aa4edd92ed70f26085d8",
        "nonce": "0x0000000000000000",
        "baseFeePerGas": BigNumber.from(0xc),
        "hash": "0x070c1aaf224b12f14ff4c23dabf3c0befda3c07ad825285c6a6559dbdd435a65",
        "withdrawalsRoot": "0x0000000000000000000000000000000000000000000000000000000000000000"
    },
    {
        "parentHash": "0x070c1aaf224b12f14ff4c23dabf3c0befda3c07ad825285c6a6559dbdd435a65",
        "sha3Uncles": "0x1dcc4de8dec75d7aab85b567b6ccd41ad312451b948a7413f0a142fd40d49347",
        "miner": "0x455e5aa18469bc6ccef49594645666c587a3a71b",
        "stateRoot": "0xe3d41679e09f01fe19b93603d057f69e86800cbee46a4dd7cb49df6174d87474",
        "transactionsRoot": "0xe85bd1af2c637ca80a652d11768a5049b20949fff6579fb0c7a6e2b5fedb9506",
        "receiptsRoot": "0x70ba8181f37f909231f06c574a5dba48bd8e168dbd5962539ac4360bd875a2bb",
        "logsBloom": "0x2670009230001004404f885e00f4a0408001a24000121048438030800020000624e3041148085e062a10210204ed0404098a32122604a5b0223c0e1618244a900c587120800200888a88003e0b0004231843044801058235910482141202081039008a4842184820e22118618080693a21804868640406253800493004e8184081c0835c48504b0581200a291419241318411da040ae4005030103e40406088402250900c90600032c01a1d28344006003742418478080684020102a3417c000c870122290040011640410000210c7000e6420a4b742440a244911aa6278e03ab8d84baaa150000a0c104250003000801804000a10b024a5931b2480028a6539",
        "difficulty": BigNumber.from(0x0),
        "number": BigNumber.from(0x793c37),
        "gasLimit": BigNumber.from(0x1c9c380),
        "gasUsed": BigNumber.from(0xfbf32e),
        "timestamp": BigNumber.from(0x6370c308),
        "extraData": "0x",
        "mixHash": "0xef89d12f2a0a3cfb96f96d7e6ce88f7f4991df8a31d90eb5ba69c301a69992d0",
        "nonce": "0x0000000000000000",
        "baseFeePerGas": BigNumber.from(0xc),
        "hash": "0xf9cf8c658e0c8e8102faa14f987021f01c271cb3a3891c19781515b525c079b0",
        "withdrawalsRoot": "0x0000000000000000000000000000000000000000000000000000000000000000"
    },
    {
        "parentHash": "0xf9cf8c658e0c8e8102faa14f987021f01c271cb3a3891c19781515b525c079b0",
        "sha3Uncles": "0x1dcc4de8dec75d7aab85b567b6ccd41ad312451b948a7413f0a142fd40d49347",
        "miner": "0x000095e79eac4d76aab57cb2c1f091d553b36ca0",
        "stateRoot": "0xf33ace0cf1d5f7c90cfdb13501650a0b14bd8f1260a4f2a640fec41b458cdc0d",
        "transactionsRoot": "0xad5c6edf6907e15fcfb0382a22c5b09efa33c743581b346f2c9433513b677ad0",
        "receiptsRoot": "0x46158791297bc26ff424e6060b96a1e23ff026e53bb02aa3474b5b1b7fbe41e2",
        "logsBloom": "0x45024400c028802f0800000890e8024000207044020412128a3889400820355420cc976ca2804a0660b9524452c531c008221cc60a120dc1404066092926e4360d40e14d861660298a08224988680100000508510114a0c90c1d212566802a0260070845b204e48614e1028490072d102c1100498ddb00822292745d68920a884827d18405cbc1001406c9118aa142a08029048f3a3bc04e046190a0d060054403213948508153918420a934279600a16e9c601102809804007a28012281c240a830b05210812883053470020c02e4d815e0403006841018120045604c6061205c7403e3a560600a0518001802101129413943044084ce112042822410412246",
        "difficulty": BigNumber.from(0x0),
        "number": BigNumber.from(0x793c38),
        "gasLimit": BigNumber.from(0x1c9c380),
        "gasUsed": BigNumber.from(0x86fb37),
        "timestamp": BigNumber.from(0x6370c314),
        "extraData": "0x",
        "mixHash": "0xd30fe0480c569744a5d96ceb7a94fe17a7df3b014b3656f9483c87f99ba07765",
        "nonce": "0x0000000000000000",
        "baseFeePerGas": BigNumber.from(0xd),
        "hash": "0xf8539f71a94dd889e1836c63b86bbfd223fab2f14381ea6badab55b51b4adeac",
        "withdrawalsRoot": "0x0000000000000000000000000000000000000000000000000000000000000000"
    },
    {
        "parentHash": "0xf8539f71a94dd889e1836c63b86bbfd223fab2f14381ea6badab55b51b4adeac",
        "sha3Uncles": "0x1dcc4de8dec75d7aab85b567b6ccd41ad312451b948a7413f0a142fd40d49347",
        "miner": "0x4d496ccc28058b1d74b7a19541663e21154f9c84",
        "stateRoot": "0x23e08fbeacfee3e35bcc4ea5458b06549bd1eaaa0197d21162e897c4d45fd2ca",
        "transactionsRoot": "0x9eaceb67ff2bfaad47aec01f42cec11cbcc2ee76209d7f3a4f8fa4064ce618ca",
        "receiptsRoot": "0xcac49e64185c057bb3794835bd1f2e2f2062fc26f02f3ae220bbcf95cb1e6a57",
        "logsBloom": "0x1469184151c001240012822a006040c110207d418c80115200a480800002441400428424a220121c0030210015c40885480b0d46021a48c1001456518624a03108484030c00000294800a20c08487026040a02610116660054542864400028004004a110120500842a20569000a408300c4004ca00401220b1000010008009e0d008c10610a0c0008020840801100021292d04003a240345244108a20ca00044420d080440000a10081038700230402026016902028000008011406a2008e00008409a0b51802809250400010c12d61110f8113c0381008110c844a440506022189301c12442801005102068000308403019002a082042052048000000000200",
        "difficulty": BigNumber.from(0x0),
        "number": BigNumber.from(0x793c39),
        "gasLimit": BigNumber.from(0x1c9c380),
        "gasUsed": BigNumber.from(0xc8ca25),
        "timestamp": BigNumber.from(0x6370c320),
        "extraData": "0x",
        "mixHash": "0xbb728868124ecded163b4192c15b5d329cab1a35ed992be5f1d26f08ef0e08c5",
        "nonce": "0x0000000000000000",
        "baseFeePerGas": BigNumber.from(0xd),
        "hash": "0x891b7dccd71970f955f01543b7db773bc70a5575004c91ef67fdc4e74b882305",
        "withdrawalsRoot": "0x0000000000000000000000000000000000000000000000000000000000000000"
    },
    {
        "parentHash": "0x891b7dccd71970f955f01543b7db773bc70a5575004c91ef67fdc4e74b882305",
        "sha3Uncles": "0x1dcc4de8dec75d7aab85b567b6ccd41ad312451b948a7413f0a142fd40d49347",
        "miner": "0xf36f155486299ecaff2d4f5160ed5114c1f66000",
        "stateRoot": "0xad2a3c0ebe8942c4386b9621d796fbdbf78b42bed7a49f6a3f37c70eb5b7bcc0",
        "transactionsRoot": "0xec5044676da48b2231bcd79a077c9dd5ca37da1d11da2d0e7675a6f234fa3165",
        "receiptsRoot": "0x9de326ad932e41c68675f3084467fa3b97d32aad7babef77ed189b05baea6f3d",
        "logsBloom": "0x07762c828a829d0648a1cc0801e088150f23c25011005a5a488301026a1226d40f139660c6209a1a8118b18d50c642196513921a00113c640904be02e824e2a0084248a18c000319a8288aac193c4c60858e406e00172259a114a72fc5008800280f0011120042802a60b2f09281e85b1cc40241144946256920c51b3b9a10a0a08aa68485c5ce0c01488e08b8a96418086194036a3b220600830200002004ccc6835002c4440a129148f8f1c230021a2760a91a57454c7988150988210108c40af0d01391863b01650d50a11c10e8000c400ced27c448d1e10d0d201bba607d1897a90401d00081411120391d3909c4801e191a00da46419d4085152088aae0",
        "difficulty": BigNumber.from(0x0),
        "number": BigNumber.from(0x793c3a),
        "gasLimit": BigNumber.from(0x1c9c380),
        "gasUsed": BigNumber.from(0x1c7e8ab),
        "timestamp": BigNumber.from(0x6370c338),
        "extraData": "0x",
        "mixHash": "0x39aaa54d345ea3a6cf7f1cfa357eed8a64869dd2a56981965a0689ceaea63f9b",
        "nonce": "0x0000000000000000",
        "baseFeePerGas": BigNumber.from(0xd),
        "hash": "0x07594d48095460ced08b9b38caec6525def90ed328162a084c0bd01e4f59bebf",
        "withdrawalsRoot": "0x0000000000000000000000000000000000000000000000000000000000000000"
    },
    {
        "parentHash": "0x07594d48095460ced08b9b38caec6525def90ed328162a084c0bd01e4f59bebf",
        "sha3Uncles": "0x1dcc4de8dec75d7aab85b567b6ccd41ad312451b948a7413f0a142fd40d49347",
        "miner": "0x0000000000000000000000000000000000000000",
        "stateRoot": "0x56d784172baa22a393fcebbea3b6b73fc5993d62a790d2c7c790507de7409c21",
        "transactionsRoot": "0x38c6baf0b2aabaffe4be1a25f664e4bfd4732fc5c65b15e63ff8c6332f599cd9",
        "receiptsRoot": "0x7a8029e35fe5bf0bce5fe3689e81483e6e7629e2a66de834663c83e3db5fefa2",
        "logsBloom": "0x60c50002022000041092a20ac022080100303018000010540001c0101c02304600c36420e880020460b8410890c50184420200100410ac21041056000425815008100030c4080228d288024f62001004a45400433146a20030100024c000080220c040001a0600200a23019200040813000000c0080207206000081014882a000c26c106008a00000829040022300000088104810220400c04434021c80800040a468000828000980004a070020c00a0221001840000a06000219120228280002050400250802909040202411412860009a4086c0a8610891008ed625e0060000891490020482100059020101507080002100068000804438008004040840000",
        "difficulty": BigNumber.from(0x0),
        "number": BigNumber.from(0x793c3b),
        "gasLimit": BigNumber.from(0x1c9c380),
        "gasUsed": BigNumber.from(0xa5b798),
        "timestamp": BigNumber.from(0x6370c344),
        "extraData": "0x",
        "mixHash": "0x2ff4ec7b8db393d64b96a36d28764bc547f896d97aee6dd2bfb8f818e6313e93",
        "nonce": "0x0000000000000000",
        "baseFeePerGas": BigNumber.from(0xe),
        "hash": "0x501992cf7ebe77c5c963650548d8fd2a62baaafad245d5339ec08fc2904530d9",
        "withdrawalsRoot": "0x0000000000000000000000000000000000000000000000000000000000000000"
    },
    {
        "parentHash": "0x501992cf7ebe77c5c963650548d8fd2a62baaafad245d5339ec08fc2904530d9",
        "sha3Uncles": "0x1dcc4de8dec75d7aab85b567b6ccd41ad312451b948a7413f0a142fd40d49347",
        "miner": "0x000095e79eac4d76aab57cb2c1f091d553b36ca0",
        "stateRoot": "0xe578fc76dec6407d02dae4f8e1514d4461c92deb40c6bca3e2048e6fd0643b8c",
        "transactionsRoot": "0x9c5f806422ad75cf5bc70e0792f2e434953ea20fa4a43874f5f895d41968ad87",
        "receiptsRoot": "0x547892093e15f010c85a3de6f0d22ef93047f79f81346c0f896eafc32b40a430",
        "logsBloom": "0x000002410802008080008000000000004000000a020001004201080000000001080800080000000040400102228080004040000000000200000408000024200000000020000010001120080c00000002186000000004020001000000000020000000000002200000600000280c0008040000000001000020410100100000000000004400001001000000000800080000000004030000010800400020001000000200010008020000000100400a820000000000000004000000000000100084000040040210002000400080800002100000405004006800000000000400006000001801000800000800000000001000100000000a000000020040080010000081",
        "difficulty": BigNumber.from(0x0),
        "number": BigNumber.from(0x793c3c),
        "gasLimit": BigNumber.from(0x1c9c380),
        "gasUsed": BigNumber.from(0x256031),
        "timestamp": BigNumber.from(0x6370c350),
        "extraData": "0x",
        "mixHash": "0x985f4928512886bf1d82b67318def0a0f4fb577dbb5cb0c8ffa602193edd6311",
        "nonce": "0x0000000000000000",
        "baseFeePerGas": BigNumber.from(0xe),
        "hash": "0xc6295378a28c08d23a639b960efb2898bc7e765ee89c980958ac25941de0e286",
        "withdrawalsRoot": "0x0000000000000000000000000000000000000000000000000000000000000000"
    },
    {
        "parentHash": "0xc6295378a28c08d23a639b960efb2898bc7e765ee89c980958ac25941de0e286",
        "sha3Uncles": "0x1dcc4de8dec75d7aab85b567b6ccd41ad312451b948a7413f0a142fd40d49347",
        "miner": "0xf36f155486299ecaff2d4f5160ed5114c1f66000",
        "stateRoot": "0x5bd437931ec24e94250cab62399f28695597124cd5811c0d37714aed91ad6f07",
        "transactionsRoot": "0x0754d159afe15c580670773a4827dc374ee658c8d8f2e1b7671c118eb7620a6e",
        "receiptsRoot": "0x2fa16474f0a41eccf69de93faa11f480d451a8529ab1bd4fc53e357803eb36b9",
        "logsBloom": "0x40a008410102026c10048a5884c008cb042c61600001123208950811082006148e0820214a003a26109201003088414b2502082842f4484002fc1f00082434402ec24022e40a02490ec6122c4c48112ea4114865b816330043142005c002ac0000048318b6002090284342b2a02048582c045c400644006124001c14048000c00928c8c4008462240942480900002112006044013b08890d05b70065c4a0215536051810600002900a80b87206061880000120070680040802f0040a0288c9002948d1121181280404901142dc06e4d0004312ae028000b110202d648200e02358950d41a64001000812008e480018400019000b1080604300420040340c0000",
        "difficulty": BigNumber.from(0x0),
        "number": BigNumber.from(0x793c3d),
        "gasLimit": BigNumber.from(0x1c9c380),
        "gasUsed": BigNumber.from(0xf6590b),
        "timestamp": BigNumber.from(0x6370c35c),
        "extraData": "0x",
        "mixHash": "0x923ae7dd5165c5c19ca489477948516535528d256c2240c57320b2b693ca489b",
        "nonce": "0x0000000000000000",
        "baseFeePerGas": BigNumber.from(0xd),
        "hash": "0x6511a56bcfed249c8e2d5834d44186f14032154c725eb0ae6b17e9d389af00f5",
        "withdrawalsRoot": "0x0000000000000000000000000000000000000000000000000000000000000000"
    },
    {
        "parentHash": "0x6511a56bcfed249c8e2d5834d44186f14032154c725eb0ae6b17e9d389af00f5",
        "sha3Uncles": "0x1dcc4de8dec75d7aab85b567b6ccd41ad312451b948a7413f0a142fd40d49347",
        "miner": "0x9427a30991170f917d7b83def6e44d26577871ed",
        "stateRoot": "0x5ebc307439fa6b1a9f8c6015640bc3284270c6f973b8058dc27bf4ba48d1a5ce",
        "transactionsRoot": "0x6e7650567cab6f03e91d6cd46ad7de2a8b0905a00b27c656cac36928fae5fa80",
        "receiptsRoot": "0x03ad740576271763dfda5d6bce4cb668f44b5d0592b583d2fdbe970b9eb276cc",
        "logsBloom": "0x010004000000000400000208000200010031a000000100000040000000002404000c0020000aa00400106100108000004051003001108880000002822024000008090021c4200000c3000a0ca0008002000000000004a240081020140008088020000004128410004051001000040a040000001010006020000000108080000102000000908012100402000800180004000004180301000c001142250000800002008000000000001000006082000000200002000480800042010000008082000040400214902000040130040400840001c0012c0280000110080420420060000199010000004000008000040200000001000008002000010000080210002200",
        "difficulty": BigNumber.from(0x0),
        "number": BigNumber.from(0x793c3e),
        "gasLimit": BigNumber.from(0x1c9c380),
        "gasUsed": BigNumber.from(0x3764cc),
        "timestamp": BigNumber.from(0x6370c368),
        "extraData": "0x",
        "mixHash": "0xc93623bbae775df1f5b9d46645a82b5d74dbf7ac16c14093203209b29a851f20",
        "nonce": "0x0000000000000000",
        "baseFeePerGas": BigNumber.from(0xe),
        "hash": "0xd9517961248634da8ba9e340d115f6fe09151832fbcb878f524543c29dc9f8ec",
        "withdrawalsRoot": "0x0000000000000000000000000000000000000000000000000000000000000000"
    },
    {
        "parentHash": "0xd9517961248634da8ba9e340d115f6fe09151832fbcb878f524543c29dc9f8ec",
        "sha3Uncles": "0x1dcc4de8dec75d7aab85b567b6ccd41ad312451b948a7413f0a142fd40d49347",
        "miner": "0x4d496ccc28058b1d74b7a19541663e21154f9c84",
        "stateRoot": "0xbffed228864e1a6fb1525511235f15e311cffa8f9270ac4897b64dcb84d28d4b",
        "transactionsRoot": "0x3299bc614d5f7a58eec8b9e12ba2b1b88a0d0e62b892a852abd152ebbfd2a523",
        "receiptsRoot": "0x9f1fadcab51dae6c6c937db177251116a922925b84775cc13098237cc151e83d",
        "logsBloom": "0x48080a001000000c0190000a08c202490020f840010b970a40040b4000042595148200204a01110460ba180850040085204308104214480100b01600c2246030090056088800824dca00820e0800852221088041083522811014432500000880300280001604002026414291a005281c018000e2021c0421a1004810808822a088428d8000801c1828020f08005812311920489002248105010100500c0104410201888400810212100028300a001a0040113001c3810008431000620180c4240c48029210802088401030014c16f4502c41002c02c8208880000468c2c074630995894084414001081200dc0008100000102000001c600348405040b0040a02",
        "difficulty": BigNumber.from(0x0),
        "number": BigNumber.from(0x793c3f),
        "gasLimit": BigNumber.from(0x1c9c380),
        "gasUsed": BigNumber.from(0x728992),
        "timestamp": BigNumber.from(0x6370c374),
        "extraData": "0x",
        "mixHash": "0x0903f6ab92c30b7811336985f0f7f4c3baaf8a9d87516d75d8fe819a8707a5c7",
        "nonce": "0x0000000000000000",
        "baseFeePerGas": BigNumber.from(0xd),
        "hash": "0x4c2c816c96af8ba03721ad08e7ed20b7a2def7555f3568c47796c1a6e2c53ea8",
        "withdrawalsRoot": "0x0000000000000000000000000000000000000000000000000000000000000000"
    },
    {
        "parentHash": "0x4c2c816c96af8ba03721ad08e7ed20b7a2def7555f3568c47796c1a6e2c53ea8",
        "sha3Uncles": "0x1dcc4de8dec75d7aab85b567b6ccd41ad312451b948a7413f0a142fd40d49347",
        "miner": "0x4d496ccc28058b1d74b7a19541663e21154f9c84",
        "stateRoot": "0x37bfc9c705894053569b2191b8e4394ff938eb32ec525234ac0f5ec19cbfdee4",
        "transactionsRoot": "0xbeb9ccf9a2468ca8db48b4ba50df2f0f5544a46b056900eb4fa9858b6598961d",
        "receiptsRoot": "0x63f4e837c1da510fa95f84b7fd27008903e837933a9f158ecdfd4d8d89d9a5a9",
        "logsBloom": "0x020010020004410400408208804600c20030a51004111062048100000200670514400460080150840059810090c60940004b5c1000120a010095060858a40a108801506484080000800c820900800020088040c94815322018100804802008402000000112020000882120900801281000c00284000c0000008060b000d000800083810044aa2009a370800102050084144114110222410c047148200004000406360100c0000011140220e00200402002082008020480004061202061888428204056161ae46101000c11004412d6048600802d028000101140c4204200f022c999a10004420031051140000a1000000310020a002162410008000000009262",
        "difficulty": BigNumber.from(0x0),
        "number": BigNumber.from(0x793c40),
        "gasLimit": BigNumber.from(0x1c9c380),
        "gasUsed": BigNumber.from(0x54dac1),
        "timestamp": BigNumber.from(0x6370c380),
        "extraData": "0x",
        "mixHash": "0x5af5078af39baafbe6c47b68eeb7b5e66d06e81ef2591d8c889c38f2fd23ccfb",
        "nonce": "0x0000000000000000",
        "baseFeePerGas": BigNumber.from(0xd),
        "hash": "0x72fdbbc90a8ba6bb5d76b53c9f7da49c11e880d766b3e507ea2b10bd7c60160d",
        "withdrawalsRoot": "0x0000000000000000000000000000000000000000000000000000000000000000"
    },
    {
        "parentHash": "0x72fdbbc90a8ba6bb5d76b53c9f7da49c11e880d766b3e507ea2b10bd7c60160d",
        "sha3Uncles": "0x1dcc4de8dec75d7aab85b567b6ccd41ad312451b948a7413f0a142fd40d49347",
        "miner": "0x4d496ccc28058b1d74b7a19541663e21154f9c84",
        "stateRoot": "0xa9c2902074bdabf89c30674dbf6bbfc1f0e54d19a4cda4c94387f6e6ee89a113",
        "transactionsRoot": "0xf81f0eecb584b8c31a4ead7e22672d9d28d6c80439e6b46d6cc92b1c161b85b6",
        "receiptsRoot": "0xc847c96f1a6578b38deff522bf857340bf9466d5b401cb0c8c8098cec278806d",
        "logsBloom": "0x04020240004000040280000a004000010000a040000110000080010000004400050100000200100000000000010000000048041000008204000802000024080008004200d84800088120400c0000000001000040001400000010000000002c000002008002000000000100808001281810800040000000200000009000800080000200810800040020080008800000400000001000004004000000000000041402000000018200100100291400000000008020000000000040000008408000000000001200000202000010000a0084000040a0200000000010400100820060600d14000000400000c050004800020c0000000000009840810040000100082200",
        "difficulty": BigNumber.from(0x0),
        "number": BigNumber.from(0x793c41),
        "gasLimit": BigNumber.from(0x1c9c380),
        "gasUsed": BigNumber.from(0x1d14f2),
        "timestamp": BigNumber.from(0x6370c38c),
        "extraData": "0x",
        "mixHash": "0xf7a7de13f51d5ef4a31dda7ae5bf7e71ea786092e513ca75f307576ae254e240",
        "nonce": "0x0000000000000000",
        "baseFeePerGas": BigNumber.from(0xc),
        "hash": "0x8ba63c8e641f1cf4a099725fbc30192b76d4828b9e83bbdbe987583db348340b",
        "withdrawalsRoot": "0x0000000000000000000000000000000000000000000000000000000000000000"
    },
    {
        "parentHash": "0x8ba63c8e641f1cf4a099725fbc30192b76d4828b9e83bbdbe987583db348340b",
        "sha3Uncles": "0x1dcc4de8dec75d7aab85b567b6ccd41ad312451b948a7413f0a142fd40d49347",
        "miner": "0xb64a30399f7f6b0c154c2e7af0a3ec7b0a5b131a",
        "stateRoot": "0x1f1bfde3368b8ea28d14bffeb25136c2030a4814a026ab9b6a11fe328dd04784",
        "transactionsRoot": "0x7fb8d68f1e57a9f69176525f2808acf4b17277b35a1343e96436f5872fa0ffd5",
        "receiptsRoot": "0xda8d0a75433bfa46096678118951cb5caf36569480f156cc3b47bbe4027848c3",
        "logsBloom": "0x8130084001c005ec0a80800b884007413432eb482001121280919011ea5624b443000120d20102060011150011104808004d19120316ab41004d565e04b460511a405289c43098dd8982960cc80c403e04108e5191d63000081426c440010c20800591001a0450a0000382b21a1048925c581249004676202562581002ce0890824800069ce046144249a80900000e3292380812bb02400c01018858122105445245920244020a1a5800b830101980020300a083068444614530005c19e0e0008920d41a818028805c84c2000c01d55028c500ec878a001810c1052ace40602a9d914a412662423010d62128890c18030059100a0010ead9845304a405284401",
        "difficulty": BigNumber.from(0x0),
        "number": BigNumber.from(0x793c42),
        "gasLimit": BigNumber.from(0x1c9c380),
        "gasUsed": BigNumber.from(0xd2b68e),
        "timestamp": BigNumber.from(0x6370c398),
        "extraData": "0x496c6c756d696e61746520446d6f63726174697a6520447374726962757465",
        "mixHash": "0x24fdc1093a3a7b846c618cc0ac29b911144c8c5f001ee8ddaeaa2302a0464177",
        "nonce": "0x0000000000000000",
        "baseFeePerGas": BigNumber.from(0xb),
        "hash": "0x8a1e0269245d6f6ab7a24e194be8f79238b8ae04fd7d3fe680321ae220198060",
        "withdrawalsRoot": "0x0000000000000000000000000000000000000000000000000000000000000000"
    },
    {
        "parentHash": "0x8a1e0269245d6f6ab7a24e194be8f79238b8ae04fd7d3fe680321ae220198060",
        "sha3Uncles": "0x1dcc4de8dec75d7aab85b567b6ccd41ad312451b948a7413f0a142fd40d49347",
        "miner": "0x455e5aa18469bc6ccef49594645666c587a3a71b",
        "stateRoot": "0x868d1347838c1c63e33cf5bca660e60ba3fb8f49dd6511797c567739382091e6",
        "transactionsRoot": "0x1366723be72b648c0e9ecc8df304f65e9bcb4686aefc74c65c0866edcd983e79",
        "receiptsRoot": "0x2b5f822ad9b6aa8b7b2cc06f65ef4335db79de45c8633fab9ecfdf7075d07be4",
        "logsBloom": "0x00000802000000200000c000000000000000a00001010008080000000000040000020400402040000048000000c00a10004208100002200100040e01002000300000000004000008a0000008100000000c0000010002001000200004000000000800000002000200002110000000080000000000000002000000421000080000000000000020000000000200000100000001001000200100080108000000000406040000000000000100000080000000020004000040000040100000208000000000401200000001000040810000040000000080000000000000000002002000011000000002001000000000001100008000000a100000000000200000000040",
        "difficulty": BigNumber.from(0x0),
        "number": BigNumber.from(0x793c43),
        "gasLimit": BigNumber.from(0x1c9c380),
        "gasUsed": BigNumber.from(0xdde45),
        "timestamp": BigNumber.from(0x6370c3a4),
        "extraData": "0x",
        "mixHash": "0x995cea22db0e60a57189ad1dd099ea89cfcf3090a33079a376440b71397a26fe",
        "nonce": "0x0000000000000000",
        "baseFeePerGas": BigNumber.from(0xb),
        "hash": "0x2daa623a6839ca3121ea708e3daef79f99288ceb6fb8760ff236d2a838011746",
        "withdrawalsRoot": "0x0000000000000000000000000000000000000000000000000000000000000000"
    },
    {
        "parentHash": "0x2daa623a6839ca3121ea708e3daef79f99288ceb6fb8760ff236d2a838011746",
        "sha3Uncles": "0x1dcc4de8dec75d7aab85b567b6ccd41ad312451b948a7413f0a142fd40d49347",
        "miner": "0xc6e2459991bfe27cca6d86722f35da23a1e4cb97",
        "stateRoot": "0x057b93b711c7566651502428e5e90ec5f3e62eac64478bbba345f5e9e2ab2ba9",
        "transactionsRoot": "0x07a0e74cf1163b361d2509ee19807298b18bf6549e0ee73d024f7d53fe8421f4",
        "receiptsRoot": "0x5ebf8b4e96e49007dba244af0491598eeed83b8c19747981bcc5e5ed0ae05011",
        "logsBloom": "0x444c04500120084c1000000800d014890829e4580c4110120820480018000c14048002200a00531400301001100080012a40001440100a4d11b00a0250a4217008c05811c8208248aa0492ac0848200620100841801422403411652540522ac00a0488111a1000a43945429080c009500c000860004060b130001c1004800ca23a20889408816000480288090401e11034004818ba030105041100808ca008744613898040824295d801a8380004188208112201010206004130820a00808800084c900200812801041019404c02a4101431022882c001811200ace4c2806021199530882840c1000812008c28010231010a80002000612902402040a0040141",
        "difficulty": BigNumber.from(0x0),
        "number": BigNumber.from(0x793c44),
        "gasLimit": BigNumber.from(0x1c9c380),
        "gasUsed": BigNumber.from(0x6e6d87),
        "timestamp": BigNumber.from(0x6370c3b0),
        "extraData": "0x",
        "mixHash": "0x9bad9b14ca32d4429ac89004ccaec283ae89a6a6f432d90c492966420e5a6f42",
        "nonce": "0x0000000000000000",
        "baseFeePerGas": BigNumber.from(0xa),
        "hash": "0xeb40b43adeceefa7ad0c1386835a4f97ad5d8fa30645fb7307a770dd67f300d8",
        "withdrawalsRoot": "0x0000000000000000000000000000000000000000000000000000000000000000"
    },
    {
        "parentHash": "0xeb40b43adeceefa7ad0c1386835a4f97ad5d8fa30645fb7307a770dd67f300d8",
        "sha3Uncles": "0x1dcc4de8dec75d7aab85b567b6ccd41ad312451b948a7413f0a142fd40d49347",
        "miner": "0x455e5aa18469bc6ccef49594645666c587a3a71b",
        "stateRoot": "0x5e80f20aa0d14ba20af2808e057d9a35d0362926856e010e0e51f8f177ddb6df",
        "transactionsRoot": "0x822f5088c95f6932cd50fac81c44a35b110963f8ae5af11768f0d6513d602089",
        "receiptsRoot": "0x8f14f6184fe7f24b19c4ce2d303a3f3bab57640b7c0273ab7743ff3f7e79e4e0",
        "logsBloom": "0x000000000002400000000000040004000030a04000010002000000012610050400000020000012020090010010888400004000100210080800006801202400001000402808000010c00002080801000200400000021422c000140004000000000000000012000000000100b000044a0000000000000840000100081800080020002000020080011040000000000000200080041022400000010100080a0000000201000400010010000020e0020000000000a000004081004001000800881000084000021090208040002000040244000000020c1380000000000420020060200191010008004000004001000005201000000008000060000000003000000000",
        "difficulty": BigNumber.from(0x0),
        "number": BigNumber.from(0x793c45),
        "gasLimit": BigNumber.from(0x1c9c380),
        "gasUsed": BigNumber.from(0x1d43c7),
        "timestamp": BigNumber.from(0x6370c3bc),
        "extraData": "0x",
        "mixHash": "0x97e2ecf961134496557118d9d6397d7bd2a01046af49a2b098a2fae4b1b49606",
        "nonce": "0x0000000000000000",
        "baseFeePerGas": BigNumber.from(0xa),
        "hash": "0x6a09b86a4cec9f53c674f25b756099c385fa92d54ba2446212b3518a12116aa6",
        "withdrawalsRoot": "0x0000000000000000000000000000000000000000000000000000000000000000"
    },
    {
        "parentHash": "0x6a09b86a4cec9f53c674f25b756099c385fa92d54ba2446212b3518a12116aa6",
        "sha3Uncles": "0x1dcc4de8dec75d7aab85b567b6ccd41ad312451b948a7413f0a142fd40d49347",
        "miner": "0x0000006916a87b82333f4245046623b23794c65c",
        "stateRoot": "0x12f4845c54643ef742ec4a06adc55777d960ba7a8d957ba5e6b2ca75230b2f23",
        "transactionsRoot": "0x61a9ff125d2f64a8446fbc63baafcede726ee78602c18143806d210c33ced7bf",
        "receiptsRoot": "0x64cc0ccf7a7c5b34eec1b8e65847573374c0128d278e178c66b59c5725720b1f",
        "logsBloom": "0x00cc1810438a532c75b08118084a00310010e6608009591e069e49400c02279854861208ca001a0441600900439609cc094b091246020a4109341a10dea42af008504061ef882209ce01902d084821a6689800410016020110152220d8210880288690120a4261b148494290800528140c4a0ac001508e25a181bc10049e0ca1842309a504ba44182105ce080044a100092104917a78010515538898842005c07607080e408142905822a8700204109222302103068e8604467020e31288d1230c40fa021180580a061411431803c4517961812c8680008110607b62cac07b625df599c00842831301910878090000505eb8084a981c624310e1281081414400",
        "difficulty": BigNumber.from(0x0),
        "number": BigNumber.from(0x793c46),
        "gasLimit": BigNumber.from(0x1c9c380),
        "gasUsed": BigNumber.from(0xc5f1c7),
        "timestamp": BigNumber.from(0x6370c3c8),
        "extraData": "0x",
        "mixHash": "0xba81fb69707b2005244fdab89b4dec42d1cba31f2ac8853b848fc542bbd9c800",
        "nonce": "0x0000000000000000",
        "baseFeePerGas": BigNumber.from(0x9),
        "hash": "0x7d7c629c1d5df7bd03b97a0c2db70acf6c42d309d945c3a58357d572c5fa24df",
        "withdrawalsRoot": "0x0000000000000000000000000000000000000000000000000000000000000000"
    },
    {
        "parentHash": "0x7d7c629c1d5df7bd03b97a0c2db70acf6c42d309d945c3a58357d572c5fa24df",
        "sha3Uncles": "0x1dcc4de8dec75d7aab85b567b6ccd41ad312451b948a7413f0a142fd40d49347",
        "miner": "0x0000006916a87b82333f4245046623b23794c65c",
        "stateRoot": "0x2f35b1e3e5c76a11e0eefe5ba5d1fda780d1846c887979b4d7d1a3b8d8b546a1",
        "transactionsRoot": "0xed652fc94a226a4096ac33f64cb3c0b40a922bbab53a8d2c230cdf486be8d451",
        "receiptsRoot": "0xaeff01b53e5e422fafc0248771c2e7fdbb797adbccbe8217e1c08670e1a997e3",
        "logsBloom": "0xcc005040822084553090802820fc2285201153c52242131682940900082014dc20c61c04aa804a002808764422c51884402a0c84060e024144f45712e324c0720c5242a58e3e230cc818104e0c490426231c0059009680890c3020a5c285688200078974828480821829029880276f342c10004925c85236a100683024c3088a802ed1ed0c68c509250464188091418a89090481baf2c0254543b820c4600444020f884c418262909524b834269404a3622061025180b080090028492280d2040868d0120100080b072010619812904947a0012806408083064028525280616219b50a232162631a45100058431210104029104a001842e10242862410440042",
        "difficulty": BigNumber.from(0x0),
        "number": BigNumber.from(0x793c47),
        "gasLimit": BigNumber.from(0x1c9c380),
        "gasUsed": BigNumber.from(0x8e5478),
        "timestamp": BigNumber.from(0x6370c3d4),
        "extraData": "0x",
        "mixHash": "0x59d5cff5700f86ecb3054f27d04551eb28b9cb49680f7c3063b976d868ff29eb",
        "nonce": "0x0000000000000000",
        "baseFeePerGas": BigNumber.from(0x9),
        "hash": "0x36b10f4ade083c177769b3772362201347e972aebe5ab6108aa28eff43e85940",
        "withdrawalsRoot": "0x0000000000000000000000000000000000000000000000000000000000000000"
    }
]

let receiptProof = {
    header:  {
        "parentHash": "0x6511a56bcfed249c8e2d5834d44186f14032154c725eb0ae6b17e9d389af00f5",
        "sha3Uncles": "0x1dcc4de8dec75d7aab85b567b6ccd41ad312451b948a7413f0a142fd40d49347",
        "miner": "0x9427a30991170f917d7b83def6e44d26577871ed",
        "stateRoot": "0x5ebc307439fa6b1a9f8c6015640bc3284270c6f973b8058dc27bf4ba48d1a5ce",
        "transactionsRoot": "0x6e7650567cab6f03e91d6cd46ad7de2a8b0905a00b27c656cac36928fae5fa80",
        "receiptsRoot": "0x03ad740576271763dfda5d6bce4cb668f44b5d0592b583d2fdbe970b9eb276cc",
        "logsBloom": "0x010004000000000400000208000200010031a000000100000040000000002404000c0020000aa00400106100108000004051003001108880000002822024000008090021c4200000c3000a0ca0008002000000000004a240081020140008088020000004128410004051001000040a040000001010006020000000108080000102000000908012100402000800180004000004180301000c001142250000800002008000000000001000006082000000200002000480800042010000008082000040400214902000040130040400840001c0012c0280000110080420420060000199010000004000008000040200000001000008002000010000080210002200",
        "difficulty": BigNumber.from(0x0),
        "number": BigNumber.from(0x793c3e),
        "gasLimit": BigNumber.from(0x1c9c380),
        "gasUsed": BigNumber.from(0x3764cc),
        "timestamp": BigNumber.from(0x6370c368),
        "extraData": "0x",
        "mixHash": "0xc93623bbae775df1f5b9d46645a82b5d74dbf7ac16c14093203209b29a851f20",
        "nonce": "0x0000000000000000",
        "baseFeePerGas": BigNumber.from(0xe),
        "hash": "0xd9517961248634da8ba9e340d115f6fe09151832fbcb878f524543c29dc9f8ec",
        "withdrawalsRoot": "0x0000000000000000000000000000000000000000000000000000000000000000"
    },
    txReceipt: {
        receiptType: BigNumber.from(2),
        postStateOrStatus: "0x01",
        cumulativeGasUsed: BigNumber.from(853030),
        bloom: "0x00000000000000000000000000000000002000000000000000000000000000040000002000000000001020001000000000000000001008000000000000000000000000000000000000000200000000000000000000002000001000040000008000000000108000000000000000000000000000000000000000000000000000000000000000800000000000000000000000000000020000000000400400000000000000000000000000000020000000000000020000000000000000000000000000000000008020000000000004000000000000000080000000000420000000000000000000000000000000000000000000000000000000000000000000000000",
        logs: [
            {
                "addr": "0xc3511006C04EF1d78af4C8E0e74Ec18A6E64Ff9e",
                "topics": ["0x9dbb0e7dda3e09710ce75b801addc87cf9d9c6c581641b3275fca409ad086c62", "0x00000000000000000000000093f4c8f670578f6d10bf8b77826f04e9c3a4b9e2", "0x02778d01ac46b081e7ac3b0cb53614b4925e3adb5ec6ab7eb40bd8e615064e47"],
                "data": "0x0000000000000000000000000000000000000000000000000429d069189e0000"
            }, {
                "addr": "0xde29d060D45901Fb19ED6C6e959EB22d8626708e",
                "topics": ["0xdb80dd488acf86d17c747445b0eabb5d57c541d3bd7b6b87af987858e5066b2b", "0x000000000000000000000000c3511006c04ef1d78af4c8e0e74ec18a6e64ff9e", "0x073314940630fd6dcda0d772d4c972c4e0a9946bef9dabf4ef84eda8ef542b82", "0x02d757788a8d8d6f21d1cd40bce38a8222d70654214e96ff95d8086e684fbee5"],
                "data": "0x0000000000000000000000000000000000000000000000000000000000000060000000000000000000000000000000000000000000000000000000000004c4170000000000000000000000000000000000000000000000000000000000000000000000000000000000000000000000000000000000000000000000000000000302778d01ac46b081e7ac3b0cb53614b4925e3adb5ec6ab7eb40bd8e615064e470000000000000000000000000000000000000000000000000429d069189e00000000000000000000000000000000000000000000000000000000000000000000"
            },
        ]
    },
    keyIndex: "0x0103",
    proof: [
        '0xf891a074654fba97d83670520e4e54683bcd3afbfa20742acf0bc94916582df9b1eaa9a02aa47f0d484f2ff7b97cf544ce84ed5bb68db970d3c5bd0680d142069ef0d45ba02ca70a54ac0018d930413e4af9b549a801b8ecf3230aba4de397a20404e9141c8080808080a01e44490691f53f3de1413d47a7db3570c621c481816b0f94805c914c398ef8ed8080808080808080',
        '0xf90211a0f84cf80ec85666982d618d60961eb864c8bdfcebe56c8f0b772fcf9c97373fdfa083e5b79ab069cb38d97ffa1cc6bae57080971ed6a27bb94ebf0a5c46cd379577a06306af2bc061298e86bf2c5e32aa7f6fa27567fca6269a520cedf0f9a5780bd6a09fbc6e09b3364d24eab44b292d8635168c3a16c28bf5888124cefa5e14a1e23ea02c2f59aeef516d45811ac3bc89d318c3ca4fcefaabefd3131eddbdb95fb68b78a0ddd505432a46d199b30bdde73ff6b8fdac7e00d5d996cc18074b6ce2ef58874da08c155d0e5e3b6eb2c776a84bb8e060802866285f5ded9ee33098b0ea4894a596a0bb45f1da1ca7378583574bd29de91ccb4eaeb730236e6f3ef1eb8f5c6b3c6faaa09b5a73070350cccc4d0da637c42c81fec63861693a522014fcdbd85fe5de27cba05f60c9a17d3d2975972aa1b844d1e4cda203bef645a0e246a1afb5f6f560bc80a04af2e03b087d810e0feffa03e661a281996ff48b2331154a3f6b390ab8d6c9f8a026654e067145eacf7ceebef44ad6336cb20d86a929fb2dfe46f0740ee3a1b917a01122f4853ab32dcb30ddc7218c62a310b45aee840136fa80825b33ef2acfc65ea03afc0dc6b212c01533d1a745b7ed3163f5f7acdcfc4618c8edaf6e8cd95db217a08079c7cb7578a19da5c0d1e456cce944c420b375a98a53e2d442a2b5b7710f8aa089130f7e59e664141c56679c2d6fc2cbdfd57740b8ff09c848324bc0bb62c38a80',
        '0xf9033020b9032c02f9032801830d0426b9010000000000000000000000000000000000002000000000000000000000000000040000002000000000001020001000000000000000001008000000000000000000000000000000000000000200000000000000000000002000001000040000008000000000108000000000000000000000000000000000000000000000000000000000000000800000000000000000000000000000020000000000400400000000000000000000000000000020000000000000020000000000000000000000000000000000008020000000000004000000000000000080000000000420000000000000000000000000000000000000000000000000000000000000000000000000f9021df89b94c3511006c04ef1d78af4c8e0e74ec18a6e64ff9ef863a09dbb0e7dda3e09710ce75b801addc87cf9d9c6c581641b3275fca409ad086c62a000000000000000000000000093f4c8f670578f6d10bf8b77826f04e9c3a4b9e2a002778d01ac46b081e7ac3b0cb53614b4925e3adb5ec6ab7eb40bd8e615064e47a00000000000000000000000000000000000000000000000000429d069189e0000f9017d94de29d060d45901fb19ed6c6e959eb22d8626708ef884a0db80dd488acf86d17c747445b0eabb5d57c541d3bd7b6b87af987858e5066b2ba0000000000000000000000000c3511006c04ef1d78af4c8e0e74ec18a6e64ff9ea0073314940630fd6dcda0d772d4c972c4e0a9946bef9dabf4ef84eda8ef542b82a002d757788a8d8d6f21d1cd40bce38a8222d70654214e96ff95d8086e684fbee5b8e00000000000000000000000000000000000000000000000000000000000000060000000000000000000000000000000000000000000000000000000000004c4170000000000000000000000000000000000000000000000000000000000000000000000000000000000000000000000000000000000000000000000000000000302778d01ac46b081e7ac3b0cb53614b4925e3adb5ec6ab7eb40bd8e615064e470000000000000000000000000000000000000000000000000429d069189e00000000000000000000000000000000000000000000000000000000000000000000'
    ]
}



module.exports = {
    headers,
    receiptProof,
};