{
    "187133": {
        "header": {
            "parentHash": "0x88c93fd6935049dbe8073f9bfc2ab31963e8b138639e9e5f98d1334d5581e393",
            "coinbase": "0xb243f68e8e3245464d21b79c7ceae347ecc08ea6",
            "root": "0xf12e64aaacba224a2b5f13a5a92704b634165e73cf17f899daa9c9f76e3e4de3",
            "txHash": "0xf74da5fa90995d3d675b0ffbe5fd710099a94590a53b4d1cb6e1ba67832e4e6d",
            "receiptHash": "0xf78dfb743fbd92ade140711c8bbc542b5e307f0ab7984eff35d751969fe57efa",
            "bloom": "0x00000000000000000000000000000000000000000000000000000000000000000000000000000000000000000000000000000000000000000000000000000000000000000000000000000000000000000000000000000000000000000000000000000000000000000000000000000000000000000000000000000000000000000000000000000000000000000000000000000000000000000000000000000000000000000000000000000000000000000000000000000000000000000000000000000000000000000000000000000000000000000000000000000000000000000000000000000000000000000000000000000000000000000000000000000000",
            "number": "0x2dafd",
            "gasLimit": "0x7a1200",
            "gasUsed": "0x5208",
            "time": "0x6343d6ac",
            "extra": "0xd7820606846765746888676f312e31352e36856c696e75780000000000000000f8d3c0c0c080b841bf42ea88ce3af05a67b59861dd75c77883385310e60f9340c5b4c5188ffc224a476df1551acabec574d1bbf513bab5294e28938966f9436425c2b3d808c282d100f8440db84012e8205495b31f9d59692e5ec520daabbf28ccaaf48c566c58a4f7c8c9dff95101ed64e39778aa4819b3889374a455965e471039a43d586d457e5e6d62c3cc2480f8440fb84011c4d174a46c7ce5c9fd78dc893da6949ef9fcec42c70f76f07706a612b64e681719fe5a818c75e4cc82893c30a6e8c63bbcbc5d5370bcc6d90a9ef6d691c38080",
            "minDigest": "0x0000000000000000000000000000000000000000000000000000000000000000",
            "nonce": "0x0000000000000000",
            "baseFee": "0x174876e800"
        },
        "agg_pk": {
            "xr": "0x0828c2278ae207b748700324fca1d766ca80c694bcdb7ac1469646e95b595609",
            "xi": "0x173740e787cf48a62d209cc28726f6f61a4f24d5d937c64f5c464635f9606c25",
            "yr": "0x24fd5c0517641a08caa9415b7145f1a88441295bf8ce94498686a6953866545e",
            "yi": "0x296e6cfd1d095afc32cc90ed7d6e83f2453f37218c2c9e619411c398089b7907"
        },
        "receipt": {
            "receipt_type": "2",
            "post_state_or_status": "0x01",
            "cumulative_gas_used": "21000",
            "bloom": "0x00000000000000000000000000000000000000000000000000000000000000000000000000000000000000000000000000000000000000000000000000000000000000000000000000000000000000000000000000000000000000000000000000000000000000000000000000000000000000000000000000000000000000000000000000000000000000000000000000000000000000000000000000000000000000000000000000000000000000000000000000000000000000000000000000000000000000000000000000000000000000000000000000000000000000000000000000000000000000000000000000000000000000000000000000000000",
            "logs": []
        },
        "key_index": "0x80",
        "proof": [
            "0xf90112822080b9010c02f9010801825208b9010000000000000000000000000000000000000000000000000000000000000000000000000000000000000000000000000000000000000000000000000000000000000000000000000000000000000000000000000000000000000000000000000000000000000000000000000000000000000000000000000000000000000000000000000000000000000000000000000000000000000000000000000000000000000000000000000000000000000000000000000000000000000000000000000000000000000000000000000000000000000000000000000000000000000000000000000000000000000000000000000000000000000000000000000000000000c0"
        ]
    },
    "202554": {
        "header": {
            "parentHash": "0xf14ed8a18cc240c125f1ee3ac7ac36dbc229e1bd70ad322bd3945916866ba541",
            "coinbase": "0xb47adf1e504601ff7682b68ba7990410b92cd958",
            "root": "0xde57f453754e75b771c88b5a8da299891fa15787185404f03248f5a6d14a08cd",
            "txHash": "0x8c6f9668a5aee283831b37791a9efbbac22c44a14233fc85e100a78d74b29040",
            "receiptHash": "0xe5340ef500bdceb836f626b861fa625dba3a29377ac62f03f8a44747788e22b3",
            "bloom": "0x00000000000000000000000000000000000000000000000000000000000000000000000000000000000000000000000000000000000000000000000000000000000000000000000000000000000000000000000000000000000000000000000000000000000000000000000000000000000000000000000000000000000000000000000000000000000000000000000000000000000000000000000000000000000000000000000000000000000000000000000000000000000000000000000000000000000000000000000000000000000000000000000000000000000000000000000000000000000000000000000000000000000000000000000000000000",
            "number": "0x3173a",
            "gasLimit": "0x7a1200",
            "gasUsed": "0x5bec",
            "time": "0x63450583",
            "extra": "0xd7820606846765746888676f312e31352e36856c696e75780000000000000000f8d3c0c0c080b8419954e8876f0ba24a04aa22f9f41b6b13c226c2cb402d230b26cf2112c5d00def67cec38b7e0d8aa3594f2d0c7fb1f0791efda410a46675905e6384e1d7f7fab500f8440fb8403005f03aa69b1819faaaba9f9f156edf5177475effa717ec1e91a7b84163de5c2785085ae7805b50e7df0fe81a1c8d2c9e859e6f2eb834fef30158b8192a5dbf80f8440fb84024212f455952a3cebb2c9c185ecc60a6cbcbc4ea7eaf2a14e2bb947b8c0194c402ffef414bca17f4520a0215ec9eb891582985863304155138b47aed64ad5a1501",
            "minDigest": "0x0000000000000000000000000000000000000000000000000000000000000000",
            "nonce": "0x0000000000000000",
            "baseFee": "0x174876e800"
        },
        "agg_pk": {
            "xr": "0x0b25e8d2931c6e9c0cfa71e8e2006a1050ef76bef6bf31c463fdffab80241312",
            "xi": "0x1ebc2a540b5401febadc8aff046e811c5110a4cc0fa7751a424ef64975cd82de",
            "yr": "0x1e9346af40f800af0a32e57d271a4d7d95038d01fe00a5fb0a3424f041d9bd6c",
            "yi": "0x1d01a4ae519f2daef464e20e0a8f908a16df6b6bda3dc350cf5eef24b173f530"
        },
        "receipt": {
            "receipt_type": "0",
            "post_state_or_status": "0x01",
            "cumulative_gas_used": "23532",
            "bloom": "0x00000000000000000000000000000000000000000000000000000000000000000000000000000000000000000000000000000000000000000000000000000000000000000000000000000000000000000000000000000000000000000000000000000000000000000000000000000000000000000000000000000000000000000000000000000000000000000000000000000000000000000000000000000000000000000000000000000000000000000000000000000000000000000000000000000000000000000000000000000000000000000000000000000000000000000000000000000000000000000000000000000000000000000000000000000000",
            "logs": []
        },
        "key_index": "0x80",
        "proof": [
            "0xf90111822080b9010bf9010801825becb9010000000000000000000000000000000000000000000000000000000000000000000000000000000000000000000000000000000000000000000000000000000000000000000000000000000000000000000000000000000000000000000000000000000000000000000000000000000000000000000000000000000000000000000000000000000000000000000000000000000000000000000000000000000000000000000000000000000000000000000000000000000000000000000000000000000000000000000000000000000000000000000000000000000000000000000000000000000000000000000000000000000000000000000000000000000000c0"
        ]
    },
    "205002": {
        "header": {
            "parentHash": "0xe1ba159b9f98993c1a9f79ac127532e5a06af86b27f53b9e040f521adf691f9a",
            "coinbase": "0x053af2b1ccbacba47c659b977e93571c89c49654",
            "root": "0xca5f74b6ca894763b4307792e1bd692b224d33e7c3bd5c4fb4575ade1eb9175b",
            "txHash": "0xf3b907ae88fa841faf207d84c5cbc158b0c3333ff31da9979b899ea0a162567d",
            "receiptHash": "0x92c2ca6273a87a4eeb651a225961bea373b30f44904c0ef7044317020e34c349",
            "bloom": "0x80000000000000000400000000000000000000000000000000000000000000000000000000000000000000000000000000000000000000000000000000000400000000000000000000000000000000000001000004000000000000000800000000000000000000000000000000000000000000000000000000000000000000000000000000000000000000000000000000000000000000000000000000000000000000000000001000000000000000000000000000000100000000000000000000000000000000000000000000000002000400000000000000000000000000000000000000000040000000000000000400000000000000000000000000000000",
            "number": "0x320ca",
            "gasLimit": "0x7a1200",
            "gasUsed": "0x1152c",
            "time": "0x63453811",
            "extra": "0xd7820606846765746888676f312e31352e36856c696e75780000000000000000f8d3c0c0c080b8415528a3ee1db0a21ca707699945885aa3651eda5cac46fb0bdd237222ba1fa4757992f7bd272e59e9dde44e6babd1584bc838056c5977cbad466d68595906989701f8440eb8401afcfd647a0ff64b85a84ad9eff9e0a0f6aced3b7024bf0d86cce5a248b38721115d47ce2252abc32922f497dca643fc773a0155b7c2d5627b34f590214b5db880f8440fb8400009b213f38e220f39a2239ced57d84452e1c02b40f620dddd16d94fe60e37c61ae29b27dde1fc66653d7460dcb2d530f79ddd1656c851a821c8ceaa36c60bc880",
            "minDigest": "0x0000000000000000000000000000000000000000000000000000000000000000",
            "nonce": "0x0000000000000000",
            "baseFee": "0x174876e800"
        },
        "agg_pk": {
            "xr": "0x0bc8dcca7a4802a6e69e89070c4df6a07af1714b393759e28aa1b529127acd55",
            "xi": "0x2a95f21571f5fb4c7c3b0b4278b7c1dd09fffeca2fd9f26c6ce44dd8ba2b524c",
            "yr": "0x1f763a5360dbb6538be94e2e2352e068110cb5597994777def42dacf10f5e03d",
            "yi": "0x1bba02efca561835e6c3b03e9d46574aff1dfe21ce7372ae8f82fac2211e39c8"
        },
        "receipt": {
            "receipt_type": "0",
            "post_state_or_status": "0x01",
            "cumulative_gas_used": "70956",
            "bloom": "0x80000000000000000400000000000000000000000000000000000000000000000000000000000000000000000000000000000000000000000000000000000400000000000000000000000000000000000001000004000000000000000800000000000000000000000000000000000000000000000000000000000000000000000000000000000000000000000000000000000000000000000000000000000000000000000000001000000000000000000000000000000100000000000000000000000000000000000000000000000002000400000000000000000000000000000000000000000040000000000000000400000000000000000000000000000000",
            "logs": [
                {
                    "address": "0x000068656164657273746f726541646472657373",
                    "topics": [
                        "0x34a75be8a536c66a8f450ebf1377a59caebe86a32a1e3c3f6f3ae1eeff21854e",
                        "0x000000000000000000000000e0dc8d7f134d0a79019bef9c2fd4b2013a64fcd6",
                        "0x0000000000000000000000000000000000000000000000000000000000092cf6"
                    ],
                    "data": "0x"
                }
            ]
        },
        "key_index": "0x80",
        "proof": [
            "0xf90190822080b9018af90187018301152cb9010080000000000000000400000000000000000000000000000000000000000000000000000000000000000000000000000000000000000000000000000000000400000000000000000000000000000000000001000004000000000000000800000000000000000000000000000000000000000000000000000000000000000000000000000000000000000000000000000000000000000000000000000000000000000000000000001000000000000000000000000000000100000000000000000000000000000000000000000000000002000400000000000000000000000000000000000000000040000000000000000400000000000000000000000000000000f87df87b94000068656164657273746f726541646472657373f863a034a75be8a536c66a8f450ebf1377a59caebe86a32a1e3c3f6f3ae1eeff21854ea0000000000000000000000000e0dc8d7f134d0a79019bef9c2fd4b2013a64fcd6a00000000000000000000000000000000000000000000000000000000000092cf680"
        ]
    }
}