{
  "2568": {
    "header": {
      "parentHash": "0xc83b789a9f40b5f925857ed33eaf17e0d9a3c962ef24ddafd6fec4a38734d954",
      "coinbase": "0x7A3a26123DBD9CFeFc1725fe7779580B987251Cb",
      "root": "0x406a59a280204d27a2be0a8ce5cb9a9fedc3ce73b1893e55e0e411434ac98503",
      "txHash": "0x44e06340ca4dd9bf88bf19b579a3c80796531dd9575619cd465bc61f6340c042",
      "receiptHash": "0x3d49a800c921ce70f4ddf72112dac99d0597891c99930c2a5abb6f1f461761ab",
      "bloom": "0x00000000000000000000000000000000000000000000000000000000000000000000000000000000000000000000000000000000000000000000000000000000000000000000004000000000000000000000000400000000000000000800000000000000000000000000000000000001000000000000000000000000000000000000000000002000000000000000000000000200000000000000000020002000000000000000000000000000000000000000000000004000100000000000000000000000000000000000000000000000000000000000000000000000000000000000000000000000000000000000000000000000000000000000000200000400",
      "number": "0xa08",
      "gasLimit": "0x7a1200",
      "gasUsed": "0x6070",
      "time": "0x62a30300",
      "extra": "0xd7820304846765746888676f312e31352e36856c696e75780000000000000000f8d3c0c0c080b8417ee63030e64a5e3b7afe6fca353d6bb685df52c8730f06a6beb34a59674892d4518d207cea8618b3f077a95feeb26e44ac04e88c96a9497f48aec860f76e0e2700f84407b8401e76eff6924a53044bceee48803515d89d1fd7a3798107cad837e3b9be7b6b1417224705f7ec15d5b8a31e3446f42e0c4b70643b8d417a55ffac0aaf48ef15f480f8440fb840019c1685fe18fc0ebc4fb1dfc4c4a68d6da02a2b2c4079944cebeb65df84aaab04f87ca028ae3eaaa941a8009057190957a0dc20cbc659933fcf37ccd47efd7680",
      "minDigest": "0x0000000000000000000000000000000000000000000000000000000000000000",
      "nonce": "0x0000000000000000",
      "baseFee": "0x174876e800"
    },
    "agg_pk": {
      "xr": "0x1e703741166519a7e278c11a8dc96ef9535dec8f4b0ab2b503f2b4d507198afc",
      "xi": "0x08ccd7feb39031341784777bf41ddcbac670e60ee2b466e159e18af9d0b0f565",
      "yr": "0x21a73b10c7523524cbc37d791c730ce12b5fe7c1031da4d899bffad808b7b305",
      "yi": "0x0667f9dad6aafa5745043addf652ea155885c7b7e88dca296b6e2cc96c475098"
    },
    "receipt": {
      "receipt_type": 2,
      "post_state_or_status": "0x01",
      "cumulative_gas_used": 24688,
      "bloom": "0x00000000000000000000000000000000000000000000000000000000000000000000000000000000000000000000000000000000000000000000000000000000000000000000004000000000000000000000000400000000000000000800000000000000000000000000000000000001000000000000000000000000000000000000000000002000000000000000000000000200000000000000000020002000000000000000000000000000000000000000000000004000100000000000000000000000000000000000000000000000000000000000000000000000000000000000000000000000000000000000000000000000000000000000000200000400",
      "logs": [
        {
          "address": "0xca3D958f3c164353a27633d3a4b93Ccda969f2AF",
          "topics": [
            "0x4fed921c0dd94ef52307d954f2459b84c049f5c348455dcdd9d1b5d653f9c94c",
            "0x0000000000000000000000005907d676af9c39ed62d49de8099d8eb8af1f654b",
            "0x0000000000000000000000005907d676af9c39ed62d49de8099d8eb8af1f654b",
            "0x0000000000000000000000000000000000000000000000000000000000000078"
          ],
          "data": "0x"
        }
      ]
    },
    "key_index": "0x80",
    "proof": [
      "0xf901b1822080b901ab02f901a701826070b9010000000000000000000000000000000000000000000000000000000000000000000000000000000000000000000000000000000000000000000000000000000000000000000000004000000000000000000000000400000000000000000800000000000000000000000000000000000001000000000000000000000000000000000000000000002000000000000000000000000200000000000000000020002000000000000000000000000000000000000000000000004000100000000000000000000000000000000000000000000000000000000000000000000000000000000000000000000000000000000000000000000000000000000000000200000400f89ef89c94ca3d958f3c164353a27633d3a4b93ccda969f2aff884a04fed921c0dd94ef52307d954f2459b84c049f5c348455dcdd9d1b5d653f9c94ca00000000000000000000000005907d676af9c39ed62d49de8099d8eb8af1f654ba00000000000000000000000005907d676af9c39ed62d49de8099d8eb8af1f654ba0000000000000000000000000000000000000000000000000000000000000007880"
    ]
  },
  "4108": {
    "header": {
      "parentHash": "0xab4dfa54864233bf27ad17e72574cba1853503ce41213b4c8936af9da21d9afe",
      "coinbase": "0x7A3a26123DBD9CFeFc1725fe7779580B987251Cb",
      "root": "0x99182ec638f7ecb4368bb3ec8c658b5fddceb3e539e6c2ccc10b77b795fbd63e",
      "txHash": "0xde4fe1a17334592c4fff2064ff5f9d21f4c54fab679edc0e70d642f73c285415",
      "receiptHash": "0x80deede08a448289c21194361e1021cbb78807fc3595a5893c85b00a1577fc1f",
      "bloom": "0x00000000000000000000000000000000000000000000000000000000000000000000000000000000000000800000002000000000000000000100000000000000000000000000000000000000000000000000000000000000000000000000000000000000000020000000000000000080000000000000000000000000000000000000000000000000000000000000000000000000000000800000000000002000000000000000000000000000000000000000000000000040000000000000000000000000000000000000000000000000000000000000000000000000000000000008000000000000000000000000000000000000000000020000000200000400",
      "number": "0x100c",
      "gasLimit": "0x7a1200",
      "gasUsed": "0x60a0",
      "time": "0x62a32114",
      "extra": "0xd7820304846765746888676f312e31352e36856c696e75780000000000000000f8d3c0c0c080b841a51fee8bcf4573f94829b7b4abd2215912e4d0dbac6a1c8e718859c67cde7c825bae70e0bf6bdfa4f22091364933947a64af354b5879a86b8507361ce1d15a2300f8440eb8402cda5864cb478bf86cf3b868bbc527f4352e78b0c15f7b38f6d37d89c0e9e31d275cb0fe94778dfda22ddd743e44b52bc9f599a28dea02ebe8a6f2b256574c4b80f8440fb840279d8a5a49ac34cc45665437330f4befc1013cd496961d526c86516918b0f4192917e710095de38caf927caf05087846589d78232d87c1cbca6fbc1b7e8f226f80",
      "minDigest": "0x0000000000000000000000000000000000000000000000000000000000000000",
      "nonce": "0x0000000000000000",
      "baseFee": "0x174876e800"
    },
    "agg_pk": {
      "xr": "0x152bb6d9b41151a2f6774afe12450ae2760f571009246a1408f9e0e5012a18d7",
      "xi": "0x028120ae77c88dfa049c595d69f6186be11a2187cebbf04f2a1d2fde8691dfb4",
      "yr": "0x1419a80b2f032c886f02b0a0565e90746a8d5921ea5b755f887737b20f687246",
      "yi": "0x13a77b0eb9ddf3e6b6d2fa165a02695015a29f26b6298ceb2bdcd73f991e7c92"
    },
    "receipt": {
      "receipt_type": 2,
      "post_state_or_status": "0x01",
      "cumulative_gas_used": 24736,
      "bloom": "0x00000000000000000000000000000000000000000000000000000000000000000000000000000000000000800000002000000000000000000100000000000000000000000000000000000000000000000000000000000000000000000000000000000000000020000000000000000080000000000000000000000000000000000000000000000000000000000000000000000000000000800000000000002000000000000000000000000000000000000000000000000040000000000000000000000000000000000000000000000000000000000000000000000000000000000008000000000000000000000000000000000000000000020000000200000400",
      "logs": [
        {
          "address": "0xC63a49Ce5A2E6996f57FA9fDBe53203b8e2cbB4F",
          "topics": [
            "0x4fed921c0dd94ef52307d954f2459b84c049f5c348455dcdd9d1b5d653f9c94c",
            "0x000000000000000000000000f855a761f9182c4b22a04753681a1f6324ed3449",
            "0x0000000000000000000000006621f2b6da2bed64b5ffbd6c5b2138547f44c8f9"
          ],
          "data": "0x000000000000000000000000000000000000000000000000000000000000029a"
        }
      ]
    },
    "key_index": "0x80",
    "proof": [
      "0xf901b0822080b901aa02f901a6018260a0b9010000000000000000000000000000000000000000000000000000000000000000000000000000000000000000800000002000000000000000000100000000000000000000000000000000000000000000000000000000000000000000000000000000000000000020000000000000000080000000000000000000000000000000000000000000000000000000000000000000000000000000800000000000002000000000000000000000000000000000000000000000000040000000000000000000000000000000000000000000000000000000000000000000000000000000000008000000000000000000000000000000000000000000020000000200000400f89df89b94c63a49ce5a2e6996f57fa9fdbe53203b8e2cbb4ff863a04fed921c0dd94ef52307d954f2459b84c049f5c348455dcdd9d1b5d653f9c94ca0000000000000000000000000f855a761f9182c4b22a04753681a1f6324ed3449a00000000000000000000000006621f2b6da2bed64b5ffbd6c5b2138547f44c8f9a0000000000000000000000000000000000000000000000000000000000000029a"
    ]
  },
  "202351": {
    "header": {
      "parentHash": "0x2965252c2c4446404c1e9771a5f8565b1379f54e661d9c79bae434637f36cf7b",
      "coinbase": "0x4cA1A81e4c46B90eC52371c063d5721dF61E7e12",
      "root": "0xfeba5e8fdfd54e6d9f643c689a24e6890dbf6c0c72d24ebe39163ea0428454de",
      "txHash": "0x408fced2fad3a6e22d38742d7ba3f58f17a00857381ce8a2eca3426463c62379",
      "receiptHash": "0xdbe7d7becd13b7fd019d002a0344435d1ce51b46d383a12b28bd21a91c2bfb0f",
      "bloom": "0x00000000000000000000000000000000002000000000000000000000000000000000000000000004000000800000002000000000020000000000000000000000000000000000000000000000000000000000000000000000000000000000000000000000000000000000000000000480000000000000000000000000000000000000000040000000000000000000000000000000000000000000000000000000000004000000000000000000000000000000000000000000000000000000040000000000000000000000000000000000000000000000000000000000000000000000000000000000000000010000000000000080000000000000000000000000",
      "number": "0x3166f",
      "gasLimit": "0x7a1200",
      "gasUsed": "0x6dc5",
      "time": "0x62b28364",
      "extra": "0xd7820304846765746888676f312e31352e36856c696e75780000000000000000f8d3c0c0c080b841cde5532f220016ac44fb2895083fe9a6c0f85d87f001de96b3cfc4a82777190930765fe5d1ca972defa872cc2b76d046b476fcfd2784896f4bf4a31775f87dff01f84417b84012be234e58f2d967fe4fbbb1cd50dd209e60bc6befd3cee9cac2c9c219d3717b09f51008ec6b517adf6e9db5a60379b6fce926e99d4b3d628cf0f25c2d55b1a380f8441fb84020e120819c8e158ead4af0db49c1d658c4edbc4ee5e0105a3d65576cd00de2f80c88dbdb28e6e0e3d7b95c0a91623359e013cb8dd90d5efa45fd38fdcfea8f4680",
      "minDigest": "0x0000000000000000000000000000000000000000000000000000000000000000",
      "nonce": "0x0000000000000000",
      "baseFee": "0x174876e800"
    },
    "agg_pk": {
      "xr": "0x1d59a279431cfd94fb0de95148752214b8be3964a9ae47b9881d14582a53f51a",
      "xi": "0x1a434b1ade03d8fce9894dafc362dbd2f21b6711733ac15fd18eb414d2c4c202",
      "yr": "0x19117a8a33d4229f1a5bb2b730b134a36811117e6ecd484aa77e16dc3a944400",
      "yi": "0x25ff8b6cf1af01bee31a546d596879f34f3fdcb03ef519fff4f4839ebec8b57d"
    },
    "receipt": {
      "receipt_type": 2,
      "post_state_or_status": "0x01",
      "cumulative_gas_used": 28101,
      "bloom": "0x00000000000000000000000000000000002000000000000000000000000000000000000000000004000000800000002000000000020000000000000000000000000000000000000000000000000000000000000000000000000000000000000000000000000000000000000000000480000000000000000000000000000000000000000040000000000000000000000000000000000000000000000000000000000004000000000000000000000000000000000000000000000000000000040000000000000000000000000000000000000000000000000000000000000000000000000000000000000000010000000000000080000000000000000000000000",
      "logs": [
        {
          "address": "0xf03aDB732FBa8Fca38C00253B1A1aa72CCA026E6",
          "topics": [
            "0xcfdd266a10c21b3f2a2da4a807706d3f3825d37ca51d341eef4dce804212a8a3",
            "0x0000000000000000000000005b38da6a701c568545dcfcb03fcb875f56beddc4",
            "0x000000000000000000000000f855a761f9182c4b22a04753681a1f6324ed3449",
            "0x000000000000000000000000f855a761f9182c4b22a04753681a1f6324ed3449"
          ],
          "data": "0xa3ced550d69eca79bb588a2a58a4ae58fc6f9f212e3cd678b37a0cc9f8033d2e000000000000000000000000000000000000000000000000000000000000006400000000000000000000000000000000000000000000000000000000000071a00000000000000000000000000000000000000000000000000000000000000003"
        }
      ]
    },
    "key_index": "0x80",
    "proof": [
      "0xf90234822080b9022e02f9022a01826dc5b9010000000000000000000000000000000000002000000000000000000000000000000000000000000004000000800000002000000000020000000000000000000000000000000000000000000000000000000000000000000000000000000000000000000000000000000000000000000480000000000000000000000000000000000000000040000000000000000000000000000000000000000000000000000000000004000000000000000000000000000000000000000000000000000000040000000000000000000000000000000000000000000000000000000000000000000000000000000000000000010000000000000080000000000000000000000000f90120f9011d94f03adb732fba8fca38c00253b1a1aa72cca026e6f884a0cfdd266a10c21b3f2a2da4a807706d3f3825d37ca51d341eef4dce804212a8a3a00000000000000000000000005b38da6a701c568545dcfcb03fcb875f56beddc4a0000000000000000000000000f855a761f9182c4b22a04753681a1f6324ed3449a0000000000000000000000000f855a761f9182c4b22a04753681a1f6324ed3449b880a3ced550d69eca79bb588a2a58a4ae58fc6f9f212e3cd678b37a0cc9f8033d2e000000000000000000000000000000000000000000000000000000000000006400000000000000000000000000000000000000000000000000000000000071a00000000000000000000000000000000000000000000000000000000000000003"
    ]
  },
  "449308": {
    "agg_pk": {
      "xi": "0x10094c6ceb607d2d259f36f9c70752c12c48c0563218ef41e88b11e4855ee4ae",
      "xr": "0x17da81082948ac895cb6c05cb0c7e0242e352ad7be0c211620dcee6057b33d41",
      "yi": "0x23ba6d4ff86d101855284f1a070d1c958216506f1c40ef04addc183aa8babcd3",
      "yr": "0x274244d66f64ac713a36fd16e900fcb52de513ebbcb4851e43d527a2ef95ceb5"
    },
    "header": {
      "parentHash": "0xdb9b53a27b0c2d6557cefd08de67acb3bc9da5bd4969057c955111437a3b81e3",
      "coinbase": "0x7607c9cdd733d8cda0a644839ec2bac5fa180ed4",
      "root": "0xa4aea9d8aab6e127baef96d2f24676faece334ccb161bd6917ae415480c6f162",
      "txHash": "0x2b72b97b010837e3308b3ce9e5b5d1cfb9849ab9c00cce0ab84bb7eec69c77c1",
      "receiptHash": "0x6d9a0c1efbdfc200789ad04d7fc9373d330ea2ca76b8a8e0a8cc7c4b85510344",
      "bloom": "0x00000020000000010000000000010000000000000000000000000000000000000000000000000000000000008000000000000000000000000000000000000000000000000000000000080000000000000000000000000000000000000000000000000000000000000000000000000000000000002000000000000000000000000000000000000000000000000000000000000010000000000000000000000000000000000000000000000000000000000000000000000080000000000000000008000000000000000000000000000000000400000000000000000000000000000000000002000000000000000000000000000000000004000000000000000000",
      "number": "0x6db1c",
      "gasLimit": "0x7a1200",
      "gasUsed": "0x7f80",
      "time": "0x62c55aca",
      "extra": "0xd7820304846765746888676f312e31352e36856c696e75780000000000000000f8d3c0c0c080b841609367268d626e0c50f676231c1a98d914d3593d4b72f2d0df9f13d9161fbf5c7dae7f66ae3a83a44fc014f2d309f82ae22235c318493ac6b2c76ccb4ea8d02101f8440fb84026026dfb7545a214505bdc7ff655326b64b5c168e66bdef2f9a0bacd28bc77b91442a35027c5270f672e4ffd1a1c06422c8f0abb33c733c35e83668c4a703da280f8441fb840247dc153dbdd5c36be49582d6fdb6d765af028e777ce47d050df050aab4b04120cec662ad32938eeec8c1310262ef62cb3fe6e6e4f5b1dc5b85b90944cca247280",
      "minDigest": "0x0000000000000000000000000000000000000000000000000000000000000000",
      "nonce": "0x0000000000000000",
      "baseFee": "0x174876e800",
      "hash": "0x8463e33b0f082e535a93583deaf56e44384001369fb5c6cc2e5d8e50be2eb963"
    },
    "key_index": "0x80",
    "proof": [
      "0xf902d5822080b902cf02f902cb01827f80b9010000000020000000010000000000010000000000000000000000000000000000000000000000000000000000008000000000000000000000000000000000000000000000000000000000080000000000000000000000000000000000000000000000000000000000000000000000000000000000002000000000000000000000000000000000000000000000000000000000000010000000000000000000000000000000000000000000000000000000000000000000000080000000000000000008000000000000000000000000000000000400000000000000000000000000000000000002000000000000000000000000000000000004000000000000000000f901c1f901be94e2123fa0c94db1e5baeff348c0e7aecd15a11b45f884a01d7c4ab437b83807c25950ac63192692227b29e3205a809db6a4c3841836eb02a0000000000000000000000000078f684c7d3bf78bdbe8bef93e56998442dc8099a0000000000000000000000000078f684c7d3bf78bdbe8bef93e56998442dc8099a0b2c235986cf359714f68eb1bd939adefcfb0bb2447c2c6473e569945f897761fb9012000000000000000000000000000000000000000000000000000000000000071a0000000000000000000000000000000000000000000000000000000004e45415300000000000000000000000000000000000000000000000000000000000000a0000000000000000000000000000000000000000000000000000000000000006400000000000000000000000000000000000000000000000000000000000000e000000000000000000000000000000000000000000000000000000000000000206feacd7ddb1bf2511b4ea0e83d89be0af295d52adb965883283d6835b15e0cd300000000000000000000000000000000000000000000000000000000000000206feacd7ddb1bf2511b4ea0e83d89be0af295d52adb965883283d6835b15e0cd3"
    ],
    "receipt": {
      "receipt_type": 2,
      "post_state_or_status": "0x01",
      "cumulative_gas_used": 32640,
      "bloom": "0x00000020000000010000000000010000000000000000000000000000000000000000000000000000000000008000000000000000000000000000000000000000000000000000000000080000000000000000000000000000000000000000000000000000000000000000000000000000000000002000000000000000000000000000000000000000000000000000000000000010000000000000000000000000000000000000000000000000000000000000000000000080000000000000000008000000000000000000000000000000000400000000000000000000000000000000000002000000000000000000000000000000000004000000000000000000",
      "logs": [
        {
          "address": "0xe2123fa0c94db1e5baeff348c0e7aecd15a11b45",
          "topics": [
            "0x1d7c4ab437b83807c25950ac63192692227b29e3205a809db6a4c3841836eb02",
            "0x000000000000000000000000078f684c7d3bf78bdbe8bef93e56998442dc8099",
            "0x000000000000000000000000078f684c7d3bf78bdbe8bef93e56998442dc8099",
            "0xb2c235986cf359714f68eb1bd939adefcfb0bb2447c2c6473e569945f897761f"
          ],
          "data": "0x00000000000000000000000000000000000000000000000000000000000071a0000000000000000000000000000000000000000000000000000000004e45415300000000000000000000000000000000000000000000000000000000000000a0000000000000000000000000000000000000000000000000000000000000006400000000000000000000000000000000000000000000000000000000000000e000000000000000000000000000000000000000000000000000000000000000206feacd7ddb1bf2511b4ea0e83d89be0af295d52adb965883283d6835b15e0cd300000000000000000000000000000000000000000000000000000000000000206feacd7ddb1bf2511b4ea0e83d89be0af295d52adb965883283d6835b15e0cd3"
        }
      ]
    }
  }
}