{
    "2568": {
        "header": {
            "parentHash": "0xc83b789a9f40b5f925857ed33eaf17e0d9a3c962ef24ddafd6fec4a38734d954",
            "coinbase": "0x7A3a26123DBD9CFeFc1725fe7779580B987251Cb",
            "root": "0x406a59a280204d27a2be0a8ce5cb9a9fedc3ce73b1893e55e0e411434ac98503",
            "txHash": "0x44e06340ca4dd9bf88bf19b579a3c80796531dd9575619cd465bc61f6340c042",
            "receiptHash": "0x3d49a800c921ce70f4ddf72112dac99d0597891c99930c2a5abb6f1f461761ab",
            "bloom": "0x00000000000000000000000000000000000000000000000000000000000000000000000000000000000000000000000000000000000000000000000000000000000000000000004000000000000000000000000400000000000000000800000000000000000000000000000000000001000000000000000000000000000000000000000000002000000000000000000000000200000000000000000020002000000000000000000000000000000000000000000000004000100000000000000000000000000000000000000000000000000000000000000000000000000000000000000000000000000000000000000000000000000000000000000200000400",
            "number": "0xa08",
            "gasLimit": "0x7a1200",
            "gasUsed": "0x6070",
            "time": "0x62a30300",
            "extra": "0xd7820304846765746888676f312e31352e36856c696e75780000000000000000f8d3c0c0c080b8417ee63030e64a5e3b7afe6fca353d6bb685df52c8730f06a6beb34a59674892d4518d207cea8618b3f077a95feeb26e44ac04e88c96a9497f48aec860f76e0e2700f84407b8401e76eff6924a53044bceee48803515d89d1fd7a3798107cad837e3b9be7b6b1417224705f7ec15d5b8a31e3446f42e0c4b70643b8d417a55ffac0aaf48ef15f480f8440fb840019c1685fe18fc0ebc4fb1dfc4c4a68d6da02a2b2c4079944cebeb65df84aaab04f87ca028ae3eaaa941a8009057190957a0dc20cbc659933fcf37ccd47efd7680",
            "minDigest": "0x0000000000000000000000000000000000000000000000000000000000000000",
            "nonce": "0x0000000000000000",
            "baseFee": "0x174876e800"
        },
        "agg_pk": {
            "xr": "0x1e703741166519a7e278c11a8dc96ef9535dec8f4b0ab2b503f2b4d507198afc",
            "xi": "0x08ccd7feb39031341784777bf41ddcbac670e60ee2b466e159e18af9d0b0f565",
            "yr": "0x21a73b10c7523524cbc37d791c730ce12b5fe7c1031da4d899bffad808b7b305",
            "yi": "0x0667f9dad6aafa5745043addf652ea155885c7b7e88dca296b6e2cc96c475098"
        },
        "receipt": {
            "receipt_type": 2,
            "post_state_or_status": "0x01",
            "cumulative_gas_used": 24688,
            "bloom": "0x00000000000000000000000000000000000000000000000000000000000000000000000000000000000000000000000000000000000000000000000000000000000000000000004000000000000000000000000400000000000000000800000000000000000000000000000000000001000000000000000000000000000000000000000000002000000000000000000000000200000000000000000020002000000000000000000000000000000000000000000000004000100000000000000000000000000000000000000000000000000000000000000000000000000000000000000000000000000000000000000000000000000000000000000200000400",
            "logs": [
                {
                    "address": "0xca3D958f3c164353a27633d3a4b93Ccda969f2AF",
                    "topics": [
                        "0x4fed921c0dd94ef52307d954f2459b84c049f5c348455dcdd9d1b5d653f9c94c",
                        "0x0000000000000000000000005907d676af9c39ed62d49de8099d8eb8af1f654b",
                        "0x0000000000000000000000005907d676af9c39ed62d49de8099d8eb8af1f654b",
                        "0x0000000000000000000000000000000000000000000000000000000000000078"
                    ],
                    "data": "0x"
                }
            ]
        },
        "key_index": "0x80",
        "proof": [
            "0xf901b1822080b901ab02f901a701826070b9010000000000000000000000000000000000000000000000000000000000000000000000000000000000000000000000000000000000000000000000000000000000000000000000004000000000000000000000000400000000000000000800000000000000000000000000000000000001000000000000000000000000000000000000000000002000000000000000000000000200000000000000000020002000000000000000000000000000000000000000000000004000100000000000000000000000000000000000000000000000000000000000000000000000000000000000000000000000000000000000000000000000000000000000000200000400f89ef89c94ca3d958f3c164353a27633d3a4b93ccda969f2aff884a04fed921c0dd94ef52307d954f2459b84c049f5c348455dcdd9d1b5d653f9c94ca00000000000000000000000005907d676af9c39ed62d49de8099d8eb8af1f654ba00000000000000000000000005907d676af9c39ed62d49de8099d8eb8af1f654ba0000000000000000000000000000000000000000000000000000000000000007880"
        ]
    },
    "4108": {
        "header": {
            "parentHash": "0xab4dfa54864233bf27ad17e72574cba1853503ce41213b4c8936af9da21d9afe",
            "coinbase": "0x7A3a26123DBD9CFeFc1725fe7779580B987251Cb",
            "root": "0x99182ec638f7ecb4368bb3ec8c658b5fddceb3e539e6c2ccc10b77b795fbd63e",
            "txHash": "0xde4fe1a17334592c4fff2064ff5f9d21f4c54fab679edc0e70d642f73c285415",
            "receiptHash": "0x80deede08a448289c21194361e1021cbb78807fc3595a5893c85b00a1577fc1f",
            "bloom": "0x00000000000000000000000000000000000000000000000000000000000000000000000000000000000000800000002000000000000000000100000000000000000000000000000000000000000000000000000000000000000000000000000000000000000020000000000000000080000000000000000000000000000000000000000000000000000000000000000000000000000000800000000000002000000000000000000000000000000000000000000000000040000000000000000000000000000000000000000000000000000000000000000000000000000000000008000000000000000000000000000000000000000000020000000200000400",
            "number": "0x100c",
            "gasLimit": "0x7a1200",
            "gasUsed": "0x60a0",
            "time": "0x62a32114",
            "extra": "0xd7820304846765746888676f312e31352e36856c696e75780000000000000000f8d3c0c0c080b841a51fee8bcf4573f94829b7b4abd2215912e4d0dbac6a1c8e718859c67cde7c825bae70e0bf6bdfa4f22091364933947a64af354b5879a86b8507361ce1d15a2300f8440eb8402cda5864cb478bf86cf3b868bbc527f4352e78b0c15f7b38f6d37d89c0e9e31d275cb0fe94778dfda22ddd743e44b52bc9f599a28dea02ebe8a6f2b256574c4b80f8440fb840279d8a5a49ac34cc45665437330f4befc1013cd496961d526c86516918b0f4192917e710095de38caf927caf05087846589d78232d87c1cbca6fbc1b7e8f226f80",
            "minDigest": "0x0000000000000000000000000000000000000000000000000000000000000000",
            "nonce": "0x0000000000000000",
            "baseFee": "0x174876e800"
        },
        "agg_pk": {
            "xr": "0x152bb6d9b41151a2f6774afe12450ae2760f571009246a1408f9e0e5012a18d7",
            "xi": "0x028120ae77c88dfa049c595d69f6186be11a2187cebbf04f2a1d2fde8691dfb4",
            "yr": "0x1419a80b2f032c886f02b0a0565e90746a8d5921ea5b755f887737b20f687246",
            "yi": "0x13a77b0eb9ddf3e6b6d2fa165a02695015a29f26b6298ceb2bdcd73f991e7c92"
        },
        "receipt": {
            "receipt_type": 2,
            "post_state_or_status": "0x01",
            "cumulative_gas_used": 24736,
            "bloom": "0x00000000000000000000000000000000000000000000000000000000000000000000000000000000000000800000002000000000000000000100000000000000000000000000000000000000000000000000000000000000000000000000000000000000000020000000000000000080000000000000000000000000000000000000000000000000000000000000000000000000000000800000000000002000000000000000000000000000000000000000000000000040000000000000000000000000000000000000000000000000000000000000000000000000000000000008000000000000000000000000000000000000000000020000000200000400",
            "logs": [
                {
                    "address": "0xC63a49Ce5A2E6996f57FA9fDBe53203b8e2cbB4F",
                    "topics": [
                        "0x4fed921c0dd94ef52307d954f2459b84c049f5c348455dcdd9d1b5d653f9c94c",
                        "0x000000000000000000000000f855a761f9182c4b22a04753681a1f6324ed3449",
                        "0x0000000000000000000000006621f2b6da2bed64b5ffbd6c5b2138547f44c8f9"
                    ],
                    "data": "0x000000000000000000000000000000000000000000000000000000000000029a"
                }
            ]
        },
        "key_index": "0x80",
        "proof": [
            "0xf901b0822080b901aa02f901a6018260a0b9010000000000000000000000000000000000000000000000000000000000000000000000000000000000000000800000002000000000000000000100000000000000000000000000000000000000000000000000000000000000000000000000000000000000000020000000000000000080000000000000000000000000000000000000000000000000000000000000000000000000000000800000000000002000000000000000000000000000000000000000000000000040000000000000000000000000000000000000000000000000000000000000000000000000000000000008000000000000000000000000000000000000000000020000000200000400f89df89b94c63a49ce5a2e6996f57fa9fdbe53203b8e2cbb4ff863a04fed921c0dd94ef52307d954f2459b84c049f5c348455dcdd9d1b5d653f9c94ca0000000000000000000000000f855a761f9182c4b22a04753681a1f6324ed3449a00000000000000000000000006621f2b6da2bed64b5ffbd6c5b2138547f44c8f9a0000000000000000000000000000000000000000000000000000000000000029a"
        ]
    }
}