let { BigNumber } = require("ethers") ;


let block20852800 = {
  parentHash: '0x1720a9bb1b74f023aa6b0a4c21b4fcc3d6d9bd9e998a0bc496908714d183b591',      
  sha3Uncles: '0x1dcc4de8dec75d7aab85b567b6ccd41ad312451b948a7413f0a142fd40d49347',      
  miner: '0x8b6c8fd93d6f4cea42bbb345dbc6f0dfdb5bec73',
  stateRoot: '0x57417685455741121cba497496501822b2ebeb3165d3851dd425c15931990de9',       
  transactionsRoot: '0x8b02eae5fcb89fd53adb75063b3226008c52209b2ba42b200fc749474db39bbe',
  receiptsRoot: '0xc3377cd35e1b1266995f45d1c36c1894fe51304666f5b6e343485789faeec25a',
  logsBloom: '0x0220028409ae1098298202108902410a200100200906008025184a8804800080104010521401116c93402101204014322d270001188600325027008004a022d120002288300804c00126aa2d0020022261104014214018a29464800193804c0050007a3003160200054901211100c8004c000140d08ae6202020601210c80ea3540008204409020188851580600000a000b4068d00008008370d40d00112082087448005100c210424409008020b200042044101080781402c6320b0884b008c29300d1608102003718200004080100021402000000800120889c02e0000e83448194804208445018188ea5004582641641044084041804d29430c04183010d6',
  difficulty: BigNumber.from(2),
  number: BigNumber.from(20852800),
  gasLimit: BigNumber.from(75211987),
  gasUsed: BigNumber.from(6010679),
  timestamp: BigNumber.from(1661738104),
  extraData: '0xd88301010b846765746888676f312e31372e36856c696e75780000005d43d2fd2465176c461afb316ebc773c61faee85a6515daa295e26495cef6f69dfa69911d9d8e4f3bbadb89b2b3a6c089311b478bf629c29d790a7a6db3fc1b92d4c407bbe49438ed859fe965b140dcf1aab71a93f349bbafec1551819b8be1efea2fc46ca749aa161dd481a114a2e761c554b641742c973867899d3685b1ded8013785d6623cc18d214320b6bb6475970f657164e5b75689b64b7fd1fa275f334f28e1872b61c6014342d914470ec7ac2975be345796c2b7ae2f5b9e386cd1b50a4550696d957cb4900f03a8b6c8fd93d6f4cea42bbb345dbc6f0dfdb5bec739f8ccdafcc39f3c7d6ebf637c9151673cbc36b88a6f79b60359f141df90a0c745125b131caaffd12aacf6a8119f7e11623b5a43da638e91f669a130fac0e15a038eedfc68ba3c35c73fed5be4a07afb5be807dddb074639cd9fa61b47676c064fc50d62ce2d3a739effcd3a99387d015e260eefac72ebea1e9ae3261a475a27bb1028f140bc2a7c843318afdea0a6e3c511bbd10f4519ece37dc24887e11b55dee226379db83cffc681495730c11fdde79ba4c0cef0274e31810c9df02f98fafde0f841f4e66a1cd89d986a196afe7d8ac42b9b0d80a068ac365f325edeea64837aa79391563cfdf753e131e032cdafc7948bfd63935e3e1f7f665ed9ac2fcf167b6ebf5994dd15d01',
  mixHash: '0x0000000000000000000000000000000000000000000000000000000000000000',
  nonce: '0x0000000000000000'
}

let block20853000 = {
  parentHash: '0x305491572fcbf12f368075cda382db2772bec41f8b55b3c2efee531b52e2c720',
  sha3Uncles: '0x1dcc4de8dec75d7aab85b567b6ccd41ad312451b948a7413f0a142fd40d49347',
  miner: '0x2465176c461afb316ebc773c61faee85a6515daa',
  stateRoot: '0x64c8fa9b97690509708073013485a4bed214275caad10da908316f4a0385d61f',
  transactionsRoot: '0xcb5d03521ebe1428326c35800df636d061f1d4281f8d7e9ff65f6b3fe2d36b0d',
  receiptsRoot: '0x4622215958efde7a5550e7bb208cfcb35cf64befe83c1618cce71672e23dd1e7',
  logsBloom: '0x5a2013210c1f3010310614c0c1824131426a001d8f10c006095a1e4014a8a118210051230881300143c00c90980222b0b1294495b402c40055921433ba32222650618d222a8e9405812e46199271d6b42a1e38a92dc81c5e8625019282cd26b448a2132006630414844b020082858e14089828e1840ca6062222089401600444707082a51c4aca0a508104854894102080bc94a5505710ec2fbb7c400cc00c30960049a57c8c460121cf42300b4025c88480df81010225004111028d446a042013320c33811a80e341d94b032b1a56362464a151150911110a1077261002e40d38d2042ec6d064b11dc8479604e0ba487d802d2883ce174bc2321641c2401ef1',
  difficulty: BigNumber.from(2),
  number: BigNumber.from(20853000),
  gasLimit: BigNumber.from(74998856),
  gasUsed: BigNumber.from(11250870),
  timestamp: BigNumber.from(1661738704),
  extraData: '0xd88301010b846765746888676f312e31332e34856c696e75780000005d43d2fd2465176c461afb316ebc773c61faee85a6515daa295e26495cef6f69dfa69911d9d8e4f3bbadb89b2b3a6c089311b478bf629c29d790a7a6db3fc1b92d4c407bbe49438ed859fe965b140dcf1aab71a93f349bbafec1551819b8be1efea2fc46ca749aa161dd481a114a2e761c554b641742c973867899d3685b1ded8013785d6623cc18d214320b6bb6475970f657164e5b75689b64b7fd1fa275f334f28e1872b61c6014342d914470ec7ac2975be345796c2b7ae2f5b9e386cd1b50a4550696d957cb4900f03a8b6c8fd93d6f4cea42bbb345dbc6f0dfdb5bec739f8ccdafcc39f3c7d6ebf637c9151673cbc36b88a6f79b60359f141df90a0c745125b131caaffd12aacf6a8119f7e11623b5a43da638e91f669a130fac0e15a038eedfc68ba3c35c73fed5be4a07afb5be807dddb074639cd9fa61b47676c064fc50d62ce2d3a739effcd3a99387d015e260eefac72ebea1e9ae3261a475a27bb1028f140bc2a7c843318afdea0a6e3c511bbd10f4519ece37dc24887e11b55dee226379db83cffc681495730c11fdde79ba4c0cef0274e31810c9df02f98fafde0f841f4e66a1cd7f96b38dfd08775237e275bc452754473ef5ba33708cddefe2c2fc38ef1689f26aa28deb8ab25583c1e23bfc79df1e41d8d10722d831595f83c59b869e0826f200',
  mixHash: '0x0000000000000000000000000000000000000000000000000000000000000000',
  nonce: '0x0000000000000000'
}


let block20853200 = {
  parentHash: '0x69d17f182b5dc47b69b0224b07ea0c1930355915cbc8fbbf7abebdee0e666b59',
  sha3Uncles: '0x1dcc4de8dec75d7aab85b567b6ccd41ad312451b948a7413f0a142fd40d49347',
  miner: '0x9f8ccdafcc39f3c7d6ebf637c9151673cbc36b88',
  stateRoot: '0x54f003ea4b0257f587517edbb2203f3ce7a00ebbb04455fe9988f37f8cb5addb',
  transactionsRoot: '0xa91b1238c5c3a04e60860db172596a3632c281191653e5b5f633de2b111534b5',
  receiptsRoot: '0x5a8ba6a2ec58b26224e9e218b1ccb550d06a51abc67c6d0662b444780fba437d',
  logsBloom: '0x81226a19c0d051796b1405e88889102e61417008edc7840c117248300a249035a101a74a902b600043c0423b80010a8080916580c60a115153040642b826123cb8022c0024bc0410c92deb48419bf0a52018802815cd44948b74180288228200100919f48a0230108371100820848a0cc90e00218401558090a0425004080f14158983811e99902808c317a8c94759201326860bb2aa10a8005854f10a0108608a6e11703738661068c32034926a4404002698020ee511405680e26498f664482a2086830902812640064ab140525302a144a3021ff2001f2a5d12d210c9e025385843c985514a48a1152dab04da3065c481b300c0d4024821028004e0817456',
  difficulty: BigNumber.from(2),
  number: BigNumber.from(20853200),
  gasLimit: BigNumber.from(75319907),
  gasUsed: BigNumber.from(15091340),
  timestamp: BigNumber.from(1661739304),
  extraData: '0xd98301010c846765746889676f312e31372e3132856c696e757800005d43d2fd2465176c461afb316ebc773c61faee85a6515daa295e26495cef6f69dfa69911d9d8e4f3bbadb89b2b3a6c089311b478bf629c29d790a7a6db3fc1b92d4c407bbe49438ed859fe965b140dcf1aab71a93f349bbafec1551819b8be1efea2fc46ca749aa161dd481a114a2e761c554b641742c973867899d3685b1ded8013785d6623cc18d214320b6bb6475970f657164e5b75689b64b7fd1fa275f334f28e1872b61c6014342d914470ec7ac2975be345796c2b7ae2f5b9e386cd1b50a4550696d957cb4900f03a8b6c8fd93d6f4cea42bbb345dbc6f0dfdb5bec739f8ccdafcc39f3c7d6ebf637c9151673cbc36b88a6f79b60359f141df90a0c745125b131caaffd12aacf6a8119f7e11623b5a43da638e91f669a130fac0e15a038eedfc68ba3c35c73fed5be4a07afb5be807dddb074639cd9fa61b47676c064fc50d62ce2d3a739effcd3a99387d015e260eefac72ebea1e9ae3261a475a27bb1028f140bc2a7c843318afdea0a6e3c511bbd10f4519ece37dc24887e11b55dee226379db83cffc681495730c11fdde79ba4c0cef0274e31810c9df02f98fafde0f841f4e66a1cd238aa1fddd8cc5644a80b5a5f9baeefa66ee0c2b4d51096fffe279b02b4ac5f47271567b6d5777da45681827203d0437ba7492f251801a2f9817f4fc96fadbdc00',
  mixHash: '0x0000000000000000000000000000000000000000000000000000000000000000',
  nonce: '0x0000000000000000'
}

let block20853201 = {
  parentHash: '0xa1097d816035ca8918ed8237ffff56e719bb9214217bec8427e64bb62a27169a',
  sha3Uncles: '0x1dcc4de8dec75d7aab85b567b6ccd41ad312451b948a7413f0a142fd40d49347',
  miner: '0xa6f79b60359f141df90a0c745125b131caaffd12',
  stateRoot: '0x95adade6d07a38c4733b22e5088b8e34f2f1345c9a6cbecd62f180863e1d205f',
  transactionsRoot: '0x58a6b27db10acfeff29a696d000fb132639cf4d072a842c6fbac40cfe244e253',
  receiptsRoot: '0x5c168312f0c271bea92b2bb71a066637cf653f878453f662506eb80237615f04',
  logsBloom: '0xc167e6090ccc40147953021993043a60000146448df51d06817025942c9b8d204296344ff5031934d3b318a40444310b48eb7100ee4a2853f9e6131ab023b29002d1c624800752e593a50809ffa15d6a6e748ae281c0ae2a96243633ed4a848060dade356fc2604a9da868502100c9a348800a77e499a42d3a6c01700bd84536d5658be04491ba0ab98b3372a41c40d991ae86b5c1e6005ca5bde9753ea0ed2c8ed0770e37ac4d6122b2a8681a4e0ee24e18eba0490725c4200233bd0722df9ee58bf007690f069bc2c25f314582d1003d549510e903209b6c2b03c668a9f2b33a34080f8ce0ff810dc7baf2a3ef4d7bdf069c4c4fdc98610e83172a416a40ec',
  difficulty: BigNumber.from(2),
  number: BigNumber.from(20853201),
  gasLimit: BigNumber.from(75114115),
  gasUsed: BigNumber.from(15885437),
  timestamp: BigNumber.from(1661739307),
  extraData: '0xd88301010b846765746888676f312e31382e32856c696e75780000005d43d2fd797da1147dc285e9c1a8ed4e0f67bf275af861dfdd15971b49480b5022d6f7f161af6eba5ae77ebf39238fe2f520e8283aeb13f9c99358998d5eff9096f4c12900',
  mixHash: '0x0000000000000000000000000000000000000000000000000000000000000000',
  nonce: '0x0000000000000000'
}

let block20853202 = {
  parentHash: '0xc7e8f075fbd2e312c702cb44b51b9d0155d28906bd73aaea4867e64c134371b7',
  sha3Uncles: '0x1dcc4de8dec75d7aab85b567b6ccd41ad312451b948a7413f0a142fd40d49347',
  miner: '0xaacf6a8119f7e11623b5a43da638e91f669a130f',
  stateRoot: '0x3f402673ae4899c47c62a2784794720b3da7403d30e6a2ab74361b39e48e7dfd',
  transactionsRoot: '0xce0a51eebf56659ca50ee458e00aabb47dcf1758cde12285f768e64eafe133f4',
  receiptsRoot: '0x5540726e6688c3646de72fc6807b63ac0217a88d737a5080bda7f9117bb6968f',
  logsBloom: '0x20a14a6be100b254044d4416914431c4018140189ba0040cd0b02095e0200534a90db04cd4c46a754695123088dba84024a1055009320808497c6069c32010a9d082c176230030080d02209d6570003b24922ca50bdca481daaca102890002c30d4860201f5282441241a8ecdf88481b0a78e0214611056d0784461813de26d71a00c583aa897220a1abd5114a4320b818f4249750e2545c0b880a40a48de8244fc63229182dfe8008150845020a106486188444288223456bb0a9019b030909211d05870408859b60f224a1a28051502743e3180b32849a74000046c001e23b40329411908359db53268a228299501742148215014448e4991a3311d083c0c4',
  difficulty: BigNumber.from(2),
  number: BigNumber.from(20853202),
  gasLimit: BigNumber.from(74820702),
  gasUsed: BigNumber.from(9089763),
  timestamp: BigNumber.from(1661739310),
  extraData: '0xd98301010b846765746889676f312e31362e3130856c696e757800005d43d2fddc8f126282ee04bc7cdbf9c58b80f1449548b10cf73a92007ff5961b4a4eedd82c781b55aac1638e8e84899d7a3cdc4533d6a3f007f495ac02ee7ee22abf725300',
  mixHash: '0x0000000000000000000000000000000000000000000000000000000000000000',
  nonce: '0x0000000000000000'
}

let block20853203 = {
  parentHash: '0xc9fd3328b6455ad457ccf194f48e5de0fe41c73ca2924f5bd85f76ff240589e6',
  sha3Uncles: '0x1dcc4de8dec75d7aab85b567b6ccd41ad312451b948a7413f0a142fd40d49347',
  miner: '0xac0e15a038eedfc68ba3c35c73fed5be4a07afb5',
  stateRoot: '0x4eb1774dc4160725584641b516f3fd1ecc76cbf2cac918d76e249ba86a155c2f',
  transactionsRoot: '0x8c245ec0bb6246e5d8a83f99497258c59749028802e73eaa2d8719f95130e197',
  receiptsRoot: '0x4b1f15330c5af1bd0e91eccbd4965c70881df9c522f7a8712c177dd7601538c2',
  logsBloom: '0x80248321829401103454050b828e4408350b1c4c9001858a580120c0c806e024a886803a0a01970033d8015904480030a8898552a4e020b03576364332a4068698008023246c38d803a22e981058a1e6691828a811de0e12ed2583218300a54e4cac50b603060e4c90c726ca411019135810454682300683aca1185c49283c20486005e530b066041baa8b28cc14188487ac8eb5b281060da19330c96ecf0820960450010d90464c4850b920c7910a0810061320c88ab50022790361741487f88a8090124030012a24111a60d2181342a8201b486b02c31108343b0b8002ea113594592d0412c70001517cd855c82c3c420a4d1c41858a4301c56000c41186a0',
  difficulty: BigNumber.from(2),
  number: BigNumber.from(20853203),
  gasLimit: BigNumber.from(74528435),
  gasUsed: BigNumber.from(8702584),
  timestamp: BigNumber.from(1661739313),
  extraData: '0xd98301010b846765746889676f312e31362e3130856c696e757800005d43d2fd251bf8d6bc80fe6ed8c482e66c32b7f5360903ef4cfc6c936dbc7a7b72d51e82065a1b9b990d60e99948c25470de8fa5f0073e5ef14c05f0f7da6c7d0d6f03db00',
  mixHash: '0x0000000000000000000000000000000000000000000000000000000000000000',
  nonce: '0x0000000000000000'
}

let block20853204 = {
  parentHash: '0x11c1e46eabc200deb986709a5b1e761896e77d023ea863518ca4ca00e1a9e7c3',
  sha3Uncles: '0x1dcc4de8dec75d7aab85b567b6ccd41ad312451b948a7413f0a142fd40d49347',
  miner: '0xbe807dddb074639cd9fa61b47676c064fc50d62c',
  stateRoot: '0x709a89828baf8677a9c0b4cfaab45206b778c7911bd8a1cb5290c5f66db65a9e',
  transactionsRoot: '0x518cad6c5c13f4224bbbeab7eac68d82864245c1d6710086d095f02172873838',
  receiptsRoot: '0xb20600861480bd5ae3d3b1dbb54d903079a4c609f4e757df5a91b5fc715f8c4a',
  logsBloom: '0x62a2c233030912902804ba3985a30020d028801428c6a4cb40c0f030d20025880500a05b68c691b1e7a02a5680042f98a0438153c0240b1880ae8040202cc9805029cc537d84a39091308058205139323452437a47d528e482c41862c90094015210b9210e4ae6fa977d02493042090048caa656a43c5c810435003c12328000a310002ed2843900369a1f3a580884e410a72e0541072e380d400c50a98a4c3067c8908e92727320d01d784003446606421251a40214c300248000041c2818354204e456124630938180486f2612f708302024147000b898890700021a13e805715054916ac1c840cb00bac200c3700b6164ace88005104734a30444e2390656',
  difficulty: BigNumber.from(2),
  number: BigNumber.from(20853204),
  gasLimit: BigNumber.from(74601215),
  gasUsed: BigNumber.from(13548072),
  timestamp: BigNumber.from(1661739316),
  extraData: '0xd68301010c846765746886676f312e3137856c696e757800000000005d43d2fd9b09f7ff8b8917a71d02848fced3347d8b43b0142b45511edb6b5ee8087554093f21fe4946a2d5c95a5db371b6de502fc0a2de43e454973f08792fe4194569a200',
  mixHash: '0x0000000000000000000000000000000000000000000000000000000000000000',
  nonce: '0x0000000000000000'
}

let block20853205 = {
  parentHash: '0x1d61b1648206e8067f78a596a86a9b03cf02b896ea15f0a1ea17b1bce6a7074e',
  sha3Uncles: '0x1dcc4de8dec75d7aab85b567b6ccd41ad312451b948a7413f0a142fd40d49347',
  miner: '0xe2d3a739effcd3a99387d015e260eefac72ebea1',
  stateRoot: '0x05df724ee990b62bd7f5122646542463988ee6e42f54d733ec604dd0b23a0b5f',
  transactionsRoot: '0x5fd3bcc8b2e01bc3780343b69d4e5863e9b3b44465dccc6c16e2550aede88d96',
  receiptsRoot: '0xc55a9d9ecdf705e5940aece7bbc0ae3eb3a7858c4054c8f340ff3477f199edac',
  logsBloom: '0x843d423d36cd1113dc2c8c93a18242721066815c39a9e50844370c80689027981c95364539b570089788f8708310603901998f04b6aa5ac2593e4ca6b825aa7c641e29b250ae21a511a68ee9602d6a6ca01808b9d7dc2d39f83d0aa7902a7adceb151e7f8a069db18edf720125968da06aa0564c888a3700642129de0709e503b9940107751904120c9217094a95c86b52e645954981de2e091a4d4181c30b35ce42e062d40caec073307861cfea3a4af32af50bae846181e999b4a032a7442ca0b03f3a538e46626215f381f23356c0b366b6b0dbccea140f1033263203f235bc775e0994a71730992cd01bf38b762250ad3c1850c79449b303ff334fb00e94',
  difficulty: BigNumber.from(2),
  number: BigNumber.from(20853205),
  gasLimit: BigNumber.from(74892624),
  gasUsed: BigNumber.from(12181205),
  timestamp: BigNumber.from(1661739319),
  extraData: '0xd88301010b846765746888676f312e31332e34856c696e75780000005d43d2fda18dfd101580521bba811ff01af2277ac7fa9b409f58b46ac89e4667b8bf01b5493ad1583d2367c83e44024d00d704a12cb19575b1e3ed1030510f2873ab761500',
  mixHash: '0x0000000000000000000000000000000000000000000000000000000000000000',
  nonce: '0x0000000000000000'
}

let block20853206 = {
  parentHash: '0x031fded6dbc4f91d4569df2953e89dd652ae0cb1de5c61b2a328f807b394e062',
  sha3Uncles: '0x1dcc4de8dec75d7aab85b567b6ccd41ad312451b948a7413f0a142fd40d49347',
  miner: '0xe9ae3261a475a27bb1028f140bc2a7c843318afd',
  stateRoot: '0xa9cb8ba5098a3d0166e4ace2b15da1ba3488bc921edcda6748dc01f0fb8c5530',
  transactionsRoot: '0x4a8323197e3f83ab5b418de69b015f79d2115c3bb23dc35a9f482a8f4e8fe837',
  receiptsRoot: '0xacc0fe8a06ed6a8b5705c06e384c2f8c169cc4f27cd9e3e24864a19c964f8b0a',
  logsBloom: '0x2b35e29f5daa00388af916818394227e231d2084dc34c7eef15db375b3a10b44735dd54c68421b4593d5d038586b1b242e3b91848c137e8c7a21b804543582e350b88b931255ba28e12ace4fc57be17eecbc899887558ccab1555f259f8278c46edcdbf46bdab63d55cfeacda2689e51680982dfb8d83e9b21f74a7c8beaa761bee09e8704d92ed339ab3f984a1fb8f074ffd695b013f35c6ddb0d6808a84870d30cd83892ec97c27a2268e0f34fd58217be1dc8f50a296ca32b64831faeb47e3608cb12940b5eee020196dfa49a57f83565e70be1107ebddc184c8e1675ee77d8f4ff1f169f5cd9d9051e9704aed65ec986f518c165e76fb68f72c02204949c',
  difficulty: BigNumber.from(2),
  number: BigNumber.from(20853206),
  gasLimit: BigNumber.from(75000000),
  gasUsed: BigNumber.from(16226197),
  timestamp: BigNumber.from(1661739322),
  extraData: '0xd98301010b846765746889676f312e31362e3135856c696e757800005d43d2fd871ab0e2725547a14ca0860f3ba6c2ffc6006d59b8e9a0e4ab13fac181b5781d63b5e21bec86ffb8d0c26618d9bcb3cd4177235c587506474f323e9aa16ca01e00',
  mixHash: '0x0000000000000000000000000000000000000000000000000000000000000000',
  nonce: '0x0000000000000000'
}

let block20853207 = {
  parentHash: '0xf2ad03fa5dc7693a9176562aff2bd9566e2ace2daecea69e474e00030fe08f19',
  sha3Uncles: '0x1dcc4de8dec75d7aab85b567b6ccd41ad312451b948a7413f0a142fd40d49347',
  miner: '0xea0a6e3c511bbd10f4519ece37dc24887e11b55d',
  stateRoot: '0xd8e76c7e3d48ffed5942229968c9a27f855a221853ac8bda94ed54f04494ec8a',
  transactionsRoot: '0x29bedf639a1b36bc047b46ec8601c8832d81df65a430a700f3e265650612998f',
  receiptsRoot: '0xfb4eca0fe0797bb0e6494c9040a93714c73d991aa264ee60a458bfe044fcb73c',
  logsBloom: '0x0020660900081810764a5c40d400004c90ca0610ac204500415c8c302525a1a60a006172400508801650218c0c10000022048d80a640128170120240202606a618004022cc44026093b30208079a4220a033ab8810d88dca4054149390291086413a706ea23b2810818a100906198c0608800080121a9640382544583200850d100092441e498e924d801c10d403284401660495c04ec888a0009840a60040e0ae200209020b5402240828289e0b04834600004110900100a0082c270603c258e0026f826829824a4241382018065c122000285044020010318810a20880a431189009014c260c029121145a20c09a11c020014c414c24789003a01d880000b8',
  difficulty: BigNumber.from(2),
  number: BigNumber.from(20853207),
  gasLimit: BigNumber.from(75073241),
  gasUsed: BigNumber.from(6606366),
  timestamp: BigNumber.from(1661739325),
  extraData: '0xd68301010c846765746886676f312e3137856c696e757800000000005d43d2fdd5edde33eb03d0eba3c2242c728b47659fc557bac778a8ac4d961ac7d3dc7a6935be2a40d64f449ee814edfdf40fb49e0c28b81f4ae384c2c28803a12846842601',
  mixHash: '0x0000000000000000000000000000000000000000000000000000000000000000',
  nonce: '0x0000000000000000'
}

let block20853208 = {
  parentHash: '0x7d9087fa92f99eb2ec7a0bbecc2c8f29b7c531d5a48bf615e9f72fae2763c928',
  sha3Uncles: '0x1dcc4de8dec75d7aab85b567b6ccd41ad312451b948a7413f0a142fd40d49347',
  miner: '0xee226379db83cffc681495730c11fdde79ba4c0c',
  stateRoot: '0x049a0e07dd5d9f4c0a39005ec8e32a4c83650478070b4caefb3f8a02aa1e5033',
  transactionsRoot: '0xb21ba4f70a9a0e1abbc9b143cfb60d2647e4039a6cb1b3bd4a370a0be9ca1900',
  receiptsRoot: '0xc096fd09892ab98ce280269259b9a60207fbcecf3dd17189155b0a28d5b3cbbd',
  logsBloom: '0x06718219a50211134a6c81b4a4861218b02d588ec4e58188cc12041621c3494902142748409238e652f050d190ae6870b0b1ae9334880600f0f446aa516512f020041d883f0950202967ce28a00169e62075ab613a6c5c9da20c1a22c8020402c88868340be68460016744800b600c59ca0320d2c49da6e3d30301101a190419be00a609152b2f306ba9dd8f1874c1d019765417514a3748e1105c51289241270a901478042843002005fd64820e240c269681006486014069a92c188f23835ca8726e82300ebe2602411000120f14832604be857580283a869c5612c057e0a118323031a2414e46391cde8214446eb06ac51c5b48bcfc6f8427d72040d48604',
  difficulty: BigNumber.from(2),
  number: BigNumber.from(20853208),
  gasLimit: BigNumber.from(75000000),
  gasUsed: BigNumber.from(9812566),
  timestamp: BigNumber.from(1661739328),
  extraData: '0xd88301010b846765746888676f312e31382e33856c696e75780000005d43d2fdd713a48939c400024934bac7c0ab4efe3969302df6e5b4a90cac3995247934fd7406bd6267e02035eb32b26896f2f166404ff5a47b8ad085123477acbf2d4d1a01',
  mixHash: '0x0000000000000000000000000000000000000000000000000000000000000000',
  nonce: '0x0000000000000000'
}

let block20853209 = {
  parentHash: '0x9ad545230ee4342cb49cec72dd1baf12c82a3ed1451fecdf267c780e5277e54c',
  sha3Uncles: '0x1dcc4de8dec75d7aab85b567b6ccd41ad312451b948a7413f0a142fd40d49347',
  miner: '0xef0274e31810c9df02f98fafde0f841f4e66a1cd',
  stateRoot: '0x41fc88c50fa5b9fe080799c80f263c9ec261cfff81e4521c2a32fc8361139d18',
  transactionsRoot: '0x493ac10f9e06a4f705ba85d660d242bcb67e4e3d078442ddc288a68d19da391c',
  receiptsRoot: '0x7a1cac5084ddc3b8f6e4c756e43a26cd5f402b4dbc7c4aa1be9abdca578f458a',
  logsBloom: '0x44204a09400c90307100904d8741557a9009a8da9dcb0400b29ca8642a8041ba8e17934e06101316764322a026a70c6149008702806b881b700e02414aa40738c2008f43604712d85da34149d0a023af7414802409cf5eab5aa40893ca1ad9ce4c4849273f368044c5cdba8511580b980bc200c36614c4714e8c1a1b134a8e03fac8ef1516ff0200a5db97a08f7288240de60ca75884143c21c8a14540998b235e66110d553e04532c53c951030a114948a84321a887e963b226f6c29b66583c2ab44713010b170fc5e59a23c396f34a2ed3e3a18142da1230124057c118e0b119905dbf44cf2668435703a341e540ef540ce6686084375cb903bda384040a97',
  difficulty: BigNumber.from(2),
  number: BigNumber.from(20853209),
  gasLimit: BigNumber.from(74707033),
  gasUsed: BigNumber.from(16803012),
  timestamp: BigNumber.from(1661739331),
  extraData: '0xd88301010b846765746888676f312e31382e33856c696e75780000005d43d2fd1d96687cf8a0e10e3bcd8ce8cf38a34bad4d9a18d2caa53d8f35fb63c70df01e279bbd6c0e65247ca58f3ab83fa26d889aafa1bd9d4f2f8da037f24d4c1a851400',
  mixHash: '0x0000000000000000000000000000000000000000000000000000000000000000',
  nonce: '0x0000000000000000'
}

let block20853210 = {
  parentHash: '0xe6b3f94fc5440ec97a4bc8cd335096690eb5af4008dd36759b1a55d40f76247e',
  sha3Uncles: '0x1dcc4de8dec75d7aab85b567b6ccd41ad312451b948a7413f0a142fd40d49347',
  miner: '0x2465176c461afb316ebc773c61faee85a6515daa',
  stateRoot: '0xaf37623b8569ff7da337b17389d6807d73579b15f2c6c90abe0a10744d6bd47e',
  transactionsRoot: '0x7debf01fc763403ed582cc8e4c83ab1aca033a83858850058853392a1fa61158',
  receiptsRoot: '0xf650f1388e3591f1a9638bba7efdc53922a7d2f40f3bb8a5b7dfd88049f6f14d',
  logsBloom: '0x04e5aa1801d710318dc44804838e13055082001c0165e2d954d1689819242190e6003c72400058484386a25b0cac00901109041008242320eda8143b1034e0c252252800a69f230409f4ee198730a029613cc409084408c7d82e401498c1060409d0d22cdea604c4248902103408c9044b020840881094100a21001103e44ca718a081380409a224dbad172498b30a8851a46405c493445c7118284451aaa97c860cc0850c1cc1ea25a2b9d3060a040000821424200605180ee0229ac642262d201d850248aa200b4285ef642304f20c2a22108c632ca0530bc4430f8122e2a51030148a025159711b405e9908e74658cc060c89a059106912c3a922145847c4',
  difficulty: BigNumber.from(2),
  number: BigNumber.from(20853210),
  gasLimit: BigNumber.from(74998856),
  gasUsed: BigNumber.from(8746379),
  timestamp: BigNumber.from(1661739334),
  extraData: '0xd88301010b846765746888676f312e31332e34856c696e75780000005d43d2fd87793ab634deeb25a8cfb579cd74ff20e16b29361395cd04314c471864c3aac4672b411f2121cc6196279c8cc883394fc0877fb9d5d57641cc5fe993ab76987901',
  mixHash: '0x0000000000000000000000000000000000000000000000000000000000000000',
  nonce: '0x0000000000000000'
}

let block20853211 = {
  parentHash: '0x2b65344757c79ee0979f47991aa75fab2d52816155d618e24a67c530308d3352',
  sha3Uncles: '0x1dcc4de8dec75d7aab85b567b6ccd41ad312451b948a7413f0a142fd40d49347',
  miner: '0x295e26495cef6f69dfa69911d9d8e4f3bbadb89b',
  stateRoot: '0x5bd87429920185eee9ab2b56c24d2bc44e74c87fb2c6c9bd5bdf1e65780ba7ff',
  transactionsRoot: '0xb3976b4bb6a3e4d903e8fa0ae8a418097b34886842835b392c3c595883d2119b',
  receiptsRoot: '0x0d76b7af98693d7c590f7e53a54ed2d89f243a9a475bf20f27a963ef65661c6b',
  logsBloom: '0x82615a8b650181507868acb688b040084810344c167594000230a59c38829c262d41b16b478c0d00f3c00a90304135240898455890228db1d0be237153a432e09a2069370d06a81507e24e5940202aa7b510259085d4843cca840118c110b0040f325a3a020ac4d083630e0258028d1959a069bcac30872d20a134548a0d440198c0a6b20c9d3492cc822b014d0f00a400b595893fa3d3ae89381c41a0c5197a9e06f21c180c979125112e29070b0c0474083520038a8320080971262ea2044e3303eb07213a862a80821ea92258593222767a07205cbd126857140a56d0e821945034098001efaa6140e81186c67557d000b0f841cbf969e80749104b88ac90',
  difficulty: BigNumber.from(2),
  number: BigNumber.from(20853211),
  gasLimit: BigNumber.from(75000000),
  gasUsed: BigNumber.from(12456190),
  timestamp: BigNumber.from(1661739337),
  extraData: '0xd88301010b846765746888676f312e31372e36856c696e75780000005d43d2fddb5c1d0bbf20ea1bcf2aea5a06f2c4dead68cdda729718e33efa9919fe8da488753354e43d3ca4f62b096599702da00796feb43e77b02bb792434b1e90ffe61a00',
  mixHash: '0x0000000000000000000000000000000000000000000000000000000000000000',
  nonce: '0x0000000000000000'
}

let block20853212 = {
  parentHash: '0x485f618994033af92bfed8581296fb1ecea2ffc4debb7dc57fa7e007ed3d4335',
  sha3Uncles: '0x1dcc4de8dec75d7aab85b567b6ccd41ad312451b948a7413f0a142fd40d49347',
  miner: '0x2b3a6c089311b478bf629c29d790a7a6db3fc1b9',
  stateRoot: '0x1635083b2ffada8066774b45b1635c5d2a9ec3a8e9d7ed5840817ef37e7b361a',
  transactionsRoot: '0xa87e8307cd7381b294178a80451dd7d34acb4fcb411a268a83c98dd4c4db597e',
  receiptsRoot: '0x91b41b88733d522efe6d2b16855a9f9682e5f4861cd205cc449e3bc3f5fa9e68',
  logsBloom: '0x0d204a0501c21290294eb047b0863640056c6a1828740413310881d4a606907405d4a51e42101e345bc4722580062980192183009d2040d2013e0713a23302fcba820b100c0d9140434b0a2a420a04746398107e04c89d99fa84c1298b114001c58e78b67a561c90824b28417a00a84058280a44ce1a940cc2a50158064c0805c080939d92adbe43c98f1784401e08a410e454c52e79402ae316844b00a99d32928412a41d28d240268428612b058618040817602cc416400e204820cec4100c41180743000e900224a2baab5ad113c3a482f30bc1216010a0655a9318e0a29574571521b1c3cce849651b1002c0bc6346b4f50581e0844981c30101d4a0089c',
  difficulty: BigNumber.from(2),
  number: BigNumber.from(20853212),
  gasLimit: BigNumber.from(75292967),
  gasUsed: BigNumber.from(11166759),
  timestamp: BigNumber.from(1661739340),
  extraData: '0xd88301010b846765746888676f312e31382e32856c696e75780000005d43d2fd937b10310c92811ed25f67fe94c1aea38390215d7dabd1be3dfaf78fc46f09d73a7c6fadea3d812ddeaa92a11186b98edf52d208cfc432c789159d17b388699a01',
  mixHash: '0x0000000000000000000000000000000000000000000000000000000000000000',
  nonce: '0x0000000000000000'
}

let block20853213 = {
  parentHash: '0x7dd93fc63772e1b1b586a9ca71e5eeea243c34438bd1e4a263cb3cdfaac8e5d8',
  sha3Uncles: '0x1dcc4de8dec75d7aab85b567b6ccd41ad312451b948a7413f0a142fd40d49347',
  miner: '0x2d4c407bbe49438ed859fe965b140dcf1aab71a9',
  stateRoot: '0xebd5e1ed565c93ed9375a7331b15d2249c24f29061e90db869402395455e2223',
  transactionsRoot: '0x7000b5acd2dcb9d8a388fbf7295724e2d8e01b4afeee8eb082e37c21c5f4f75c',
  receiptsRoot: '0x4324ced2dc5adf530e03a6bfe282a429d960ae1e883f0465447a95803d8f0a20',
  logsBloom: '0x00214e06210870122060a6018080042000810848528180d0dc12c044316a1b040c1110890004070013a106565a0a004188aa222c8ec20901406004080225039804086852310c0ac01318860b9164042e61d040289d6e801c89240184a748a2310000923483033812954e400d8920ae3a0a809028800a0c10066590100b000ce140340451302902200890890a81d21cb08024e48d1200042829924643909069a98631c308f60086200001e122ca4c400020b42a2820b127100cd10809a020a04a002c023ba00b442a7086f12140521590a8c028d0a1080011b24513461babe60460f048040401c2402fc1a2128e80bc2812c4a4930c69c2c998c5e10454840250',
  difficulty: BigNumber.from(2),
  number: BigNumber.from(20853213),
  gasLimit: BigNumber.from(75587079),
  gasUsed: BigNumber.from(9493808),
  timestamp: BigNumber.from(1661739343),
  extraData: '0xd88301010b846765746888676f312e31332e34856c696e75780000005d43d2fd5b2f60601df347d97324ddfbe6e619116daa2b86e7e0428498ecfb2185976fed0c63b19e9ec102d096e5de3aae2384a6024001682fc989d02bcb39ed6a3a68af01',
  mixHash: '0x0000000000000000000000000000000000000000000000000000000000000000',
  nonce: '0x0000000000000000'
}
//blockNumber  20853201
let txReceipt = {
  receiptType: BigNumber.from(0),
  postStateOrStatus: '0x01',
  cumulativeGasUsed: BigNumber.from(13976310),
  bloom: '0x00000000000000000000000000000000000000000000000000000400000800000000000000010000000000000000000000000000000000000000000000200000000000000000000000040008000000000000000000000000040000000000000000000000024000000000000000000800000000000000000000000010000000000000000000000000100000000000000000000000000200000000000000000000020000000000000002000000000000000000000000000000000000000000041000000002000000000000000000000000000000000000000000000100000020000010000000000000000000000000000080000000000010000000000000000000',
  logs: [
    {
      addr: '0xbcf39F0EDDa668C58371E519AF37CA705f2bFcbd',
      topics: [
        '0xddf252ad1be2c89b69c2b068fc378daa952ba7f163c4a11628f55a4df523b3ef',
        '0x00000000000000000000000076ac836236c5a65d9e2dc279ec519a83379c4654',
        '0x0000000000000000000000000000000000000000000000000000000000000000'
      ],
      data: '0x0000000000000000000000000000000000000000000000000de0b6b3a7640000'
    },
    {
      addr: '0xbcf39F0EDDa668C58371E519AF37CA705f2bFcbd',
      topics: [
        '0x8c5be1e5ebec7d5bd14f71427d1e84f3dd0314c0f7b2291e5b200ac8c7c3b925',
        '0x00000000000000000000000076ac836236c5a65d9e2dc279ec519a83379c4654',
        '0x00000000000000000000000092e3aea4b9c28ecbd17d92ea34fb6ee96602b4b2'
      ],
      data: '0x00000000000000000000000000000000000000000000d3bb8c98720382bc0000'
    },
    {
      addr: '0x92E3Aea4b9C28eCbd17D92Ea34Fb6EE96602b4B2',
      topics: [
        '0xe8591e9373e8c4801ffc5bb031277889e3e771aee8c55961028bfc65728c9ba9',
        '0x00000000000000000000000076ac836236c5a65d9e2dc279ec519a83379c4654'
      ],
      data: '0x00000000000000000000000000000000000000000000000000000000000000020000000000000000000000000000000000000000000000000de0b6b3a764000000000000000000000000000000000000000000000000000000000000630c20ce0000000000000000000000000000000000000000000000000de0b6b3a7640000'
    }
  ]
}

let proof = {
  proof: [
    '0xf90111a0e06594878902c04e174f88ce246b6cda0f035d02876cb1f923f81a458bf92b26a060e6d8cddfd3846dfb2aafc4eb47f832e4968a592985f4b6a466d2cc757aae69a0ac49636bc26d50ae4a96302add87d1943e806c5447cdc307b2ba7690e92b0a89a04d1a02e6c78597612ed5cd91b19adca1f2c5056115873cace16889c1f1ef6e21a094c5666372f10a559376d045d9ce1af5acea429d73bb00cf9f338f11c49914c1a0639048aaecd3737ca6ef1fe0dc7807634c8be5736660cd52d9f20788c15f655ca07446f3bd4b0ad6cbe564426e14c112294e55014ef9a09639cf48bee851cb8cd180a0c3a02c65262a1bf74eb3c5b389951c173e22b005bdd5c5d72aa5574fdd8471868080808080808080',      
    '0xf90211a0d1d3ee4ff6dece241422168dc5e8e8ef86924568755990990ab5de173a92fbdea0e9898e9175338ccb1d8a2982081331c819edd3c9fe428d72bcec16a446ea2c60a04aa1cb6d739e85da1dded051f0250c950d7384eebfb31c8e8c309ee68425900ba08e7bee82b6aea07ba66c1da29eb7ce759e87e1228562685dcca7db2a4c050d22a014c237a2557596ca0e92be80bbc3cbd968846aae2f9826c8a8a6f5dd47931b8ba092442b37c568b52fe5546d53d8bb708e223fd231a4ea02e603deb1c8778217afa0e5f532e427b3b75c98a399c7fccdc838bc8897b6e2d33701ad3f8c2ec9a4488aa0dd0957fa8881a4d943a3c9b526a26fd05c0b736de3e217edf285a47a58689252a0ee646ed2c179449fc93e23af286512a5c7513af78bea769441e6fea42cd4e54aa004c58eb0ba7337e9d0d844d3bd44f644f6e26668d50ad2efdbc2b894bba788a3a064d752ec7fc878c4af20454fa95a9e5a9a6e51a37ad97615ba0d4835096b7ec8a0e6957c7d57488d85204bd9a788df2e9f8ae12d06fe54a542df52289f6130a6b6a0e1aea8740cc244734e0618bf0d86f0a4ee40df14d1473490c52a518a51949994a02e8db260c2493b59d59e01483cda26b5c201e77116addb46eb795fa0ee64f516a0d798187c3d6d092442c5782820d61efdd7404948197b705e147271b9cff412c0a0ef3e3bac8852ea6405a7215e0dccedcc44117e002ef962d6158d47222de2002880',
    '0xf9032920b90325f903220183d542f6b9010000000000000000000000000000000000000000000000000000000400000800000000000000010000000000000000000000000000000000000000000000200000000000000000000000040008000000000000000000000000040000000000000000000000024000000000000000000800000000000000000000000010000000000000000000000000100000000000000000000000000200000000000000000000020000000000000002000000000000000000000000000000000000000000041000000002000000000000000000000000000000000000000000000100000020000010000000000000000000000000000080000000000010000000000000000000f90217f89b94bcf39f0edda668c58371e519af37ca705f2bfcbdf863a0ddf252ad1be2c89b69c2b068fc378daa952ba7f163c4a11628f55a4df523b3efa000000000000000000000000076ac836236c5a65d9e2dc279ec519a83379c4654a00000000000000000000000000000000000000000000000000000000000000000a00000000000000000000000000000000000000000000000000de0b6b3a7640000f89b94bcf39f0edda668c58371e519af37ca705f2bfcbdf863a08c5be1e5ebec7d5bd14f71427d1e84f3dd0314c0f7b2291e5b200ac8c7c3b925a000000000000000000000000076ac836236c5a65d9e2dc279ec519a83379c4654a000000000000000000000000092e3aea4b9c28ecbd17d92ea34fb6ee96602b4b2a000000000000000000000000000000000000000000000d3bb8c98720382bc0000f8db9492e3aea4b9c28ecbd17d92ea34fb6ee96602b4b2f842a0e8591e9373e8c4801ffc5bb031277889e3e771aee8c55961028bfc65728c9ba9a000000000000000000000000076ac836236c5a65d9e2dc279ec519a83379c4654b88000000000000000000000000000000000000000000000000000000000000000020000000000000000000000000000000000000000000000000de0b6b3a764000000000000000000000000000000000000000000000000000000000000630c20ce0000000000000000000000000000000000000000000000000de0b6b3a7640000'
  ],
  key: '0x5b'
}

let addBlocks = [
  block20853201,
  block20853202,
  block20853203,
  block20853204,
  block20853205,
  block20853206,
  block20853207,
  block20853208,
  block20853209,
  block20853210,
  block20853211,
]

let dAddBlocks = [
  block20853200,
  block20853201,
  block20853202,
  block20853203,
  block20853204,
  block20853205,
  block20853206,
  block20853207,
  block20853208,
  block20853209,
  block20853210
]

module.exports = {
  block20852800,
  block20853000,
  block20853200,
  txReceipt,
  proof,
  addBlocks,
  dAddBlocks
};