let { BigNumber } = require("ethers");

let initBlock = {
    parentHash: "0x5085e5af25a0b70f58bd815e82d3ce773c550783b801bbe5698176c090dcd60f",
    miner: "0x1000000000000000000000000000000000000003",
    stateRoot: "0xd350ee84496596eacfd145a3f12780f8852d87f75176dd90fc695778cc4df280",
    transactionsRoot: "0x56e81f171bcc55a6ff8345e692c0f86e5b48e01b996cadc001622fb5e363b421",
    receiptsRoot: "0x56e81f171bcc55a6ff8345e692c0f86e5b48e01b996cadc001622fb5e363b421",
    logsBloom:
        "0x00000000000000000000000000000000000000000000000000000000000000000000000000000000000000000000000000000000000000000000000000000000000000000000000000000000000000000000000000000000000000000000000000000000000000000000000000000000000000000000000000000000000000000000000000000000000000000000000000000000000000000000000000000000000000000000000000000000000000000000000000000000000000000000000000000000000000000000000000000000000000000000000000000000000000000000000000000000000000000000000000000000000000000000000000000000",
    number: BigNumber.from(21728760),
    gasLimit: BigNumber.from(9424776),
    gasUsed: BigNumber.from(0),
    timestamp: BigNumber.from(1679298587984),
    extraData:
        "0x9054f18fe367cdaf5eb2c06bab60017c804179ec321414dfd0e29045091518d024b95ba5072caf85454b7739533c5aff8fbffccb11a3be062d54b92030d48e212519377237ab9f7ca04a1e73d144bd264739c1e38dbb8d88a876e3f1c523d4fe01",
    nonce: "0x02fcb76f87f3ee2ae11ac130700e47368bec167c5ff28d9142a2addf9bf983186ab4aae4a3cc3da1b24bfa705d18f847d3fdee66442e7d601a843e0491f6b52358025757bae38adb0ab46304fd999f121a",
};

let init_validators = [
    {
        Address: "0x1000000000000000000000000000000000000003",
        NodeId: "0xeb50109b56a1da611b1badd53006b65de40b404fc21c151e836029f58b5151d62fa1d86597ad560ea208451d8502ed3cd105e370219cbf6749341304477dad3f",
        BlsPubKey:
            "0x34574e218d61926c7d16e22226baecbcc1f615f3684293b3f7390aa871cb908ad7b5dd9cdea2606ca0830ad1fc55fc15205adb51c51e963c56e8fa58b9366f1d60f873bed4c556bfeb63f0d48c248a5f7192e2c160f8b36d55fb4a789292140d",
    },
    {
        Address: "0x1000000000000000000000000000000000000003",
        NodeId: "0x0209954e4cb2dae9c211b984c8659bf00e8ff612b08a043bbfaff0c7474e1ef46a4e911c95aee3b1c6bc175da4342745d1b0aa64555d61c80228047b6b691105",
        BlsPubKey:
            "0x34a68f4cafbae76f3c80c793f90b5377b58b4975378683bada1f7200b2030d0a0ada8f46cf1c1d4807493484b1f7c806b879522957d17f4ec79652bb4919bfabd51e40713fc68084d807b77108df7ba1bcfce975afafc4f6becf242fdd86cf00",
    },
    {
        Address: "0x1000000000000000000000000000000000000003",
        NodeId: "0x90c12286c2a5d3c54dbe83058a336c6d7df62ad55de2e3eb42de44a12dcaaaebeb210d6ff1c05fc08354c1344a48c8547ec52ac1f7b96ca6e260c4793d0e60de",
        BlsPubKey:
            "0x3222439c5222959ff42eb7e7b0b00f8cf57446f3f08a17a23fb896308ec5a0732aee10e68c208ff5cf4a45a84526270a4b7b0bb79462d89661c3f5ce06f8ef360c1fb318373093376b2b39f39786a5c133c43aaa2b4cc62b26b2058bbbdcbf91",
    },
    {
        Address: "0x1000000000000000000000000000000000000003",
        NodeId: "0x4ea24accba3da480021bd8c9699e702d9bec0e5f3d7dd1a354697e83b67a4c275b3fb2a21a3be2438a3430fd4b8a9f97acf1c090c1ade599a619fedeac1fb730",
        BlsPubKey:
            "0xe8195b4038a6f728fe06bdebe20ae0c187195cdd455a6699c217ddbc3f44630d9c582ef74b3ba9c835cab74c3f8982058a627a50020dca3e13078e207ed383ac1a68bcf9057b1934fb23b18e65a9241d8dc10b34b115010e6119108ac644f092",
    },
    {
        Address: "0x1000000000000000000000000000000000000003",
        NodeId: "0xbf77e00cc34cc8e15a664e9d40ba5a9c65eb3ecfd71d7b0fe866c025c8574e39742fd978fce03610df675b87f24d050697bb09a04c514ef75f7d4024aa9492c4",
        BlsPubKey:
            "0x21f9bca61629150a74b5560b227d86444d1d71eff233f5cb9493e99efea9af199965195374cd304941cac47d26f5520508887bb5d7748351d871dc6d038ead098fd8fa2097b8b532ddb319460b851829cf02355e84170b21595974a56a4d9a15",
    },
];

let addBlock1 = {
    extraData:
        "0x9054f18fe367cdaf5eb2c06bab60017c804179ec321414dfd0e29045091518d0b2773dc3e4c3633775b79b8bf80406e1bdfbd65cdef0e4b11b15c60bb878ffde59d48a6a3b4c5a855b70ff60f10b2fcbf9de709c690cea4a4be030cc812e869100",
    gasLimit: BigNumber.from("0x8fcf88"),
    gasUsed: BigNumber.from("0x0"),
    logsBloom:
        "0x00000000000000000000000000000000000000000000000000000000000000000000000000000000000000000000000000000000000000000000000000000000000000000000000000000000000000000000000000000000000000000000000000000000000000000000000000000000000000000000000000000000000000000000000000000000000000000000000000000000000000000000000000000000000000000000000000000000000000000000000000000000000000000000000000000000000000000000000000000000000000000000000000000000000000000000000000000000000000000000000000000000000000000000000000000000",
    miner: "0x1000000000000000000000000000000000000003",
    nonce: "0x02becc148df513dbc7e154d5d7c01ba4cb7b1b8cb88dd7d221ea70184ff11e112ad65a8d2f5d8d1b79977b43fdc21cbf31b786c18647a34eb2d2a92ead833377d8266bf55591a058326e67ba08ecebf9d6",
    number: BigNumber.from("0x14b8fa6"),
    parentHash: "0x5c63e483b5bf01d22170a54eb96530d71ae8f430d8a448c080b57b77a8d9d73f",
    receiptsRoot: "0x56e81f171bcc55a6ff8345e692c0f86e5b48e01b996cadc001622fb5e363b421",
    stateRoot: "0x68a073539f51aca9c35878447aa28f5da8afa43fd25b1db768cc4e7e33ee2f9d",
    timestamp: BigNumber.from("0x186fe0619d1"),
    transactionsRoot: "0x56e81f171bcc55a6ff8345e692c0f86e5b48e01b996cadc001622fb5e363b421",
};

let validators1 = [
    {
        Address: "0x1000000000000000000000000000000000000003",
        NodeId: "0xeb50109b56a1da611b1badd53006b65de40b404fc21c151e836029f58b5151d62fa1d86597ad560ea208451d8502ed3cd105e370219cbf6749341304477dad3f",
        BlsPubKey:
            "0x34574e218d61926c7d16e22226baecbcc1f615f3684293b3f7390aa871cb908ad7b5dd9cdea2606ca0830ad1fc55fc15205adb51c51e963c56e8fa58b9366f1d60f873bed4c556bfeb63f0d48c248a5f7192e2c160f8b36d55fb4a789292140d",
    },
    {
        Address: "0x1000000000000000000000000000000000000003",
        NodeId: "0x0209954e4cb2dae9c211b984c8659bf00e8ff612b08a043bbfaff0c7474e1ef46a4e911c95aee3b1c6bc175da4342745d1b0aa64555d61c80228047b6b691105",
        BlsPubKey:
            "0x34a68f4cafbae76f3c80c793f90b5377b58b4975378683bada1f7200b2030d0a0ada8f46cf1c1d4807493484b1f7c806b879522957d17f4ec79652bb4919bfabd51e40713fc68084d807b77108df7ba1bcfce975afafc4f6becf242fdd86cf00",
    },
    {
        Address: "0x1000000000000000000000000000000000000003",
        NodeId: "0x90c12286c2a5d3c54dbe83058a336c6d7df62ad55de2e3eb42de44a12dcaaaebeb210d6ff1c05fc08354c1344a48c8547ec52ac1f7b96ca6e260c4793d0e60de",
        BlsPubKey:
            "0x3222439c5222959ff42eb7e7b0b00f8cf57446f3f08a17a23fb896308ec5a0732aee10e68c208ff5cf4a45a84526270a4b7b0bb79462d89661c3f5ce06f8ef360c1fb318373093376b2b39f39786a5c133c43aaa2b4cc62b26b2058bbbdcbf91",
    },
    {
        Address: "0x1000000000000000000000000000000000000003",
        NodeId: "0x4ea24accba3da480021bd8c9699e702d9bec0e5f3d7dd1a354697e83b67a4c275b3fb2a21a3be2438a3430fd4b8a9f97acf1c090c1ade599a619fedeac1fb730",
        BlsPubKey:
            "0xe8195b4038a6f728fe06bdebe20ae0c187195cdd455a6699c217ddbc3f44630d9c582ef74b3ba9c835cab74c3f8982058a627a50020dca3e13078e207ed383ac1a68bcf9057b1934fb23b18e65a9241d8dc10b34b115010e6119108ac644f092",
    },
    {
        Address: "0x1000000000000000000000000000000000000003",
        NodeId: "0xbf77e00cc34cc8e15a664e9d40ba5a9c65eb3ecfd71d7b0fe866c025c8574e39742fd978fce03610df675b87f24d050697bb09a04c514ef75f7d4024aa9492c4",
        BlsPubKey:
            "0x21f9bca61629150a74b5560b227d86444d1d71eff233f5cb9493e99efea9af199965195374cd304941cac47d26f5520508887bb5d7748351d871dc6d038ead098fd8fa2097b8b532ddb319460b851829cf02355e84170b21595974a56a4d9a15",
    },
];

//[0,1,1,1,1],
quorumCert1 = {
    blockHash: "0x7e2217d6cc0379dee8949882a6e701074fdfcc6b5ee2aae4ca85187932f7bad5",
    blockIndex: 9,
    blockNumber: 21729190,
    epoch: 50533,
    signature:
        "0x64681e8badf90957890bc8a9403bbef985d590ac23ddacbbfbf3320788ce60b6a8fc820c6480f8230c8c75e48f5e090200000000000000000000000000000000",
    validatorSignBitMap: 30,
    viewNumber: 42,
    signedCount: 4,
};

let validators2 = [
    {
        Address: "0x1000000000000000000000000000000000000003",
        NodeId: "0xeb50109b56a1da611b1badd53006b65de40b404fc21c151e836029f58b5151d62fa1d86597ad560ea208451d8502ed3cd105e370219cbf6749341304477dad3f",
        BlsPubKey:
            "0x34574e218d61926c7d16e22226baecbcc1f615f3684293b3f7390aa871cb908ad7b5dd9cdea2606ca0830ad1fc55fc15205adb51c51e963c56e8fa58b9366f1d60f873bed4c556bfeb63f0d48c248a5f7192e2c160f8b36d55fb4a789292140d",
    },
    {
        Address: "0x1000000000000000000000000000000000000003",
        NodeId: "0x0209954e4cb2dae9c211b984c8659bf00e8ff612b08a043bbfaff0c7474e1ef46a4e911c95aee3b1c6bc175da4342745d1b0aa64555d61c80228047b6b691105",
        BlsPubKey:
            "0x34a68f4cafbae76f3c80c793f90b5377b58b4975378683bada1f7200b2030d0a0ada8f46cf1c1d4807493484b1f7c806b879522957d17f4ec79652bb4919bfabd51e40713fc68084d807b77108df7ba1bcfce975afafc4f6becf242fdd86cf00",
    },
    {
        Address: "0x1000000000000000000000000000000000000003",
        NodeId: "0x90c12286c2a5d3c54dbe83058a336c6d7df62ad55de2e3eb42de44a12dcaaaebeb210d6ff1c05fc08354c1344a48c8547ec52ac1f7b96ca6e260c4793d0e60de",
        BlsPubKey:
            "0x3222439c5222959ff42eb7e7b0b00f8cf57446f3f08a17a23fb896308ec5a0732aee10e68c208ff5cf4a45a84526270a4b7b0bb79462d89661c3f5ce06f8ef360c1fb318373093376b2b39f39786a5c133c43aaa2b4cc62b26b2058bbbdcbf91",
    },
    {
        Address: "0x1000000000000000000000000000000000000003",
        NodeId: "0x4ea24accba3da480021bd8c9699e702d9bec0e5f3d7dd1a354697e83b67a4c275b3fb2a21a3be2438a3430fd4b8a9f97acf1c090c1ade599a619fedeac1fb730",
        BlsPubKey:
            "0xe8195b4038a6f728fe06bdebe20ae0c187195cdd455a6699c217ddbc3f44630d9c582ef74b3ba9c835cab74c3f8982058a627a50020dca3e13078e207ed383ac1a68bcf9057b1934fb23b18e65a9241d8dc10b34b115010e6119108ac644f092",
    },
    {
        Address: "0x1000000000000000000000000000000000000003",
        NodeId: "0xbf77e00cc34cc8e15a664e9d40ba5a9c65eb3ecfd71d7b0fe866c025c8574e39742fd978fce03610df675b87f24d050697bb09a04c514ef75f7d4024aa9492c4",
        BlsPubKey:
            "0x21f9bca61629150a74b5560b227d86444d1d71eff233f5cb9493e99efea9af199965195374cd304941cac47d26f5520508887bb5d7748351d871dc6d038ead098fd8fa2097b8b532ddb319460b851829cf02355e84170b21595974a56a4d9a15",
    },
];

let addBlock2 = {
    extraData:
        "0x9054f18fe367cdaf5eb2c06bab60017c804179ec321414dfd0e29045091518d0af0a9b55c266d09c14e392b26dd71894994f36f06aad6d1f743664db36c517ef2c0a3d9d1a5aba4631956203e060afbd19170384b8dcae56efa168c7488e60d201",
    gasLimit: BigNumber.from("0x8fcf88"),
    gasUsed: BigNumber.from("0x11c27"),
    logsBloom:
        "0x00000000000000000000000000000000000000000000040000000000000000000000000000000000000000000000000000000000040000000000000000000000000000800000000000000008000000000000000000000000000000000020000000000000020000000000000000000900000000000000001000000010000000000000000000100000000000020000000000000000000000000000000000000000000000000000000000000000000000000000000000000000000000000000000000000002000000000000000002000000000002000000000004000000000020000000000000000008000000000000000000000000000000000000000000000000",
    miner: "0x1000000000000000000000000000000000000003",
    nonce: "0x03ad1878db15bacbd772b555a1776454f1c13a04edc03782ee7cc1ee4975f30f9a54cff69a52c8e0df0c2b9f263b5aa934c2eb307f67dd1e7ee324c43646c89406640fc59d7ecef0671385dcdd588b67b9",
    number: BigNumber.from("0x14b9154"),
    parentHash: "0x073f66dfb06c11c0767bad8286275e3017b63f40a62d561c3e2d3d81d8d8ad52",
    receiptsRoot: "0x5f0268032a5682fb5896ec0422799de67cb622cf71fc25282c94860af1f91954",
    stateRoot: "0x3c770b8d49069bc7e01a7bbc5e2d9108b035a28f1db628a77eb972425802ad70",
    timestamp: BigNumber.from("0x186fe0d45a5"),
    transactionsRoot: "0xf91f4c516c5e0125f8964a139d7b0f37b004208d491634fa739e7d7e00579d34",
};

// [0,1,1,1,1],
quorumCert2 = {
    blockHash: "0xed9ae646e199cf8f64a891451bc7d24e36de3bccb7b69852393f1b7078c9de80",
    blockIndex: 9,
    blockNumber: 21729620,
    epoch: 50534,
    signature:
        "0x633cdc665b193e24d0101671431e31e104d750393bbf189da595b8f0ce1399c64607e866c4061a5108c7b508f578330300000000000000000000000000000000",
    validatorSignBitMap: 30,
    viewNumber: 42,
    signedCount: 4,
};

let proofHead = {
    parentHash: "0x31b491c3c7020e30939e9cd27ffcb24f5bb1f24372805178ab18ae3757dfa44d",
    miner: "0x1000000000000000000000000000000000000003",
    stateRoot: "0x4dce5f6a346b0976a1f03f97f5f8f4b4a7bb608c9aaba27aa49d2bd2ca3ecb42",
    transactionsRoot: "0x84cadeb48aa282b2a3af0c4ecfe9e843f49941009e66d75ecaa23546129fe909",
    receiptsRoot: "0x6a52498bc561b85a08cef08ca30acffa22941aded79d42b451719bdda75ec315",
    logsBloom:
        "0x00000000000002000000000000000000000000000000000002000000000000000000000000000000020000000000000000000000000000000000000000000000000000000000000000000008000000000000000000000000000000000020000000000000020000000000000000000900000000000000001000000010000000000000000000000000000000020000000000000000000000000002000800000000000000000000000000000000000000000000000000000000000000000000000000000002000000000000000002000000000002000000000000000000000020000000000000000000000000000000000000000000000000000000000000002000",
    number: BigNumber.from("0x14b9143"),
    gasLimit: BigNumber.from("0x8fcf88"),
    gasUsed: BigNumber.from("0x11c27"),
    timestamp: BigNumber.from("0x641813b5"),
    extraData:
        "0xdb8301040086706c61746f6e89676f312e31382e3130856c696e757800000000d5cd1f9c2c226457797047d4c0cb46a54d62111a9f62139e2d95dc891d56d571180e4f4b057e0beaa417315ed4e6a6074f7a222f56e85883754750a609e00a1300",
    nonce: "0x02b24775c7a423e9",
};

let proof_q = {
    blockHash: "0xea3c2bb2e83d0ca833f8af49783d3be2481c2ac4f43162465dd24d7b33a7d268",
    blockIndex: 2,
    blockNumber: 21729603,
    epoch: 50534,
    signature:
        "0x4964a334bec8d4291a61f55c7a26ad6735beee4b135472978f49ea681fcc6da08e0c3c9833378c34116f93a278c1de1300000000000000000000000000000000",
    viewNumber: 41,
    validatorSignBitMap: 23, //  "validatorSet": "xxx_x",
    signedCount: 4,
};

//txHash 0xbf684bda3767bd3b756e03f441c1b36b68c09ef5795702af642eddf884053e29
let txReceipt = {
    receiptType: BigNumber.from(0),
    postStateOrStatus: "0x01",
    cumulativeGasUsed: BigNumber.from(72743),
    bloom: "0x00000000000002000000000000000000000000000000000002000000000000000000000000000000020000000000000000000000000000000000000000000000000000000000000000000008000000000000000000000000000000000020000000000000020000000000000000000900000000000000001000000010000000000000000000000000000000020000000000000000000000000002000800000000000000000000000000000000000000000000000000000000000000000000000000000002000000000000000002000000000002000000000000000000000020000000000000000000000000000000000000000000000000000000000000002000",
    logs: [
        {
            addr: "0x8C9Ad6fcd6B1E009746813a3Ee93b8CF2843C78a",
            topics: [
                "0xddf252ad1be2c89b69c2b068fc378daa952ba7f163c4a11628f55a4df523b3ef",
                "0x0000000000000000000000000000000000000000000000000000000000000000",
                "0x0000000000000000000000004a3fceb6294bb652343f942653d0d4b274cecac6",
                "0x0000000000000000000000000000000000000000000000000000000000000059",
            ],
            data: "0x",
        },
        {
            addr: "0x8C9Ad6fcd6B1E009746813a3Ee93b8CF2843C78a",
            topics: [
                "0xcd0e00beb8e6d5ab96ee16e6a1a735ff07cae8702f2e48feb32fefe40f25692c",
                "0x0000000000000000000000004a3fceb6294bb652343f942653d0d4b274cecac6",
            ],
            data: "0x00000000000000000000000000000000000000000000000000000000000000590000000000000000000000000000000000000000000000000000000000000059000000000000000000000000000000000000000000000000000000000000006000000000000000000000000000000000000000000000000000000000000000086d6f636b5461736b000000000000000000000000000000000000000000000000",
        },
    ],
};

let proof = {
    proof: [
        "0xf902af822080b902a9f902a60183011c27b9010000000000000002000000000000000000000000000000000002000000000000000000000000000000020000000000000000000000000000000000000000000000000000000000000000000008000000000000000000000000000000000020000000000000020000000000000000000900000000000000001000000010000000000000000000000000000000020000000000000000000000000002000800000000000000000000000000000000000000000000000000000000000000000000000000000002000000000000000002000000000002000000000000000000000020000000000000000000000000000000000000000000000000000000000000002000f9019bf89c948c9ad6fcd6b1e009746813a3ee93b8cf2843c78af884a0ddf252ad1be2c89b69c2b068fc378daa952ba7f163c4a11628f55a4df523b3efa00000000000000000000000000000000000000000000000000000000000000000a00000000000000000000000004a3fceb6294bb652343f942653d0d4b274cecac6a0000000000000000000000000000000000000000000000000000000000000005980f8fb948c9ad6fcd6b1e009746813a3ee93b8cf2843c78af842a0cd0e00beb8e6d5ab96ee16e6a1a735ff07cae8702f2e48feb32fefe40f25692ca00000000000000000000000004a3fceb6294bb652343f942653d0d4b274cecac6b8a000000000000000000000000000000000000000000000000000000000000000590000000000000000000000000000000000000000000000000000000000000059000000000000000000000000000000000000000000000000000000000000006000000000000000000000000000000000000000000000000000000000000000086d6f636b5461736b000000000000000000000000000000000000000000000000",
    ],
    key: "0x80",
};

module.exports = {
    initBlock,
    init_validators,
    addBlock1,
    validators1,
    quorumCert1,
    validators2,
    addBlock2,
    quorumCert2,
    txReceipt,
    proof,
    proof_q,
    proofHead,
};
